:0300000002116981
:0C116900787FE4F6D8FD7581300211B0EB
:101A7B000202030405060708090A0B0C0D0E0F10D2
:1013080046002EFFFFFFFFFFFF4100280041002994
:0113180001D3
:10140600F0A304F0A304F0A304F0A304F0A304F0F3
:10141600A304F0A304F0A304F0A304F0A304F0A330
:1014260004F0A304F0A304F0A304F0A304F07B01EA
:061436007A0079347D15F7
:06143C008B098A0A890BEE
:10144200E4900074F0900073F0900073E0FFC39D8D
:101452005020A3E0FEAB09AA0AA90B8F8275830074
:101462001204C2FFEE6F900074F0900073E004F07B
:0714720080D7900074E0FF39
:011479002250
:0616E0008B098A0A890B48
:1016E600E4900073F0A3740AF0AB09AA0AA90B7F71
:1016F600521214EDEF7007900073E04401F0AB094D
:10170600AA0AA90B120CB9EF7007900073E0440205
:10171600F0900073E0FFB403028013900074E0FEC3
:0E17260014F0EE70028007E4900073F080BBB8
:011734002292
:081389008F098B0A8A0B890C05
:10139100E4900073F07F521214EDEF700790007328
:1013A100E04401F0AB0AAA0BA90C120CB9EF7007CB
:1013B100900073E04402F0AB0AAA0BA90C120D7461
:1013C100EF7007900073E04404F0850A15850B1651
:1013D100850C177B017A00792EAD097F61120F8C84
:1013E100EF7007900073E04408F0AB0DAA0EA90F4F
:1013F100AF0912127FEF7007900073E04420F09064
:041401000073E0FF95
:0114050022C4
:0100060022D7
:100EE300E4FF1219DA900072EFF06401705A7F0187
:100EF30012155C900034EFF07F1112155C900035F1
:100F0300EFF07F2D12155C900036EFF07F2C121559
:100F13005C900037EFF07F2A12155C900038EFF0F9
:100F23007F2B12155C900039EFF07F1512155C9042
:100F3300003AEFF0A374AAF07B017A0079347D08BC
:100F43001219F57FA3021ABE7F011219DA900072FB
:100F5300EFF064017032750D01750E00750F187B8B
:100F6300017A00792A7F14121389900028EFF0BFC9
:100F73002FE47B017A00792A7D041219F57B017A2B
:080F83000079187D101219F528
:010F8B002243
:10162D00E4FF121689900072EFF07F051216899073
:10163D000072EFF07F02121689900072EFF07F04B6
:10164D00121689900072EFF0BF01269000367403D8
:10165D00F0A314F0E4A3F07B017A0079347D051238
:10166D00143C900039EFF07B017A0079340D12199A
:0B167D00F57F01121689900072EFF05B
:01168800223F
:100B030090007274FFF07B017A0079007D17121454
:100B13003C900017E06F6003020BF3900002E0903B
:100B23000072F0704B7B017A00792A1216E0EF64B1
:100B3300036003020BF39000367406F0E4A3F09015
:100B4300002AE0900038F090002BE0900039F090FC
:100B5300002CE090003AF090002DE090003BF07BF9
:100B6300017A0079347D0812143C90003C020BE7B3
:100B7300900072E06401701A9000367413F0A3744D
:100B830001F0A37420F0A37401121406900049022B
:100B93000BE7900072E0640270169000367413F055
:100BA300A37402F0A314F0A3121406900049803436
:100BB300900072E0640370389000367408F0A374F8
:100BC30003F0A37401F0A304F0A304F0A304F0A3BF
:100BD3007401F0E4A3F07B017A0079347D0A1214E6
:100BE3003C90003EEFF07B017A0079340D1219F549
:010BF30022DF
:101A0F00EF1FAC0670011E4C600D0000007D0B7CBB
:071A1F00BEDCFEDDFC80E9E6
:011A2600229D
:1011F500121AC41200167F807E257D007C0012180D
:10120500FC750D01750E00750F347510027B017AA2
:101215000079007D181219597BFF7A0079067F0342
:1012250012197E7BFF7A0E79E3E4FF12197E7BFFAC
:101235007A16792D7F0512197E7BFF7A0B79037F4C
:101245000412197E90003474AAF0A37455F07F152A
:10125500121ABE750C03750D04750E05750F06750E
:1012650010077B027D01E4FF120E2C12192D7FE879
:0A1275007E03121A0F12090580FB18
:10192D00C2AF53B3E143B41E4391015392FE5391A1
:10193D00FD439202D291D2C1D2C2C290C2C3D2C4CF
:0C194D001218C7121AB0121A3DD2AF22B5
:0814ED008F108B118A12891384
:1014F5001219BD7D077F0D1215CC7D037F14121ABD
:1015050027900078E510F0751C01751D01751E000A
:10151500751F787520017521007522767A00797816
:101525001202CD900075EFF07027A3E07004A3E0E0
:101535006410701D900078E0AB11AA12A913120473
:10154500EF900079E0AB11AA12A9139000011205E2
:0615550001900075E0FFAB
:01155B00226D
:060CB9008B108A11891264
:100CBF00E4900077F01219BDE4FD7F0D1215CC7D85
:100CCF00807F0E1219C190007A7493F0A37420F0F4
:100CDF00751C02751D01751E00751F7A7520017533
:100CEF0021007522787B017A00797A7F0C1202D16C
:100CFF00900075EFF07061A3F0900076E0FFC39461
:100D0F00045039E0FE247AF582E43400F583E0AB39
:100D1F0010AA11A9128E8275830012050190007717
:100D2F00E0FE747A2FF582E43400F583E0FFEE6F76
:100D3F00900077F0900076E004F080BD900076E0B0
:100D4F00247AF582E43400F583E0FF900077E06FBA
:100D5F00600690007574FEF07D807F0E121A27904A
:040D6F000075E0FF2C
:010D7300225D
:060D74008B108A118912A8
:100D7A009000787493F0A37470F0E490007EF09081
:100D8A000075F0900075E0FFC394045039AB10AAC7
:100D9A0011A912E0FEF5827583001204C2FD747A6D
:100DAA002EF582E43400F583EDF090007EE0FE8FAC
:100DBA00827583001204C2FFEE6F90007EF09000ED
:100DCA0075E004F080BD75170175180075197F7BF1
:100DDA00017A0079787D0712104D1219BD751C0928
:100DEA00751D01751E00751F787520017521007526
:100DFA0022767B017A0079787F0C1202D1900074F6
:100E0A00EFF07012900076E07004A3E064187006A8
:100E1A00900074F0800690007474FEF0900074E004
:010E2A00FFC8
:010E2B0022A4
:060F8C008B128A13891488
:100F9200900078EFF0A3EDF0E4900077F0AB12AAA6
:100FA20013A914900077E0FFF5827583001204C242
:100FB200FE747A2FF582E43400F583EEF090007728
:100FC200E004F0E0B406D6E4900077F0AB15AA1680
:100FD200A917900077E0FFF5827583001204C2FE24
:100FE20074802FF582E43400F583EEF0900077E010
:100FF20004F0E0B406D6751C0C751D01751E007553
:101002001F787520017521007522757B017A0079A0
:10101200787F0E1202D1900074EFF070097F0812EF
:10102200155CEF20E30690007474FEF0900074E00B
:01103200FFBE
:01103300229A
:06127F008B108A11891298
:101285009000787430F0A3EFF075170175180075AC
:10129500197A7A007978121049751C04751D017543
:1012A5001E00751F787520017521007522757B015B
:1012B5007A0079787F0C1202D1900074EFF07037C4
:1012C500A3E07004A3E06490702D900077F0900087
:1012D50077E0FF2478F582E43400F583E0AB10AACB
:1012E50011A9128F82758300120501900077E00421
:1012F500F0E0B410D9800690007474FEF09000748C
:02130500E0FF07
:0113070022C3
:060A0D008B2B8A2C892DC1
:100A130090009C74A0F0A3EFF07517017518007592
:100A2300199E7B017A00799C7D0212104D751C047E
:100A3300751D01751E00751F9C75200175210075BC
:100A430022997B017A00799C7F0C1202D190009845
:100A5300EFF07014A3E07004A3E06404700A900044
:100A63009CE0540F640A600690009874FEF09000B6
:100A730098E06003020AFD90009BF0AB2BAA2CA91F
:100A83002D90009BE0FFF5827583001204C2FE7473
:100A93009C2FF582E43400F583EEF090009BE00494
:100AA300F0E0B410D67517017518007519AC7B0109
:100AB3007A00799C7D1012104D751C12751D0175FD
:100AC3001E00751F9C7520017521007522997B01FD
:100AD3007A00799C7F0C1202D1900098EFF0701489
:100AE300A3E07004A3E06404700A90009CE0540F38
:0F0AF300640A600690009874FEF0900098E0FF8F
:010B020022D0
:080BF4008D238B248A2589263C
:100BFC00EF1210341202B49000AEEFF07014A3E0B8
:100C0C007004A3E06404700A9000B2E0540F640A0C
:100C1C0060069000AE74FEF09000AEE0705A90004A
:100C2C00B1F0AB24AA25A9269000B1E0FFF582759E
:100C3C0083001204C2FE74B22FF582E43400F583F3
:100C4C00EEF09000B1E004F0E0B410D67517017529
:100C5C0018007519B67B017A0079B27D0412104D1B
:100C6C00E49000AFF0A3F0751C061202B79000AE32
:100C7C00EFF064FE6002E4F09000AEE0702974B016
:100C8C001210341202B49000AEEFF07014A3E070A6
:100C9C0004A3E06404700A9000B2E0540F640A608C
:0C0CAC00069000AE74FEF09000AEE0FF79
:010CB8002219
:0207E8008D3052
:1007EA009000DD74C2F0A3EFF0751701751800755B
:1007FA0019DF7B017A0079DD7D0212104D751C0428
:10080A00751D01751E00751FDD75200175210075A6
:10081A0022DB7B017A0079DD7F0C1202D19000DAAB
:10082A00EFF07014A3E07004A3E06404700A90006F
:10083A00DDE0540F640A60069000DA74FEF090005E
:10084A00DAE070499000DDF0A3F0A3F0A3F0751789
:10085A00017518007519E17B017A0079DD7D0412B2
:10086A00104D751C06751D01751E00751FDD75205E
:10087A00017521007522DB7B017A0079DD7F0C127C
:10088A0002D19000DAEFF064FE6002E4F09000DA40
:10089A00E060037FFE229000DD74B0F0A3E530F043
:1008AA007517017518007519DF7B017A0079DD7DEE
:1008BA000212104D751C04751D01751E00751FDD91
:1008CA007520017521007522DB7B017A0079DD7FB5
:1008DA000C1202D19000DAEFF07014A3E07004A3B6
:1008EA00E06404700A9000DDE0540F640A60069028
:0A08FA0000DA74FEF09000DAE0FF6F
:0109040022D0
:1017D5009000F27450F0E4A3F075170175180075C8
:1017E50019F47B017A0079F27D0212104D751C0403
:1017F500751D01751E00751FF27520017521007597
:1018050022F07B017A0079F27F0C1202D19000EF71
:04181500EFF07F0071
:0118190022AC
:101034009000B2F0A3E523F0751701751800751937
:09104400B47A0079B27B017D024F
:08104D008B138A1489158D161E
:101055007D047F051219C11215C87D807F0A121AF9
:1010650027E490008AF090008AE0FFC39516501C93
:10107500AB13AA14A9158F827583001204C2FD7FD4
:10108500091215CC90008AE004F080DA7D037F0117
:101095001215CC90008A74FFF07F0512155C900044
:1010A5008BEFF090008AE014F0E06005A3E030E2F9
:1010B500E87F2212155CAB17AA18A919EF1204EFE5
:1010C5007F2112155CAB17AA18A919900001EF0230
:0210D500050113
:1018C7007D0F7F011215CC007D3D7F111215CC7D58
:1018D7001E7F2D1215CCE4FD7F2C1215CC7D8D7F3C
:1018E7002A1215CC7D3E7F2B1215CC7D407F151219
:0518F70015CC7F00226A
:10155C00E4900096F0C2AFD2C1C291EF25E0547E68
:10156C004480900095F09000947408F0900095E001
:10157C00FF30E703D38001C3B392C2C2C1EF25E0B1
:10158C00900095F0D2C1900094E014F0E070DD90E2
:10159C0000947408F0C2C1900096E025E0F0309001
:1015AC0004E04401F0D2C1900094E014F0E070E546
:0B15BC00D291D2C1D2AF900096E0FFA8
:0115C7002201
:0415C800E4FD7F01BE
:1015CC00C2AFD2C1C291EF25E0547E900095F0904D
:1015DC0000947408F0900095E0FF30E703D380018D
:1015EC00C3B392C2C2C1EF25E0900095F0D2C19076
:1015FC000094E014F0E070DD9000947408F0ED308D
:10160C00E703D38001C3B392C2C2C1ED25E0FDD282
:10161C00C1900094E014F0E070E4D291D2C1D2AF4A
:01162C00229B
:021A2700AE0708
:101A2900E4900093F012155C900093EFF0AF064D2F
:041A3900FD0215CCC9
:0419BD007D087F081A
:0219C100AE076F
:1019C300E4900093F012155C900093EFF0FCAF06E7
:0719D300EDF45CFD0215CCF0
:1002B400751C04751D01751E00751FB2752001752E
:0D02C40021007522AF7A0079B27B017F0C1A
:0802D1008F188B198A1A891B92
:1002D90090008C74FEF0E4A3F0A3F0E51824F46018
:1002E9001024FE701690008D7412F0A37410F08023
:1002F9000A90008D7477F0A37430F090008DE0447B
:1003090080FD7F021215CC7D807F041219C1121560
:10031900C87D807F0A121A27E4900091F0A3F0901B
:100329000091E0FCA3E0FDC3951CEC94005023ABC5
:1003390019AA1AA91B8D828C831204C2FD7F091286
:1003490015CC900092E004F070D5900091E004F093
:1003590080CDAD187F011215CCE518B40C077D804E
:100369007F0D121A279000917402F0A37458F07F40
:100379000412155C900090EFF0900092E024FFF0D9
:10038900900091E034FFF0E07002A3E0601190006A
:1003990090E0FF20E00990008EE0FEEF5E60D07DE6
:1003A900807F0D1219C1900091E07002A3E07003E3
:1003B9000204997F0612155CEF541B600302049333
:1003C90090008CF0A3E0FF900090E05F30E0069091
:1003D900008C74FFF0E518640C60030204997F0A2D
:1003E90012155C900090EFF07F0C12155CEF54072A
:1003F90090008FF06026A3E024FFFFE434FFFEEFB6
:100409007803C333CE33CED8F9FF90008FE07C0058
:100419002FFFEC3EAB20AA21A9228011900090E089
:1004290075F008A4FFAB20AA21A922E5F08FF012EC
:100439000578900090E0700204F0900090E0D39469
:100449001240037412F0E4900091F0A3F090009030
:10045900E0FFC3900092E09F900091E0940050303B
:100469007F0912155CAB1DAA1EA91F900091E0FC23
:10047900A3E0F5828C83EF120501900092E004F06D
:1004890070CB900091E004F080C390008C74FEF072
:0F0499007D807F0C121A271215C890008CE0FF8F
:0104A8002231
:101A3D007F1412155C900072EFF0540370077D0354
:051A4D007F14121A27AE
:011A52002271
:071AB0007D037F140219C140
:101319004100D5004100D9004100D3004100D60069
:101329004100D8004100D4004100D7004100D0005D
:0B1A9A00759D9F75BC88D2ADD2AF22B5
:071AB7007B017A0079C422D3
:10168900EF70089000D9E05401FF22BF010A9000D1
:10169900D9E05402C313FF22BF020C9000D9E054D1
:1016A900041313543FFF22BF030D9000D9E05408DF
:1016B900131313541FFF22BF040B9000D9E05410D9
:1016C900C4540FFF22BF050C9000D9E05420C41365
:0716D9005407FF227F0022ED
:03002B0002002EA2
:10002E00C0E0C0F0C083C082C0D075D000C002C096
:10003E0004C005C006C0079000D5E0FD7017AFBD27
:10004E00EF75F004A4FFACBEEC7A002FFEEA35F09B
:10005E009000C4806EEDB40115AFBDEF75F004A431
:10006E00ADBE7C002DFEEC35F09000C680559000A4
:10007E00D5E0FDB40217AFBDEF75F004A4FFACBE22
:10008E00EC7A002FFEEA35F09000C88036EDB4030E
:10009E0015AFBDEF75F004A4ADBE7C002DFEEC35A2
:1000AE00F09000CA801D9000D5E0FDB4041CAFBDD9
:1000BE00EF75F004A4FFACBEEC7A002FFEEA35F02B
:1000CE009000CCF0A3CEF0020293ED640760030221
:1000DE000293AFBDEF75F004A4ADBE7C002DFEEC17
:1000EE0035F09000CEF0A3CEF09000CEE0FEA3E06F
:1000FE00FFC3EE9400402FD3EF9410EE94005026E1
:10010E009000D3E0FDB414109000D9E04401F090BB
:10011E000050E04420F08006EDC39414500D900082
:10012E00D3E004F080059000D3E4F09000CEE0FE22
:10013E00A3E0FFC3948BEE9400402FD3EF94ABEE6D
:10014E00940050269000D6E0FDB414109000D9E033
:10015E004402F0900050E04420F08006EDC3941469
:10016E00500D9000D6E004F080059000D6E4F0909B
:10017E0000CEE0FEA3E0FFC39420EE9401402DD309
:10018E00EF9440EE940150249000D8E0FDB4140E8C
:10019E00A3E04404F0900050E04420F08006EDC34C
:1001AE009414500D9000D8E004F080059000D8E42F
:1001BE00F09000CEE0FEA3E0FFC394B9EE940140B0
:1001CE000FD3EF94D9EE940150067C007D0180048C
:1001DE007C007D009000D2E025E0FF9000D1E0335E
:1001EE004CFEEF4DFFEEF0A3EFF0B40012EEB4E0D4
:1001FE000E9000D9E04408F0900050E04420F090BA
:10020E0000CEE0FEA3E0FFC39448EE9402402FD34D
:10021E00EF9468EE940250269000D7E0FDB41410CF
:10022E009000D9E04410F0900050E04420F0800699
:10023E00EDC39414500D9000D7E004F080059000AB
:10024E00D7E4F09000CEE0FEA3E0FFC394D3EE948B
:10025E0002402DD3EF94F3EE94025024A3E0FDB4AC
:10026E0014109000D9E04420F0900050E04420F0AB
:10027E008006EDC39414500D9000D0E004F080057C
:10028E009000D0E4F09000D5E0045407F02488F5F7
:10029E00BCD007D006D005D004D002D0D0D082D0AA
:0602AE0083D0F0D0E03225
:101890003F065B4F666D7D077F6F777C395E7971A0
:1018A000BF86DBCFE6EDFD87FFEF3D760F0E753887
:1018B00037545C73673149783E1C7E646E5A00FF72
:0718C000F7FCB9DEF9F1406D
:0413390041010D1051
:0C001600E4F5957596FFF5937594FF22B4
:061ABE0090010CEFF02284
:100E2C00EF3395E0FE74902FF58274183EF583E451
:100E3C0093900104F0AF05EF3395E0FE74902FF51D
:100E4C008274183EF583E493900105F0AF03EF3301
:100E5C0095E0FE74902FF58274183EF583E4939020
:100E6C000106F0AF0CEF3395E0FE74902FF5827411
:100E7C00183EF583E493900107F0AF0DEF3395E046
:100E8C00FE74902FF58274183EF583E4939001085C
:100E9C00F0AF0EEF3395E0FE74902FF58274183E90
:100EAC00F583E493900109F0AF0FEF3395E0FE74F6
:100EBC00902FF58274183EF583E49390010AF0AFFD
:100ECC0010EF3395E0FE74902FF58274183EF58385
:070EDC00E49390010BF022EA
:100698008F2A8E298D288C277B807A9679987800E6
:1006A8001205D3E47B0AFAF9F81205D374902BF5F6
:1006B8008274183AF583E493900104F07B407A42FF
:1006C800790F7800AF2AAE29AD28AC271205D3E4FC
:1006D8007B0AFAF9F81205D374902BF58274183A4C
:1006E800F583E493900105F07BA07A867901780080
:1006F800AF2AAE29AD28AC271205D3E47B0AFAF954
:10070800F81205D374902BF58274183AF583E493A4
:10071800900106F0E47B107A27F9F8AF2AAE29ADEC
:1007280028AC271205D3E47B0AFAF9F81205D3742A
:10073800902BF58274183AF583E493900107F0E45E
:100748007BE87A03F9F8AF2AAE29AD28AC27120561
:10075800D3E47B0AFAF9F81205D374902BF5827466
:10076800183AF583E493900108F0E47B64FAF9F809
:10077800AF2AAE29AD28AC271205D3E47B0AFAF9D3
:10078800F81205D374902BF58274183AF583E49324
:10079800900109F0E47B0AFAF9F8AF2AAE29AD28EE
:1007A800AC271205D3E47B0AFAF9F81205D3749042
:1007B8002BF58274183AF583E49390010AF0E47BF0
:1007C8000AFAF9F8AF2AAE29AD28AC271205D37476
:1007D800902BF58274183AF583E49390010BF0227C
:0F1A8B0074042FF582E43401F583E02480F02207
:10181A0090010DE030E312E5A054F72408F5A090FA
:10182A00010CE0F580E4A3F02290010DE0FF5407DB
:10183A00FEE5A054F02EF5A074042EF582E43401DE
:0E184A00F583E0F580EF04540F90010DF022BD
:1019DA00EF7008900118E05401FF22BF010A90013C
:0B19EA0018E05402C313FF227F00220C
:10133D005E005200000000000000000000000000F0
:10134D000000000000000000000000000000000090
:10135D000042004F000041004E00420070000002AC
:0B136D002E000041004C0041004D002C
:10199F00EF25E025E0FFE58954F02F2410F589E5C8
:0E19AF008E547F2480F58ED28CD2A9D2AF2226
:101A5300438E805389F0758ACD758CD4C28DD28C18
:051A6300D2A9D2AF2260
:0B1AA500D2AFD2A8D2AAD288D28A22E7
:061AC400121AA5021A53DC
:10197E00EF3395E0FE90005275F003EF120686EEFF
:10198E0075F003A42583F583EBF0A3EAF0A3E9F049
:01199E002226
:1010D700900050E030E020900052E0FBA3E0FAA33C
:1010E700E0F9EA494B6003120692E4900118F09088
:1010F7000050E06401F022900050E030E41B9000C3
:101107005EE0FBA3E0FAA3E0F9EA494B60031206AD
:1011170092900050E06410F022900050E030E520FB
:10112700900061E0FBA3E0FAA3E0F9EA494B600312
:10113700120692E49000D9F0900050E06420F0226B
:10114700900050E030E71A900067E0FBA3E0FAA3B5
:10115700E0F9EA494B6003120692900050E0648080
:02116700F02274
:100905001210D790004EE064016003020A0C758A4C
:10091500CD758CD4900055E0FBA3E0FAA3E0F9EA8D
:10092500494B6008900055A3A312069212181A208D
:10093500B22890004CE0FDB40A10900050E064012C
:10094500F0900118E06401F08008C3ED6480948A9A
:10095500500D90004CE004F08005E490004CF02030
:10096500B32890004DE0FDB40A10900050E06401FA
:10097500F0900118E06402F08008C3ED6480948A69
:10098500500D90004DE004F08005E490004DF0AE70
:100995002EAF2F7C007D0A120523ED4C70139000BD
:1009A50058E0FBA3E0FAA3E0F9EA494B600312061D
:1009B50092AE2EAF2F7C007D64120523ED4C701393
:1009C50090005BE0FBA3E0FAA3E0F9EA494B600382
:1009D500120692AE2EAF2F7C037DE8120523ED4C57
:1009E5007018900064E0FBA3E0FAA3E0F9EA494B34
:1009F5006003120692E4F52EF52F052FE52F700200
:070A0500052EE490004EF005
:010A0C0022C7
:03000B00021A686E
:101A6800C0E0C083C08290004E7401F0D082D08361
:031A7800D0E03289
:03000300020007F1
:0100070032C6
:03001300020008E0
:0100080032C5
:10185800000004B0000000E800000960000000F487
:10186800000012C0000000FA00002580000000FD02
:1018780000004B00000000FE00009600000000FF82
:081888000000E100000000FF78
:101378004101140041011200410111004101130013
:081735008F108E0F8D0E8C0D3C
:10173D00E4900072F0900072E0FFC39407503BEF0D
:10174D0075F008A42458F582E43418F58312067652
:10175D00AB10AA0FA90EA80DC31206657014900048
:10176D0072E075F008A4245CF582E43418F5830268
:0C177D000676900072E004F080BB7FFD57
:01178900223D
:1018FC008F0C8E0B8D0A8C09759850E589540F242A
:10190C0020F589AF0CAE0BAD0AAC0912173590015E
:10191C0013EFF0F58DF58BD28E538EFED2ACD2AF89
:01192C002298
:1019F500AF051DEF60131204A9F5993099FDC29941
:0A1A0500740129F9E43AFA80E7229F
:1019590090010EEBF0A3EAF0A3E9F0900115E50D73
:10196900F0A3E50EF0A3E50FF0900114EDF090015E
:0519790012E510F02250
:10178A00E4900097F0900112E0FF900097E0FEC30A
:10179A009F5035900115E0FBA3E0FAA3E0F98E8291
:1017AA007583001204C2FF90010EE0FBA3E0FAA3C6
:1017BA00E0F98E827583001204C26F60037F0022F3
:0A17CA00900097E004F080BD7F015D
:0117D40022F2
:0300230002147A4A
:10147A00C0E0C083C082C0D075D000C000C001C027
:10148A0002C003C006C007309902C29930983F9043
:10149A000114E0FF900111E0FEC39F502F90010E4E
:1014AA00E0FBA3E0FAA3E0F98E82758300E59912C6
:1014BA000501900111E004F0E0C39F400FE4F0122F
:1014CA00178AEF6007900050E04410F0C298D007E6
:1014DA00D006D003D002D001D000D0D0D082D083A1
:0314EA00D0E0321D
:101175000211F5E493A3F8E493A34003F68001F28A
:1011850008DFF48029E493A3F85407240CC8C3337B
:10119500C4540F4420C8834004F456800146F6DF4A
:1011A500E4800B0102040810204080901308E47EBF
:1011B500019360BCA3FF543F30E509541FFEE4933F
:1011C500A360010ECF54C025E060A840B8E493A306
:1011D500FAE493A3F8E493A3C8C582C8CAC583CA31
:1011E500F0A3C8C582C8CAC583CADFE9DEE780BEE9
:011388000064
:1004A900BB010689828A83E0225002E722BBFE0251
:0904B900E32289828A83E4932284
:1004C200BB010CE58229F582E5833AF583E02250EF
:1004D20006E92582F8E622BBFE06E92582F8E22239
:0D04E200E58229F582E5833AF583E4932253
:1004EF00BB010689828A83F0225002F722BBFE01EC
:0204FF00F322E6
:10050100F8BB010DE58229F582E5833AF583E8F030
:10051100225006E92582C8F622BBFE05E92582C8DC
:02052100F222C4
:10052300BC000BBE0029EF8DF084FFADF022E4CCBC
:10053300F875F008EF2FFFEE33FEEC33FCEE9DEC85
:10054300984005FCEE9DFE0FD5F0E9E4CEFD22EDCB
:10055300F8F5F0EE8420D21CFEADF075F008EF2F15
:10056300FFED33FD4007985006D5F0F222C398FD06
:050573000FD5F0EA22A3
:10057800BB010A89828A83F0E5F0A3F0225006F7CE
:0F05880009A7F01922BBFE06F3E5F009F31922CB
:1005970075F008758200EF2FFFEE33FECD33CDCC1B
:1005A70033CCC58233C5829BED9AEC99E58298409E
:1005B7000CF582EE9BFEED9AFDEC99FC0FD5F0D67B
:1005C700E4CEFBE4CDFAE4CCF9A88222B800C1B9A5
:1005D7000059BA002DEC8BF084CFCECDFCE5F0CBE3
:1005E700F97818EF2FFFEE33FEED33FDEC33FCEB1C
:1005F70033FB10D703994004EB99FB0FD8E5E4F9D7
:10060700FA227818EF2FFFEE33FEED33FDEC33FCC3
:10061700C933C910D7059BE99A4007EC9BFCE99AB7
:10062700F90FD8E0E4C9FAE4CCFB2275F010EF2FFC
:10063700FFEE33FEED33FDCC33CCC833C810D707FC
:100647009BEC9AE899400AED9BFDEC9AFCE899F837
:0E0657000FD5F0DAE4CDFBE4CCFAE4C8F922CA
:10066500EB9FF5F0EA9E42F0E99D42F0E89C45F0EB
:010675002262
:10067600E493FC740193FD740293FE740393FF22CA
:0C068600A42582F582E5F03583F583227F
:060692008A838982E473F3
:00000001FF
