:0300000002126188
:0C126100787FE4F6D8FD7581300212A8F9
:101B4A000202030405060708090A0B0C0D0E0F1002
:1014000046002EFFFFFFFFFFFF410028004100299B
:0114100001DA
:09185D00F07B017A0079347D155D
:061866008B098A0A890BC0
:10186C00E4900074F0900073F0900073E0FFC39D5F
:10187C005020A3E0FEAB09AA0AA90B8F8275830046
:10188C001204C2FFEE6F900074F0900073E004F04D
:07189C0080D7900074E0FF0B
:0118A3002222
:061481007B017A00792ACC
:061487008B098A0A890BA3
:10148D00E4900073F0A3740AF0AB09AA0AA90B7FCC
:10149D0052121569EF7007900073E04401F0AB092B
:1014AD00AA0AA90B120DB3EF7007900073E0440266
:1014BD00F0AB09AA0AA90B120E6EEF70079000731C
:1014CD00E04404F0900073E0B407028013900074C0
:1014DD00E0FF14F0EF70028007E4900073F080A934
:0814ED001218A4900073E0FF47
:0114F50022D4
:081085008F098B0A8A0B890C0C
:10108D00E4900073F0A3740AF0AB0AAA0BA90C7FCD
:10109D0052121569EF7007900073E04401F0AB0A2E
:1010AD00AA0BA90C120DB3EF7007900073E0440268
:1010BD00F0AB0AAA0BA90C120E6EEF70079000731D
:1010CD00E04404F0850A15850B16850C177B017A13
:1010DD0000792EAD097F61120FDDEF70079000735F
:1010ED00E04408F0AB0DAA0EA90FAF09121377EF6C
:1010FD007007900073E04420F0900073E0B42F026D
:10110D008014900074E0FF14F0EF70028008E490FA
:0E111D000073F00210961218A4900073E0FF09
:01112B0022A1
:0100060022D7
:1016A900E4FF121AA9900072EFF0BF01131214811E
:1016B900EF6407704B7B017A00792A7D04121AC402
:1016C9007F01121AA9900072EFF064017032750D52
:1016D90001750E00750F187B017A00792A7F1412A3
:1016E9001085900028EFF0BF2FE47B017A00792A5A
:1016F9007D04121AC47B017A0079187D10121AC46C
:0117090022BD
:10170A00E4FF121766900072EFF07F0512176690D9
:10171A000072EFF07F02121766900072EFF07F04FA
:10172A00121766900072EFF0BF012690003674031C
:10173A00F0A314F0E4A3F07B017A0079347D05125A
:10174A001866900039EFF07B017A0079340D121A8D
:0B175A00C47F01121766900072EFF0D0
:011765002261
:1006980090007274FFF07B017A0079007D171218C0
:1006A80066900017E06F6003020882900002E090F5
:1006B8000072F0704E121481EF6407900036600CDF
:1006C8007401F0A374FFF0A3745580797406F0E404
:1006D800A3F090002AE0900038F090002BE0900002
:1006E80039F090002CE090003AF090002DE0900056
:1006F8003BF07B017A0079347D0812186690003C43
:100708000207E2900072E0640160030207EE9000C5
:10071800367413F0A37401F0900003E0FF900038E2
:10072800F0750D01750E00750F187B017A00792A96
:10073800121085EF642F601D9000367401F0A374C9
:10074800FFF0A37442F0A374FFF07B017A007934C0
:100758007D0602087F900018E0900039F09000199B
:10076800E090003AF090001AE090003BF090001BF7
:10077800E090003CF090001CE090003DF090001DDF
:10078800E090003EF090001EE090003FF090001FC7
:10079800E0900040F0900020E0900041F0900021AF
:1007A800E0900042F0900022E0900043F090002397
:1007B800E0900044F0900024E0900045F09000257F
:1007C800E0900046F0900026E0900047F090002767
:1007D800E090004812185D900049EFF07B017A0024
:1007E80079340D02087F900072E06402704C90002A
:1007F800367413F0A37402F0A314F0A3F0A304F06A
:10080800A304F0A304F0A304F0A304F0A304F0A34A
:1008180004F0A304F0A304F0A304F0A304F0A304D9
:10082800F0A304F0A304F0A30412185D900049EFAC
:10083800F07B017A0079340D803D900072E064030A
:1008480070389000367408F0A37403F0A37401F0B4
:10085800A304F0A304F0A304F0A37401F0E4A3F04C
:100868007B017A0079347D0A12186690003EEFF019
:0A0878007B017A0079340D121AC4D6
:010882002253
:101ADE00EF1FAC0670011E4C600D0000007D0B7CEC
:071AEE00BEDCFEDDFC80E917
:011AF50022CE
:1012ED00121B931200167F807E257D007C00121943
:1012FD00CB750D01750E00750F347510027B017ADB
:10130D000079007D18121A287BFF7A0079067F0379
:10131D00121A4D7BFF7A1679A9E4FF121A4D7BFF45
:10132D007A17790A7F05121A4D7BFF7A0679987F15
:10133D0004121A4D90003474AAF0A37455F07F1561
:10134D00121B8D750C03750D04750E05750F067545
:10135D0010077B027D01E4FF120F261219FC7FE8B6
:0A136D007E03121ADE120AF080FB64
:1019FC00C2AF53B3E143B41E4391015392FE5391D2
:101A0C00FD439202D291D2C1D2C2C290C2C3D2C4FF
:0C1A1C00121996121B7F121B0CD2AF2275
:081569008F108B118A12891307
:10157100121A8C7D077F0D1216487D037F14121AF3
:10158100F6900078E510F0751C01751D01751E00BF
:10159100751F787520017521007522767A0079789A
:1015A1001202CD900075EFF07027A3E07004A3E064
:1015B1006410701D900078E0AB11AA12A9131204F7
:1015C100EF900079E0AB11AA12A913900001120566
:0615D10001900075E0FF2F
:0115D70022F1
:060DB3008B108A11891269
:100DB900E4900077F0121A8CE4FD7F0D1216487D3D
:100DC900807F0E121A9090007A7493F0A37420F029
:100DD900751C02751D01751E00751F7A7520017538
:100DE90021007522787B017A00797A7F0C1202D171
:100DF900900075EFF07061A3F0900076E0FFC39466
:100E0900045039E0FE247AF582E43400F583E0AB3E
:100E190010AA11A9128E827583001205019000771C
:100E2900E0FE747A2FF582E43400F583E0FFEE6F7B
:100E3900900077F0900076E004F080BD900076E0B5
:100E4900247AF582E43400F583E0FF900077E06FBF
:100E5900600690007574FEF07D807F0E121AF69080
:040E69000075E0FF31
:010E6D002262
:060E6E008B108A118912AD
:100E74009000797493F0A37470F0E490007FF09084
:100E84000076F0900076E0FFC394045039AB10AACA
:100E940011A912E0FEF5827583001204C2FD747B71
:100EA4002EF582E43400F583EDF090007FE0FE8FB0
:100EB400827583001204C2FFEE6F90007FF09000F1
:100EC40076E004F080BD7517017518007519807BF4
:100ED400017A0079797D07121145121A8C751C0963
:100EE400751D01751E00751F79752001752100752A
:100EF40022777B017A0079797F0C1202D1900075F8
:100F0400EFF07012900077E07004A3E064187006AC
:100F1400900075F0800690007574FEF0900075E006
:010F2400FFCD
:010F250022A9
:060FDD008B128A13891437
:100FE300900079EFF0A3EDF0E4900078F0AB12AA53
:100FF30013A914900078E0FFF5827583001204C2F0
:10100300FE747B2FF582E43400F583EEF0900078D4
:10101300E004F0E0B406D6E4900078F0AB15AA162D
:10102300A917900078E0FFF5827583001204C2FED1
:1010330074812FF582E43400F583EEF0900078E0BC
:1010430004F0E0B406D6751C0C751D01751E007501
:101053001F797520017521007522767B017A00794D
:10106300797F0E1202D1900075EFF070097F08129C
:1010730015D8EF20E30690007574FEF0900075E03C
:01108300FF6D
:011084002249
:061377008B108A1189129F
:10137D009000797430F0A3EFF075170175180075B2
:10138D00197B7A007979121141751C04751D01754F
:10139D001E00751F797520017521007522767B0160
:1013AD007A0079797F0C1202D1900075EFF07037C9
:1013BD00A3E07004A3E06490702D900078F090008D
:1013CD0078E0FF2479F582E43400F583E0AB10AAD0
:1013DD0011A9128F82758300120501900078E00427
:1013ED00F0E0B410D9800690007574FEF090007591
:0213FD00E0FF0F
:0113FF0022CB
:060BF8008B2B8A2C892DD5
:100BFE0090009C74A0F0A3EFF075170175180075A6
:100C0E00199E7B017A00799C7D02121145751C0498
:100C1E00751D01751E00751F9C75200175210075CF
:100C2E0022997B017A00799C7F0C1202D190009858
:100C3E00EFF07014A3E07004A3E06404700A900057
:100C4E009CE0540F640A600690009874FEF09000C9
:100C5E0098E06003020CE890009BF0AB2BAA2CA945
:100C6E002D90009BE0FFF5827583001204C2FE7486
:100C7E009C2FF582E43400F583EEF090009BE004A7
:100C8E00F0E0B410D67517017518007519AC7B011C
:100C9E007A00799C7D10121145751C12751D017517
:100CAE001E00751F9C7520017521007522997B0110
:100CBE007A00799C7F0C1202D1900098EFF070149C
:100CCE00A3E07004A3E06404700A90009CE0540F4B
:0F0CDE00640A600690009874FEF0900098E0FFA2
:010CED0022E4
:080CEE008D238B248A25892641
:100CF600EF12112C1202B49000AEEFF07014A3E0C4
:100D06007004A3E06404700A9000B2E0540F640A11
:100D160060069000AE74FEF09000AEE0705A90004F
:100D2600B1F0AB24AA25A9269000B1E0FFF58275A3
:100D360083001204C2FE74B22FF582E43400F583F8
:100D4600EEF09000B1E004F0E0B410D6751701752E
:100D560018007519B67B017A0079B27D0412114527
:100D6600E49000AFF0A3F0751C061202B79000AE37
:100D7600EFF064FE6002E4F09000AEE0702974B01B
:100D860012112C1202B49000AEEFF07014A3E070B2
:100D960004A3E06404700A9000B2E0540F640A6091
:0C0DA600069000AE74FEF09000AEE0FF7E
:010DB200221E
:0209D3008D3065
:1009D5009000DD74C2F0A3EFF0751701751800756E
:1009E50019DF7B017A0079DD7D02121145751C0442
:1009F500751D01751E00751FDD75200175210075BA
:100A050022DB7B017A0079DD7F0C1202D19000DABE
:100A1500EFF07014A3E07004A3E06404700A900082
:100A2500DDE0540F640A60069000DA74FEF0900071
:100A3500DAE070499000DDF0A3F0A3F0A3F075179C
:100A4500017518007519E17B017A0079DD7D0412C5
:100A55001145751C06751D01751E00751FDD752078
:100A6500017521007522DB7B017A0079DD7F0C128F
:100A750002D19000DAEFF064FE6002E4F09000DA53
:100A8500E060037FFE229000DD74B0F0A3E530F056
:100A95007517017518007519DF7B017A0079DD7D01
:100AA50002121145751C04751D01751E00751FDDAB
:100AB5007520017521007522DB7B017A0079DD7FC8
:100AC5000C1202D19000DAEFF07014A3E07004A3C9
:100AD500E06404700A9000DDE0540F640A6006903B
:0A0AE50000DA74FEF09000DAE0FF82
:010AEF0022E4
:1018A4009000787450F0E4A3F07517017518007572
:1018B400197A7B017A0079787D02121145751C042E
:1018C400751D01751E00751F787520017521007541
:1018D40022767B017A0079787F0C1202D190007510
:0418E400EFF07F00A2
:0118E80022DD
:10112C009000B2F0A3E523F075170175180075193E
:09113C00B47A0079B27B017D0256
:081145008B138A1489158D1625
:10114D007D047F05121A901216447D807F0A121AB3
:10115D00F6E490008BF090008BE0FFC39516501CC9
:10116D00AB13AA14A9158F827583001204C2FD7FDB
:10117D000912164890008BE004F080DA7D037F01A0
:10118D0012164890008B74FFF07F051215D8900051
:10119D008CEFF090008BE014F0E06005A3E030E2FE
:1011AD00E87F221215D8AB17AA18A919EF1204EF70
:1011BD007F211215D8AB17AA18A919900001EF02BB
:0211CD0005011A
:101996007D0F7F01121648007D3D7F111216487D8E
:1019A6001E7F2D121648E4FD7F2C1216487D8D7F72
:1019B6002A1216487D3E7F2B1216487D407F15124F
:0519C60016487F00221D
:1015D800E4900096F0C2AFD2C1C291EF25E0547EEC
:1015E8004480900095F09000947408F0900095E085
:1015F800FF30E703D38001C3B392C2C2C1EF25E035
:10160800900095F0D2C1900094E014F0E070DD9065
:1016180000947408F0C2C1900096E025E0F0309084
:1016280004E04401F0D2C1900094E014F0E070E5C9
:0B163800D291D2C1D2AF900096E0FF2B
:011643002284
:04164400E4FD7F0141
:10164800C2AFD2C1C291EF25E0547E900095F090D0
:1016580000947408F0900095E0FF30E703D3800110
:10166800C3B392C2C2C1EF25E0900095F0D2C190F9
:101678000094E014F0E070DD9000947408F0ED3010
:10168800E703D38001C3B392C2C2C1ED25E0FDD206
:10169800C1900094E014F0E070E4D291D2C1D2AFCE
:0116A800221F
:021AF600AE0739
:101AF800E4900093F01215D8900093EFF0AF064DE4
:041B0800FD0216487C
:041A8C007D087F084A
:021A9000AE079F
:101A9200E4900093F01215D8900093EFF0FCAF069B
:071AA200EDF45CFD021648A3
:1002B400751C04751D01751E00751FB2752001752E
:0D02C40021007522AF7A0079B27B017F0C1A
:0802D1008F188B198A1A891B92
:1002D90090008C74FEF0E4A3F0A3F0E51824F46018
:1002E9001024FE701690008D7412F0A37410F08023
:1002F9000A90008D7477F0A37430F090008DE0447B
:1003090080FD7F021216487D807F04121A90121612
:10031900447D807F0A121AF6E4900091F0A3F090D0
:100329000091E0FCA3E0FDC3951CEC94005023ABC5
:1003390019AA1AA91B8D828C831204C2FD7F091286
:100349001648900092E004F070D5900091E004F016
:1003590080CDAD187F01121648E518B40C077D80D1
:100369007F0D121AF69000917402F0A37458F07F71
:10037900041215D8900090EFF0900092E024FFF05D
:10038900900091E034FFF0E07002A3E0601190006A
:1003990090E0FF20E00990008EE0FEEF5E60D07DE6
:1003A900807F0D121A90900091E07002A3E0700313
:1003B9000204997F061215D8EF541B6003020493B7
:1003C90090008CF0A3E0FF900090E05F30E0069091
:1003D900008C74FFF0E518640C60030204997F0A2D
:1003E9001215D8900090EFF07F0C1215D8EF540732
:1003F90090008FF06026A3E024FFFFE434FFFEEFB6
:100409007803C333CE33CED8F9FF90008FE07C0058
:100419002FFFEC3EAB20AA21A9228011900090E089
:1004290075F008A4FFAB20AA21A922E5F08FF012EC
:100439000578900090E0700204F0900090E0D39469
:100449001240037412F0E4900091F0A3F090009030
:10045900E0FFC3900092E09F900091E0940050303B
:100469007F091215D8AB1DAA1EA91F900091E0FCA7
:10047900A3E0F5828C83EF120501900092E004F06D
:1004890070CB900091E004F080C390008C74FEF072
:0F0499007D807F0C121AF612164490008CE0FF43
:0104A8002231
:101B0C007F141215D8900072EFF0540370077D0308
:051B1C007F14121AF60F
:011B210022A1
:071B7F007D037F14021A90A0
:101411004100D5004100D9004100D3004100D60070
:101421004100D8004100D4004100D7004100D00064
:0B1B6900759D9F75BC88D2ADD2AF22E5
:071B86007B017A0079C42203
:10176600EF70089000D9E05401FF22BF010A9000F3
:10177600D9E05402C313FF22BF020C9000D9E054F3
:10178600041313543FFF22BF030D9000D9E0540801
:10179600131313541FFF22BF040B9000D9E05410FB
:1017A600C4540FFF22BF050C9000D9E05420C41387
:0717B6005407FF227F00220F
:03002B0002002EA2
:10002E00C0E0C0F0C083C082C0D075D000C002C096
:10003E0004C005C006C0079000D5E0FD7017AFBD27
:10004E00EF75F004A4FFACBEEC7A002FFEEA35F09B
:10005E009000C4806EEDB40115AFBDEF75F004A431
:10006E00ADBE7C002DFEEC35F09000C680559000A4
:10007E00D5E0FDB40217AFBDEF75F004A4FFACBE22
:10008E00EC7A002FFEEA35F09000C88036EDB4030E
:10009E0015AFBDEF75F004A4ADBE7C002DFEEC35A2
:1000AE00F09000CA801D9000D5E0FDB4041CAFBDD9
:1000BE00EF75F004A4FFACBEEC7A002FFEEA35F02B
:1000CE009000CCF0A3CEF0020293ED640760030221
:1000DE000293AFBDEF75F004A4ADBE7C002DFEEC17
:1000EE0035F09000CEF0A3CEF09000CEE0FEA3E06F
:1000FE00FFC3EE9400402FD3EF9410EE94005026E1
:10010E009000D3E0FDB414109000D9E04401F090BB
:10011E000050E04420F08006EDC39414500D900082
:10012E00D3E004F080059000D3E4F09000CEE0FE22
:10013E00A3E0FFC3948BEE9400402FD3EF94ABEE6D
:10014E00940050269000D6E0FDB414109000D9E033
:10015E004402F0900050E04420F08006EDC3941469
:10016E00500D9000D6E004F080059000D6E4F0909B
:10017E0000CEE0FEA3E0FFC39420EE9401402DD309
:10018E00EF9440EE940150249000D8E0FDB4140E8C
:10019E00A3E04404F0900050E04420F08006EDC34C
:1001AE009414500D9000D8E004F080059000D8E42F
:1001BE00F09000CEE0FEA3E0FFC394B9EE940140B0
:1001CE000FD3EF94D9EE940150067C007D0180048C
:1001DE007C007D009000D2E025E0FF9000D1E0335E
:1001EE004CFEEF4DFFEEF0A3EFF0B40012EEB4E0D4
:1001FE000E9000D9E04408F0900050E04420F090BA
:10020E0000CEE0FEA3E0FFC39448EE9402402FD34D
:10021E00EF9468EE940250269000D7E0FDB41410CF
:10022E009000D9E04410F0900050E04420F0800699
:10023E00EDC39414500D9000D7E004F080059000AB
:10024E00D7E4F09000CEE0FEA3E0FFC394D3EE948B
:10025E0002402DD3EF94F3EE94025024A3E0FDB4AC
:10026E0014109000D9E04420F0900050E04420F0AB
:10027E008006EDC39414500D9000D0E004F080057C
:10028E009000D0E4F09000D5E0045407F02488F5F7
:10029E00BCD007D006D005D004D002D0D0D082D0AA
:0602AE0083D0F0D0E03225
:10195F003F065B4F666D7D077F6F777C395E7971D0
:10196F00BF86DBCFE6EDFD87FFEF3D760F0E7538B7
:10197F0037545C73673149783E1C7E646E5A00FFA2
:07198F00F7FCB9DEF9F1409D
:041431004100F8106E
:0C001600E4F5957596FFF5937594FF22B4
:061B8D009000F7EFF022CA
:100F2600EF3395E0FE745F2FF58274193EF583E486
:100F3600939000EFF0AF05EF3395E0FE745F2FF569
:100F46008274193EF583E4939000F0F0AF03EF331B
:100F560095E0FE745F2FF58274193EF583E4939055
:100F660000F1F0AF0CEF3395E0FE745F2FF582745D
:100F7600193EF583E4939000F2F0AF0DEF3395E060
:100F8600FE745F2FF58274193EF583E4939000F3A7
:100F9600F0AF0EEF3395E0FE745F2FF58274193EC5
:100FA600F583E4939000F4F0AF0FEF3395E0FE7411
:100FB6005F2FF58274193EF583E4939000F5F0AF48
:100FC60010EF3395E0FE745F2FF58274193EF583BA
:070FD600E4939000F6F02205
:100883008F2A8E298D288C277B807A9679987800F9
:100893001205D3E47B0AFAF9F81205D3745F2BF53A
:1008A3008274193AF583E4939000EFF07B407A4227
:1008B300790F7800AF2AAE29AD28AC271205D3E40F
:1008C3007B0AFAF9F81205D3745F2BF58274193A8F
:1008D300F583E4939000F0F07BA07A8679017800A9
:1008E300AF2AAE29AD28AC271205D3E47B0AFAF967
:1008F300F81205D3745F2BF58274193AF583E493E8
:100903009000F1F0E47B107A27F9F8AF2AAE29AD15
:1009130028AC271205D3E47B0AFAF9F81205D3743D
:100923005F2BF58274193AF583E4939000F2F0E4B7
:100933007BE87A03F9F8AF2AAE29AD28AC27120574
:10094300D3E47B0AFAF9F81205D3745F2BF58274AA
:10095300193AF583E4939000F3F0E47B64FAF9F831
:10096300AF2AAE29AD28AC271205D3E47B0AFAF9E6
:10097300F81205D3745F2BF58274193AF583E49367
:100983009000F4F0E47B0AFAF9F8AF2AAE29AD2817
:10099300AC271205D3E47B0AFAF9F81205D3745F86
:1009A3002BF58274193AF583E4939000F5F0E47B18
:1009B3000AFAF9F8AF2AAE29AD28AC271205D37489
:1009C3005F2BF58274193AF583E4939000F6F022D5
:0F1B5A0074EF2FF582E43400F583E02480F0224D
:1018E9009000F8E030E312E5A054F72408F5A09041
:1018F90000F7E0F580E4A3F0229000F8E0FF540738
:10190900FEE5A054F02EF5A074EF2EF582E4340024
:0E191900F583E0F580EF04540F9000F8F02203
:101AA900EF7008900103E05401FF22BF010A900181
:0B1AB90003E05402C313FF227F002251
:101435005E005200000000000000000000000000F7
:101445000000000000000000000000000000000097
:101455000042004F000041004E00420070000002B3
:0B1465002E000041004C0041004D0033
:101A6E00EF25E025E0FFE58954F02F2410F589E5F8
:0E1A7E008E547F2480F58ED28CD2A9D2AF2256
:101B2200438E805389F0758ACD758CD4C28DD28C48
:051B3200D2A9D2AF2290
:0B1B7400D2AFD2A8D2AAD288D28A2217
:061B9300121B74021B226C
:101A4D00EF3395E0FE90005275F003EF120686EE2F
:101A5D0075F003A42583F583EBF0A3EAF0A3E9F079
:011A6D002256
:1011CF00900050E030E020900052E0FBA3E0FAA343
:1011DF00E0F9EA494B6003120692E4900103F090A4
:1011EF000050E06401F022900050E030E41B9000CA
:1011FF005EE0FBA3E0FAA3E0F9EA494B60031206B5
:10120F0092900050E06410F022900050E030E52002
:10121F00900061E0FBA3E0FAA3E0F9EA494B600319
:10122F00120692E49000D9F0900050E06420F02272
:10123F00900050E030E71A900067E0FBA3E0FAA3BC
:10124F00E0F9EA494B6003120692900050E0648087
:02125F00F0227B
:100AF0001211CF90004EE064016003020BF7758A7B
:100B0000CD758CD4900055E0FBA3E0FAA3E0F9EAA0
:100B1000494B6008900055A3A31206921218E920D1
:100B2000B22890004CE0FDB40A10900050E064013F
:100B3000F0900103E06401F08008C3ED6480948AC2
:100B4000500D90004CE004F08005E490004CF02043
:100B5000B32890004DE0FDB40A10900050E064010D
:100B6000F0900103E06402F08008C3ED6480948A91
:100B7000500D90004DE004F08005E490004DF0AE83
:100B80002EAF2F7C007D0A120523ED4C70139000D0
:100B900058E0FBA3E0FAA3E0F9EA494B6003120630
:100BA00092AE2EAF2F7C007D64120523ED4C7013A6
:100BB00090005BE0FBA3E0FAA3E0F9EA494B600395
:100BC000120692AE2EAF2F7C037DE8120523ED4C6A
:100BD0007018900064E0FBA3E0FAA3E0F9EA494B47
:100BE0006003120692E4F52EF52F052FE52F700213
:070BF000052EE490004EF019
:010BF70022DB
:03000B00021B379E
:101B3700C0E0C083C08290004E7401F0D082D08391
:031B4700D0E032B9
:03000300020007F1
:0100070032C6
:03001300020008E0
:0100080032C5
:10192700000004B0000000E800000960000000F4B7
:10193700000012C0000000FA00002580000000FD32
:1019470000004B00000000FE00009600000000FFB2
:081957000000E100000000FFA8
:101470004100FF004100FD004100FC004100FE0072
:0817BD008F108E0F8D0E8C0DB4
:1017C500E4900072F0900072E0FFC39407503BEF85
:1017D50075F008A42427F582E43419F583120676FA
:1017E500AB10AA0FA90EA80DC312066570149000C0
:1017F50072E075F008A4242BF582E43419F5830210
:0C1805000676900072E004F080BB7FFDCE
:0118110022B4
:1019CB008F0C8E0B8D0A8C09759850E589540F245A
:1019DB0020F589AF0CAE0BAD0AAC091217BD900008
:1019EB00FEEFF0F58DF58BD28E538EFED2ACD2AFCF
:0119FB0022C9
:101AC400AF051DEF60131204A9F5993099FDC29971
:0A1AD400740129F9E43AFA80E722D0
:101A28009000F9EBF0A3EAF0A3E9F0900100E50DCE
:101A3800F0A3E50EF0A3E50FF09000FFEDF09000A5
:051A4800FDE510F02295
:10181200E4900097F09000FDE0FF900097E0FEC397
:101822009F5035900100E0FBA3E0FAA3E0F98E821D
:101832007583001204C2FF9000F9E0FBA3E0FAA353
:10184200E0F98E827583001204C26F60037F00226A
:0A185200900097E004F080BD7F01D4
:01185C002269
:030023000214F6CE
:1014F600C0E0C083C082C0D075D000C000C001C0AB
:1015060002C003C006C007309902C29930983F90C6
:1015160000FFE0FF9000FCE0FEC39F502F9000F913
:10152600E0FBA3E0FAA3E0F98E82758300E5991249
:1015360005019000FCE004F0E0C39F400FE4F012C8
:101546001812EF6007900050E04410F0C298D007E0
:10155600D006D003D002D001D000D0D0D082D08324
:03156600D0E032A0
:10126D000212EDE493A3F8E493A34003F68001F298
:10127D0008DFF48029E493A3F85407240CC8C33382
:10128D00C4540F4420C8834004F456800146F6DF51
:10129D00E4800B0102040810204080901400E47ECD
:1012AD00019360BCA3FF543F30E509541FFEE49346
:1012BD00A360010ECF54C025E060A840B8E493A30D
:1012CD00FAE493A3F8E493A3C8C582C8CAC583CA38
:1012DD00F0A3C8C582C8CAC583CADFE9DEE780BEF0
:01148000006B
:1004A900BB010689828A83E0225002E722BBFE0251
:0904B900E32289828A83E4932284
:1004C200BB010CE58229F582E5833AF583E02250EF
:1004D20006E92582F8E622BBFE06E92582F8E22239
:0D04E200E58229F582E5833AF583E4932253
:1004EF00BB010689828A83F0225002F722BBFE01EC
:0204FF00F322E6
:10050100F8BB010DE58229F582E5833AF583E8F030
:10051100225006E92582C8F622BBFE05E92582C8DC
:02052100F222C4
:10052300BC000BBE0029EF8DF084FFADF022E4CCBC
:10053300F875F008EF2FFFEE33FEEC33FCEE9DEC85
:10054300984005FCEE9DFE0FD5F0E9E4CEFD22EDCB
:10055300F8F5F0EE8420D21CFEADF075F008EF2F15
:10056300FFED33FD4007985006D5F0F222C398FD06
:050573000FD5F0EA22A3
:10057800BB010A89828A83F0E5F0A3F0225006F7CE
:0F05880009A7F01922BBFE06F3E5F009F31922CB
:1005970075F008758200EF2FFFEE33FECD33CDCC1B
:1005A70033CCC58233C5829BED9AEC99E58298409E
:1005B7000CF582EE9BFEED9AFDEC99FC0FD5F0D67B
:1005C700E4CEFBE4CDFAE4CCF9A88222B800C1B9A5
:1005D7000059BA002DEC8BF084CFCECDFCE5F0CBE3
:1005E700F97818EF2FFFEE33FEED33FDEC33FCEB1C
:1005F70033FB10D703994004EB99FB0FD8E5E4F9D7
:10060700FA227818EF2FFFEE33FEED33FDEC33FCC3
:10061700C933C910D7059BE99A4007EC9BFCE99AB7
:10062700F90FD8E0E4C9FAE4CCFB2275F010EF2FFC
:10063700FFEE33FEED33FDCC33CCC833C810D707FC
:100647009BEC9AE899400AED9BFDEC9AFCE899F837
:0E0657000FD5F0DAE4CDFBE4CCFAE4C8F922CA
:10066500EB9FF5F0EA9E42F0E99D42F0E89C45F0EB
:010675002262
:10067600E493FC740193FD740293FE740393FF22CA
:0C068600A42582F582E5F03583F583227F
:060692008A838982E473F3
:00000001FF
