:03000000020026D5
:0C002600787FE4F6D8FD75811802006DAB
:10021800D2C1C291EF25E0547E900025F0900024D1
:100228007408F0900025E0FF30E703D38001C3B3E2
:1002380092C2C2C100EF25E0900025F0D2C1900023
:1002480024E014F0E070DC9000247408F0ED30E74E
:1002580003D38001C3B392C2C2C100ED25E0FDD231
:0E026800C1900024E014F0E070E3D291D2C106
:010276002265
:1001AE00E4900026F0D2C1C291EF25E0547E448047
:1001BE00900025F09000247408F0900025E0FF30A8
:1001CE00E703D38001C3B392C2C2C100EF25E09012
:1001DE000025F0D2C1900024E014F0E070DC900015
:1001EE00247408F0C2C100900026E025E0F03090A3
:1001FE0004E04401F0D2C1900024E014F0E070E479
:09020E00D291D2C1900026E0FF5C
:0102170022C4
:1003AA0053B3E143B41E4391015392FE5391FD436B
:1003BA009202D291D2C1D2C2C290C2C3D2C47D0F1C
:0503CA007F0102021892
:06001D007F371201AE2244
:02043800AA55C3
:05040C004200000000A9
:1003F400EF1FAC0670011E4C600D0000007D0B7CED
:07040400BEDCFEDDFC80E917
:01040B0022CE
:0B0422007B017A0079027D18020003C4
:0B042D00900001E030E00312042222E6
:100380007F807E257D007C0012034F1203AA7FE848
:100390007E031203F412001D8F087B007A00790897
:0A03A0007D0112000312042D80EB12
:10031700000004B0000000E800000960000000F4DD
:10032700000012C0000000FA00002580000000FD58
:1003370000004B00000000FE00009600000000FFD8
:080347000000E100000000FFCE
:100411004100200041001E0041001D0041001F005D
:080277008F108E0F8D0E8C0D0F
:10027F00E4900024F0900024E0FFC39407503BEF7C
:10028F0075F008A42417F582E43403F58312012BCB
:10029F00AB10AA0FA90EA80DC312011A701490006B
:1002AF0024E075F008A4241BF582E43403F58302DF
:0C02BF00012B900024E004F080BB7FFDC8
:0102CB002210
:10034F008F0C8E0B8D0A8C09759850E589540F24EC
:10035F0020F589AF0CAE0BAD0AAC091202779000F5
:10036F001FEFF0F58DF58BD28E538EFED2ACD2AF40
:01037F00225B
:10000300AF051DEF60131200B2F5993099FDC29947
:0A001300740129F9E43AFA80E722AB
:1003CF0090001AEBF0A3EAF0A3E9F0900021E515F5
:1003DF00F0A3E516F0A3E517F0900020EDF09000E4
:0503EF001EE518F022DC
:1002CC00E4900027F090001EE0FF900027E0FEC3B2
:1002DC009F5035900021E0FBA3E0FAA3E0F98E8259
:1002EC007583001200CBFF90001AE0FBA3E0FAA389
:1002FC00E0F98E827583001200CB6F60037F0022C1
:0A030C00900027E004F080BD7F019F
:0103160022C4
:0300230002013B9C
:10013B00C0E0C083C082C0D075D000C000C001C079
:10014B0002C003C006C007309902C29930983F9095
:10015B000020E0FF90001DE0FEC39F502F90001A7F
:10016B00E0FBA3E0FAA3E0F98E82758300E5991218
:10017B0000F890001DE004F0E0C39F400FE4F01284
:10018B0002CCEF6007900001E04401F0C298D00769
:10019B00D006D003D002D001D000D0D0D082D083F3
:0301AB00D0E0326F
:10003200020380E493A3F8E493A34003F68001F261
:1000420008DFF48029E493A3F85407240CC8C333CF
:10005200C4540F4420C8834004F456800146F6DF9E
:10006200E4800B010204081020408090040CE47E1E
:10007200019360BCA3FF543F30E509541FFEE49393
:10008200A360010ECF54C025E060A840B8E493A35A
:10009200FAE493A3F8E493A3C8C582C8CAC583CA85
:1000A200F0A3C8C582C8CAC583CADFE9DEE780BE3D
:0104210000DA
:1000B200BB010689828A83E0225002E722BBFE024C
:0900C200E32289828A83E493227F
:1000CB00BB010CE58229F582E5833AF583E02250EA
:1000DB0006E92582F8E622BBFE06E92582F8E22234
:0D00EB00E58229F582E5833AF583E493224E
:1000F800F8BB010DE58229F582E5833AF583E8F03E
:10010800225006E92582C8F622BBFE05E92582C8E9
:02011800F222D1
:10011A00EB9FF5F0EA9E42F0E99D42F0E89C45F03B
:01012A0022B2
:10012B00E493FC740193FD740293FE740393FF221A
:00000001FF
