:0300000002157E68
:0C157E00787FE4F6D8FD75813B0215C5AE
:101FA2000102030405060708090A0B0C0D0E0F10A7
:10171C0046003BFFFFFFFFFFFF4100350041003655
:05172C00014100340042
:0D1B2E00E0900055F07B017A0079417D15B3
:061B3B008B228A2389249D
:101B4100E490005CF090005BF090005BE0FFC39DCF
:101B51005020A3E0FEAB22AA23A9248F8275830023
:101B610012013DFFEE6F90005CF090005BE004F02D
:071B710080D790005CE0FF4B
:011B7800224A
:0617A1007B017A0079379C
:0617A7008B228A23892435
:1017AD00E490005BF0A3740AF0AB22AA23A9247F76
:1017BD0052121889EF700790005BE04401F0AB22E4
:1017CD00AA23A924120F98EF700790005BE0440242
:1017DD00F0AB22AA23A924121053EF700790005BDF
:1017ED00E04404F090005BE0B40702801390005CCD
:1017FD00E0FF14F0EF70028007E490005BF080A929
:08180D00121C5290005BE0FF89
:0118150022B0
:08126A008F228B238A248925C1
:10127200E490005BF0A3740AF0AB23AA24A9257FB3
:1012820052121889EF700790005BE04401F0AB2323
:10129200AA24A925120F98EF700790005BE0440280
:1012A200F0AB23AA24A925121053EF700790005B1C
:1012B200E04404F085232E85242F8525307B017A96
:1012C20000793BAD227F611211C2EF700790005B83
:1012D200E04408F0AB26AA27A928AF22121693EF02
:1012E200700790005BE04420F090005BE0B42F02B6
:1012F200801490005CE0FF14F0EF70028008E4902C
:0E130200005BF002127B121C5290005BE0FFB9
:0113100022BA
:081311008F228B238A24892519
:10131900E490005BF0A3740AF07B017A00795D7FA9
:1013290052121889EF700790005BE04401F07B01CD
:101339007A00795D120F98EF700790005BE0440224
:10134900F07B017A00795D121053EF700790005B12
:10135900E04404F0752E01752F0075305D7B017A2C
:1013690000793BAD227F611211C2EF700790005BDB
:10137900E04408F0AB23AA24A925AF22120DDDEF22
:10138900700790005BE04410F090005BE0B41F022E
:10139900801490005CE0FF14F0EF70028008E49084
:0E13A900005BF0021322121C5290005BE0FF6A
:0113B7002213
:1019C90012200178287C007D017E007F0C1200FE28
:1019D9009000437408F0A37403F090002EE0FCA378
:1019E900E0FDEC900045F0EDA3F0900030E0FCA3A1
:1019F900E0FDEC900047F0EDA3F090002CA3E090FF
:101A09000049F0E4A3F07B017A0079417D0A121BB9
:101A19003B90004BEFF07B017A0079410D021F1CCE
:0100060022D7
:101A29007F01121F01900059EFF0BF012890003487
:101A3900E02401FFE433FE7C007D0312019EAF0523
:101A4900EFF0BF0110E4FF1220087F007E007D0047
:101A59007C00120A68900034E0701DFF121F01908B
:101A69000059EFF0BF01111217A1BF070B7B017AD3
:081A79000079377D04121F1CE7
:011A81002242
:1014ED00900034E0600302157DFF121A82900059BE
:1014FD00EFF0640170427526017527007528187B81
:10150D00017A0079377F1412126A900035EFF0647A
:10151D002F600FE0900043F07B017A0079417D034D
:10152D0080137B017A0079377D04121F1C7B017AB1
:10153D000079187D10121F1C7F03121A829000591A
:10154D00EFF0BF011B7BFF7A1F79A27F14121311DD
:10155D00900043EFF07B017A0079417D03121F1C4F
:10156D007F05121A82900059EFF0BF01031219C9BD
:01157D00224B
:1003130090005974FFF0E4A3F07B017A0079007D2B
:1003230017121B3B900017E06F60030205EC90006F
:1003330002E0900059F0705E1217A1EF640790007D
:1003430043601C7401F0A374FFF0A37402F07B01FB
:100353007A0079417D05121B3B9000460205E0744B
:1003630006F0E4A3F0900037E0900045F0900038E9
:10037300E0900046F0900039E0900047F090003A9A
:10038300E0900048F07B017A0079417D08121B3B25
:100393009000490205E0900059E064016003020403
:1003A300709000437413F0A37401F0900003E0FF16
:1003B300900045F07526017527007528187B017A92
:1003C30000793712126AEF642F601E9000437403A2
:1003D300F0A374FFF0A37401F0FB7A0079417D056B
:1003E300121B3B90004602046D900018E0900046FB
:1003F300F0900019E0900047F090001AE090004858
:10040300F090001BE0900049F090001CE090004A3F
:10041300F090001DE090004BF090001EE090004C27
:10042300F090001FE090004DF0900020E090004E0F
:10043300F0900021E090004FF0900022E0900050F7
:10044300F0900023E0900051F0900024E0900052DF
:10045300F0900025E0900053F0900026E0900054C7
:10046300F0900027121B2E9000560205E0900059D1
:10047300E06402600302053B900003E0FF7B017A26
:10048300007904121311EF641F900043601C74037E
:10049300F0A374FFF0A37403F07B017A0079417D2C
:1004A30005121B3B9000460205387413F0A3740237
:1004B300F0A314F0900004E0900046F0900005E0F3
:1004C300900047F0900006E0900048F0900007E0AD
:1004D300900049F0900008E090004AF0900009E095
:1004E30090004BF090000AE090004CF090000BE07D
:1004F30090004DF090000CE090004EF090000DE065
:1005030090004FF090000EE0900050F090000FE04C
:10051300900051F0900010E0900052F0900011E034
:10052300900053F0900012E0900054F090001312EA
:100533001B2E9000560205E0900059E0B40303021D
:1005430019C9900059E0640460030205EC900003AC
:10055300E0FD7F50121E10900004E0FD7F51121E3B
:1005630010900005E0FD7F52121E10900006E0FD82
:100573007F53121E10900007E0FD7F54121E10904F
:100583000008E0FD7F55121E109000437408F0A38D
:100593007404F07F50121BC4900045EFF07F51129A
:1005A3001BC4900046EFF07F52121BC4900047EF2C
:1005B300F07F53121BC4900048EFF07F54121BC40A
:1005C300900049EFF07F55121BC490004AEFF07B77
:1005D300017A0079417D0A121B3B90004BEFF07BBF
:0905E300017A0079410D121F1C80
:0105EC0022EC
:101F3600EF1FAC0670011E4C600D0000007D0B7C8F
:071F4600BEDCFEDDFC80E9BA
:011F4D002271
:10160A0012200E121FD01200167F807E257D007CCC
:10161A0000121DB375260175270075284175290228
:10162A007B017A0079007D18121E39121FDC7BFFBC
:10163A007A0079067F03121EA57BFF7A1A7929E4BC
:10164A00FF121EA57BFF7A1479ED7F05121EA57B7A
:10165A00FF7A0379137F04121EA590004174AAF041
:10166A00A37455F07F151220087525037526047595
:10167A0027057528067529077B027D01E4FF1211EB
:09168A000B121DE4120CD580FBCB
:101DE400C2AF53B3E143B41E4391015392FE5391E6
:101DF400FD439202D291D2C1D2C2C290C2C3D2C414
:0C1E0400121D7E121FFA121F64D2AF22C2
:081889008F298B2A8A2B892C80
:10189100121EE47D077F0D1219687D037F14121F4C
:1018A1004E900064E529F0753501753601753700F4
:1018B100753864753901753A00753B627A0079644F
:1018C10012088C900061EFF07027A3E07004A3E090
:1018D1006410701D900064E0AB2AAA2BA92C1201A0
:1018E1006A900065E0AB2AAA2BA92C900001120195
:0618F1007C900061E0FFA5
:0118F70022CE
:060F98008B298A2A892B37
:100F9E00E4900063F0121EE4E4FD7F0D1219687DEB
:100FAE00807F0E121EE89000667493F0A37420F0FA
:100FBE0075350275360175370075386675390175E8
:100FCE003A00753B647B017A0079667F0C120890BB
:100FDE00900061EFF07061A3F0900062E0FFC394A7
:100FEE00045039E0FE2466F582E43400F583E0AB6C
:100FFE0029AA2AA92B8E8275830012017C90006388
:10100E00E0FE74662FF582E43400F583E0FFEE6FA8
:10101E00900063F0900062E004F080BD900062E00A
:10102E002466F582E43400F583E0FF900063E06F00
:10103E00600690006174FEF07D807F0E121F4E9050
:04104E000061E0FF5E
:01105200227B
:061053008B298A2A892B7B
:101059009000657493F0A37470F0E490006BF090C5
:101069000062F0900062E0FFC394045039AB29AAF2
:101079002AA92BE0FEF58275830012013DFD7467F4
:101089002EF582E43400F583EDF090006BE0FE8FDD
:101099008275830012013DFFEE6F90006BF09000A6
:1010A90062E004F080BD75300175310075326C7BEA
:1010B900017A0079657D071213D1121EE47535098D
:1010C900753601753700753865753901753A0075DA
:1010D9003B637B017A0079657F0C1208909000616F
:1010E900EFF07012900063E07004A3E064187006DA
:1010F900900061F0800690006174FEF0900061E05C
:01110900FFE6
:01110A0022C2
:0611C2008B2B8A2C892D05
:1011C800900065EFF0A3EDF0E4900064F0AB2BAA7B
:1011D8002CA92D900064E0FFF58275830012013D73
:1011E800FE74672FF582E43400F583EEF090006416
:1011F800E004F0E0B406D6E4900064F0AB2EAA2F29
:10120800A930900064E0FFF58275830012013DFE6D
:10121800746D2FF582E43400F583EEF0900064E0FD
:1012280004F0E0B406D675350C75360175370075CF
:101238003865753901753A00753B627B017A00792A
:10124800657F0E120890900061EFF070097F081218
:1012580018F8EF20E30690006174FEF0900061E05A
:01126800FF86
:011269002262
:061693008B298A2A892B35
:101699009000617430F0A3EFF07530017531007579
:1016A90032637A0079611213CD7535047536017587
:1016B9003700753861753901753A00753B5E7B01F4
:1016C9007A0079617F0C12089090005DEFF0703715
:1016D900A3E07004A3E06490702D900060F0900086
:1016E90060E0FF2461F582E43400F583E0AB29AAC8
:1016F9002AA92B8F8275830012017C900060E00477
:10170900F0E0B410D9800690005D74FEF090005DA1
:02171900E0FFEF
:01171B0022AB
:060DDD008B268A278928FD
:100DE30090006574A0F0A3EFF075300175310075C4
:100DF30032677B017A0079657D021213D175350460
:100E0300753601753700753865753901753A0075A2
:100E13003B627B017A0079657F0C12089090006138
:100E2300EFF07014A3E07004A3E06404700A900070
:100E330065E0540F640A600690006174FEF0900050
:100E430061E06003020ECD900064F0AB26AA27A9EF
:100E530028900064E0FFF58275830012013DFE7463
:100E6300652FF582E43400F583EEF0900064E0042E
:100E7300F0E0B410D67530017531007532757B0121
:100E83007A0079657D101213D175351275360175A7
:100E93003700753865753901753A00753B627B011A
:100EA3007A0079657F0C120890900061EFF070145E
:100EB300A3E07004A3E06404700A900065E0540F9B
:0F0EC300640A600690006174FEF0900061E0FF29
:010ED20022FD
:080ED3008D088B098A0A890BC6
:100EDB00EF1213B81208739000AAEFF07014A3E08E
:100EEB007004A3E06404700A9000AEE0540F640A2F
:100EFB0060069000AA74FEF09000AAE0705A900071
:100F0B00ADF0AB09AA0AA90B9000ADE0FFF5827515
:100F1B00830012013DFE74AE2FF582E43400F5839D
:100F2B00EEF09000ADE004F0E0B410D67530017532
:100F3B0031007532B27B017A0079AE7D041213D188
:100F4B00E49000ABF0A3F07535061208769000AA7A
:100F5B00EFF064FE6002E4F09000AAE0702974B038
:100F6B001213B81208739000AAEFF07014A3E0707C
:100F7B0004A3E06404700A9000AEE0540F640A60AE
:0C0F8B00069000AA74FEF09000AAE0FF9F
:010F97002237
:020BB8008D0EA0
:100BBA009000D974C2F0A3EFF07530017531007559
:100BCA0032DB7B017A0079D97D021213D1753504A3
:100BDA007536017537007538D9753901753A00755A
:100BEA003BD77B017A0079D97F0C1208909000D606
:100BFA00EFF07014A3E07004A3E06404700A90009C
:100C0A00D9E0540F640A60069000D674FEF0900092
:100C1A00D6E070499000D9F0A3F0A3F0A3F07530A4
:100C2A00017531007532DD7B017A0079D97D0412B4
:100C3A0013D17535067536017537007538D975398A
:100C4A0001753A00753BD77B017A0079D97F0C127E
:100C5A0008909000D6EFF064FE6002E4F09000D6AF
:100C6A00E060037FFE229000D974B0F0A3E50EF095
:100C7A007530017531007532DB7B017A0079D97DD7
:100C8A00021213D17535047536017537007538D9D6
:100C9A00753901753A00753BD77B017A0079D97F9E
:100CAA000C1208909000D6EFF07014A3E07004A321
:100CBA00E06404700A9000D9E0540F640A60069058
:0A0CCA0000D674FEF09000D6E0FFA3
:010CD40022FD
:101C52009000647450F0E4A3F075300175310075A2
:101C620032667B017A0079647D021213D1753504E4
:101C7200753601753700753864753901753A007526
:101C82003B627B017A0079647F0C120890900061BC
:041C9200EFF07F00F0
:011C9600222B
:1013B8009000AEF0A3E508F0753001753100753284
:0913C800B07A0079AE7B017D02D0
:0813D1008B2C8A2D892E8D2F33
:1013D9007D047F05121EE81219647D807F0A121FA1
:1013E9004EE4900077F0900077E0FFC3952F501CF2
:1013F900AB2CAA2DA92E8F8275830012013DFD7F8A
:1014090009121968900077E004F080DA7D037F0102
:1014190012196890007774FFF07F051218F8900090
:1014290078EFF0900077E014F0E06005A3E030E297
:10143900E87F221218F8AB30AA31A932EF12016AFB
:101449007F211218F8AB30AA31A932900001EF02BE
:02145900017C14
:101D7E007D0F7F01121968007D3D7F111219687D5C
:101D8E001E7F2D121968E4FD7F2C1219687D8D7F40
:101D9E002A1219687D3E7F2B1219687D407F15121D
:051DAE0019687F00220E
:1018F800E4900082F0C2AFD2C1C291EF25E0547EDD
:101908004480900081F09000807408F0900081E09D
:10191800FF30E703D38001C3B392C2C2C1EF25E011
:10192800900081F0D2C1900080E014F0E070DD906A
:1019380000807408F0C2C1900082E025E0F0309089
:1019480004E04401F0D2C1900080E014F0E070E5BA
:0B195800D291D2C1D2AF900082E0FF1C
:011963002261
:04196400E4FD7F011E
:10196800C2AFD2C1C291EF25E0547E900081F090C1
:1019780000807408F0900081E0FF30E703D3800115
:10198800C3B392C2C2C1EF25E0900081F0D2C190EA
:101998000080E014F0E070DD9000807408F0ED3015
:1019A800E703D38001C3B392C2C2C1ED25E0FDD2E3
:1019B800C1900080E014F0E070E4D291D2C1D2AFBF
:0119C80022FC
:021F4E00AE07DC
:101F5000E490007FF01218F890007FEFF0AF064D8C
:041F6000FD021968FD
:041EE4007D087F08EE
:021EE800AE0743
:101EEA00E490007FF01218F890007FEFF0FCAF0644
:071EFA00EDF45CFD02196824
:100873007535047536017537007538AE75390175F0
:0D0883003A00753BAB7A0079AE7B017F0C2B
:080890008F318B328A33893469
:1008980090007874FEF0E4A3F0A3F0E53124F4604E
:1008A8001024FE70169000797412F0A37410F08072
:1008B8000A9000797477F0A37430F0900079E044DE
:1008C80080FD7F021219687D807F04121EE81219CC
:1008D800647D807F0A121F4EE490007DF0A3F090A3
:1008E800007DE0FCA3E0FDC39535EC94005023ABFC
:1008F80032AA33A9348D828C8312013DFD7F0912FF
:10090800196890007EE004F070D590007DE004F056
:1009180080CDAD317F01121968E531B40C077D80B7
:100928007F0D121F4E90007D7402F0A37458F07F63
:10093800041218F890007CEFF090007EE024FFF09D
:1009480090007DE034FFF0E07002A3E060119000B9
:100958007CE0FF20E00990007AE0FEEF5E60D07D49
:10096800807F0D121EE890007DE07002A3E0700306
:10097800020A587F061218F8EF541B6003020A5245
:10098800900078F0A3E0FF90007CE05F30E00690F4
:10099800007874FFF0E531640C6003020A587F0A9E
:1009A8001218F890007CEFF07F0C1218F8EF54073B
:1009B80090007BF06026A3E024FFFFE434FFFEEF05
:1009C8007803C333CE33CED8F9FF90007BE07C00A8
:1009D8002FFFEC3EAB39AA3AA93B801190007CE08E
:1009E80075F008A4FFAB39AA3AA93BE5F08FF012DD
:1009F80001F390007CE0700204F090007CE0D39456
:100A08001240037412F0E490007DF0A3F090007C93
:100A1800E0FFC390007EE09F90007DE0940050309E
:100A28007F091218F8AB36AA37A93890007DE0FC88
:100A3800A3E0F5828C83EF12017C90007EE004F045
:100A480070CB90007DE004F080C390007874FEF0D5
:0F0A58007D807F0C121F4E121964900078E0FF12
:010A6700226C
:101F64007F141218F8900059EFF0540370077D03A2
:051F74007F14121F4E56
:011F79002245
:071FFA007D037F14021EE8C5
:101731004100D1004100D5004100CF004100D2005D
:101741004100D4004100D0004100D3004100CC0051
:0B1FDC00759D9C75BC88D2ADD2AF2271
:072001007B017A0079C02287
:101A8200EF70089000D5E05401FF22BF010A9000D8
:101A9200D5E05402C313FF22BF020C9000D5E054DC
:101AA200041313543FFF22BF030D9000D5E05408E6
:101AB200131313541FFF22BF040B9000D5E05410E0
:101AC200C4540FFF22BF050C9000D5E05420C4136C
:071AD2005407FF227F0022F0
:03002B000205EDDE
:1005ED00C0E0C0F0C083C082C0D075D000C002C0D2
:1005FD0004C005C006C0079000D1E0FD7017AFBD67
:10060D00EF75F004A4FFACBEEC7A002FFEEA35F0D6
:10061D009000C0806EEDB40115AFBDEF75F004A470
:10062D00ADBE7C002DFEEC35F09000C280559000E3
:10063D00D1E0FDB40217AFBDEF75F004A4FFACBE61
:10064D00EC7A002FFEEA35F09000C48036EDB4034D
:10065D0015AFBDEF75F004A4ADBE7C002DFEEC35DD
:10066D00F09000C6801D9000D1E0FDB4041CAFBD1C
:10067D00EF75F004A4FFACBEEC7A002FFEEA35F066
:10068D009000C8F0A3CEF0020852ED64076003029B
:10069D000852AFBDEF75F004A4ADBE7C002DFEEC8D
:1006AD0035F09000CAF0A3CEF09000CAE0FEA3E0B2
:1006BD00FFC3EE9400402FD3EF9410EE940050261C
:1006CD009000CFE0FDB414109000D5E04401F090FF
:1006DD000088E04420F08006EDC39414500D900086
:1006ED00CFE004F080059000CFE4F09000CAE0FE6A
:1006FD00A3E0FFC3948BEE9400402FD3EF94ABEEA9
:10070D00940050269000D2E0FDB414109000D5E076
:10071D004402F0900088E04420F08006EDC394146C
:10072D00500D9000D2E004F080059000D2E4F090DE
:10073D0000CAE0FEA3E0FFC39420EE9401402DD348
:10074D00EF9440EE940150249000D4E0FDB4140ECB
:10075D00A3E04404F0900088E04420F08006EDC34F
:10076D009414500D9000D4E004F080059000D4E472
:10077D00F09000CAE0FEA3E0FFC394B9EE940140EF
:10078D000FD3EF94D9EE940150067C007D018004C7
:10079D007C007D009000CEE025E0FF9000CDE033A1
:1007AD004CFEEF4DFFEEF0A3EFF0B40012EEB4E00F
:1007BD000E9000D5E04408F0900088E04420F090C1
:1007CD0000CAE0FEA3E0FFC39448EE9402402FD38D
:1007DD00EF9468EE940250269000D3E0FDB414100F
:1007ED009000D5E04410F0900088E04420F08006A1
:1007FD00EDC39414500D9000D3E004F080059000EB
:10080D00D3E4F09000CAE0FEA3E0FFC394D3EE94CE
:10081D0002402DD3EF94F3EE94025024A3E0FDB4E7
:10082D0014109000D5E04420F0900088E04420F0B2
:10083D008006EDC39414500D9000CCE004F08005BB
:10084D009000CCE4F09000D1E0045407F02488F53A
:10085D00BCD007D006D005D004D002D0D0D082D0E5
:06086D0083D0F0D0E03260
:101D47003F065B4F666D7D077F6F777C395E7971E4
:101D5700BF86DBCFE6EDFD87FFEF3D760F0E7538CB
:101D670037545C73673149783E1C7E646E5A00FFB6
:071D7700F7FCB9DEF9F140B1
:041751004100F4104F
:0C1FD000E4F5957596FFF5937594FF22DB
:062008009000F3EFF0224E
:10110B00EF3395E0FE74472FF582741D3EF583E4B3
:10111B00939000EBF0AF05EF3395E0FE74472FF59E
:10112B0082741D3EF583E4939000ECF0AF03EF3334
:10113B0095E0FE74472FF582741D3EF583E4939082
:10114B0000EDF0AF25EF3395E0FE74472FF5827479
:10115B001D3EF583E4939000EEF0AF26EF3395E060
:10116B00FE74472FF582741D3EF583E4939000EFD8
:10117B00F0AF27EF3395E0FE74472FF582741D3ED9
:10118B00F583E4939000F0F0AF28EF3395E0FE7415
:10119B00472FF582741D3EF583E4939000F1F0AF79
:1011AB0029EF3395E0FE74472FF582741D3EF583CE
:0711BB00E4939000F2F02222
:100A68008F258E248D238C227B807A967998780026
:100A780012024EE47B0AFAF9F812024E74472BF57B
:100A880082741D3AF583E4939000EBF07B407A4240
:100A9800790F7800AF25AE24AD23AC2212024EE4C4
:100AA8007B0AFAF9F812024E74472BF582741D3A44
:100AB800F583E4939000ECF07BA07A8679017800C6
:100AC800AF25AE24AD23AC2212024EE47B0AFAF91C
:100AD800F812024E74472BF582741D3AF583E4939D
:100AE8009000EDF0E47B107A27F9F8AF25AE24AD3D
:100AF80023AC2212024EE47B0AFAF9F812024E7471
:100B0800472BF582741D3AF583E4939000EEF0E4E8
:100B18007BE87A03F9F8AF25AE24AD23AC221202A4
:100B28004EE47B0AFAF9F812024E74472BF58274E8
:100B38001D3AF583E4939000EFF0E47B64FAF9F84A
:100B4800AF25AE24AD23AC2212024EE47B0AFAF99B
:100B5800F812024E74472BF582741D3AF583E4931C
:100B68009000F0F0E47B0AFAF9F8AF25AE24AD2343
:100B7800AC2212024EE47B0AFAF9F812024E7447CC
:100B88002BF582741D3AF583E4939000F1F0E47B31
:100B98000AFAF9F8AF25AE24AD23AC2212024E743E
:100BA800472BF582741D3AF583E4939000F2F02206
:0F1FB20074EB2FF582E43400F583E02480F022F5
:101C97009000F4E030E312E5A054F72408F5A09093
:101CA70000F3E0F580E4A3F0229000F4E0FF54078E
:101CB700FEE5A054F02EF5A074EB2EF582E4340077
:0E1CC700F583E0F580EF04540F9000F4F02256
:101F0100EF70089000FFE05401FF22BF010A90002A
:0B1F1100FFE05402C313FF227F0022F8
:101755005E008A000000000000000000000000009C
:101765000000000000000000000000000000000074
:10177500004200870000410086004200A8000002E8
:0B1785000C00004100840041008500C2
:101EC600EF25E025E0FFE58954F02F2410F589E59C
:0E1ED6008E547F2480F58ED28CD2A9D2AF22FA
:101F7A00438E805389F0758ACD758CD4C28DD28CEC
:051F8A00D2A9D2AF2234
:0B1FE700D2AFD2A8D2AAD288D28A22A0
:06200E00121FE7021F7A19
:101EA500EF3395E0FE90008A75F003EF120301EE23
:101EB50075F003A42583F583EBF0A3EAF0A3E9F01D
:011EC50022FA
:10145B00900088E030E02090008AE0FBA3E0FAA344
:10146B00E0F9EA494B600312030DE49000FFF090A2
:10147B000088E06401F022900088E030E41B9000CB
:10148B0096E0FBA3E0FAA3E0F9EA494B60031203F1
:10149B000D900088E06410F022900088E030E52089
:1014AB00900099E0FBA3E0FAA3E0F9EA494B600353
:1014BB0012030DE49000D5F0900088E06420F02238
:1014CB00900088E030E71A90009FE0FBA3E0FAA3BE
:1014DB00E0F9EA494B600312030D900088E0648049
:0214EB00F022ED
:100CD50012145B900086E064016003020DDC758AE6
:100CE500CD758CD490008DE0FBA3E0FAA3E0F9EA82
:100CF500494B600890008DA3A312030D121C972089
:100D0500B228900084E0FDB40A10900088E06401E8
:100D1500F09000FFE06401F08008C3ED6480948AE0
:100D2500500D900084E004F08005E4900084F020EC
:100D3500B328900085E0FDB40A10900088E06401B6
:100D4500F09000FFE06402F08008C3ED6480948AAF
:100D5500500D900085E004F08005E4900085F0AE2C
:100D65000CAF0D7C007D0A12019EED4C70139000B6
:100D750090E0FBA3E0FAA3E0F9EA494B6003120314
:100D85000DAE0CAF0D7C007D6412019EED4C701311
:100D9500900093E0FBA3E0FAA3E0F9EA494B600376
:100DA50012030DAE0CAF0D7C037DE812019EED4CD8
:100DB500701890009CE0FBA3E0FAA3E0F9EA494B28
:100DC500600312030DE4F50CF50D050DE50D70023C
:070DD500050CE4900086F01C
:010DDC0022F4
:03000B00021F8F42
:101F8F00C0E0C083C0829000867401F0D082D083FD
:031F9F00D0E0325D
:03000300020007F1
:0100070032C6
:03001300020008E0
:0100080032C5
:101D0F00000004B0000000E800000960000000F4CB
:101D1F00000012C0000000FA00002580000000FD46
:101D2F0000004B00000000FE00009600000000FFC6
:081D3F000000E100000000FFBC
:101790004100FB004100F9004100F8004100FA005F
:081AD9008F298E288D278C2631
:101AE100E4900059F0900059E0FFC39407503BEF98
:101AF10075F008A4240FF582E4341DF5831202F178
:101B0100AB29AA28A927A826C31202E070149000C5
:101B110059E075F008A42413F582E4341DF583021D
:0C1B210002F1900059E004F080BB7FFD51
:011B2D002295
:101DB3008F258E248D238C22759850E589540F240A
:101DC30020F589AF25AE24AD23AC22121AD9900099
:101DD300FAEFF0F58DF58BD28E538EFED2ACD2AFE7
:011DE30022DD
:101F1C00AF051DEF6013120124F5993099FDC2999C
:0A1F2C00740129F9E43AFA80E72273
:101E39009000F5EBF0A3EAF0A3E9F09000FCE526A9
:101E4900F0A3E527F0A3E528F09000FBEDF0900062
:051E5900F9E529F0226B
:101B7900E4900083F09000F9E0FF900083E0FEC359
:101B89009F50359000FCE0FBA3E0FAA3E0F98E82B8
:101B990075830012013DFF9000F5E0FBA3E0FAA375
:101BA900E0F98E8275830012013D6F60037F002288
:0A1BB900900083E004F080BD7F017E
:011BC30022FF
:03002300021816AA
:10181600C0E0C083C082C0D075D000C000C001C087
:1018260002C003C006C007309902C29930983F90A3
:1018360000FBE0FF9000F8E0FEC39F502F9000F5FC
:10184600E0FBA3E0FAA3E0F98E82758300E5991226
:10185600017C9000F8E004F0E0C39F400FE4F01232
:101866001B79EF6007900088E04410F0C298D0071B
:10187600D006D003D002D001D000D0D0D082D08301
:03188600D0E0327D
:061E8200D2CD7F057E00B9
:101E8800EF1FAC0670011E4C601290005F7403F0E7
:0C1E980090005FE0FD14F0ED60E680F4C7
:011EA400221B
:101E5E0090005CEFF090005CE0D394004015A3740A
:101E6E007BF090005DE014F0E070F790005CE01401
:031E7E00F080E20F
:011E8100223E
:0D00160043C92043CA2043B30143B4012273
:0F1FC100D2CDD2C0121E84C2C0121E84C2CD2245
:081FF200C2C0121E82D2C022FF
:021CD500AB075B
:101CD700E490005DF0EB30E704D2C08002C2C0EBB5
:101CE70025E0FB121E84121E82C2CD90005DE00427
:101CF700F0E0C3940840DED2C0121E84121E82A2F6
:071D0700C09200C2CDA20052
:011D0E0022B2
:101C0C00E490005EF0D2C090005DF0121E82900055
:101C1C005EE025E0F030C004E04401F0C2CD121EBD
:101C2C008490005DE004F0E0C3940840DE300004D2
:101C3C00D2C08002C2C0121E84121E82C2CDD2C07B
:051C4C0090005EE0FFC6
:011C51002270
:021BC400AA076E
:101BC60090005C74A0F0121FC190005CE0FF121C34
:101BD600D550028018AF02121CD55002800F121F7A
:101BE600C190005CE04401FF121CD55006121FF2A2
:101BF6007FFF22D200121C0C90005BEFF0121FF246
:051C060090005BE0FF0F
:011C0B0022B6
:041E1000AA05A9076F
:101E140090005B74A0F0121FC190005BE0FF121CE5
:101E2400D5AF01121CD5AF02121CD5121FF27F329E
:051E34007E00021E5EAD
:10158A0002160AE493A3F8E493A34003F68001F257
:10159A0008DFF48029E493A3F85407240CC8C33362
:1015AA00C4540F4420C8834004F456800146F6DF31
:1015BA00E4800B010204081020408090171CE47E8E
:1015CA00019360BCA3FF543F30E509541FFEE49326
:1015DA00A360010ECF54C025E060A840B8E493A3ED
:1015EA00FAE493A3F8E493A3C8C582C8CAC583CA18
:1015FA00F0A3C8C582C8CAC583CADFE9DEE780BED0
:0117A0000048
:10002E00E709F608DFFA8046E709F208DFFA803EB4
:10003E0088828C83E709F0A3DFFA8032E309F608A1
:10004E00DFFA8078E309F208DFFA807088828C8309
:10005E00E309F0A3DFFA806489828A83E0A3F608BD
:10006E00DFFA805889828A83E0A3F208DFFA804C97
:10007E0080D280FA80C680D4806980F2803380106E
:10008E0080A680EA809A80A880DA80E280CA8033D7
:10009E0089828A83ECFAE493A3C8C582C8CCC5834F
:1000AE00CCF0A3C8C582C8CCC583CCDFE9DEE7801F
:1000BE000D89828A83E493A3F608DFF9ECFAA9F09E
:1000CE00EDFB2289828A83ECFAE0A3C8C582C8CCF4
:1000DE00C583CCF0A3C8C582C8CCC583CCDFEADE0D
:1000EE00E880DB89828A83E493A3F208DFF980CC6F
:1000FE0088F0EF60010E4E60C388F0ED2402B40468
:10010E000050B9F582EB2402B4040050AF2323450E
:06011E00822390007E73B5
:10012400BB010689828A83E0225002E722BBFE02D9
:09013400E32289828A83E493220C
:10013D00BB010CE58229F582E5833AF583E0225077
:10014D0006E92582F8E622BBFE06E92582F8E222C1
:0D015D00E58229F582E5833AF583E49322DB
:10016A00BB010689828A83F0225002F722BBFE0174
:02017A00F3226E
:10017C00F8BB010DE58229F582E5833AF583E8F0B9
:10018C00225006E92582C8F622BBFE05E92582C865
:02019C00F2224D
:10019E00BC000BBE0029EF8DF084FFADF022E4CC45
:1001AE00F875F008EF2FFFEE33FEEC33FCEE9DEC0E
:1001BE00984005FCEE9DFE0FD5F0E9E4CEFD22ED54
:1001CE00F8F5F0EE8420D21CFEADF075F008EF2F9E
:1001DE00FFED33FD4007985006D5F0F222C398FD8F
:0501EE000FD5F0EA222C
:1001F300BB010A89828A83F0E5F0A3F0225006F757
:0F02030009A7F01922BBFE06F3E5F009F3192253
:1002120075F008758200EF2FFFEE33FECD33CDCCA3
:1002220033CCC58233C5829BED9AEC99E582984026
:100232000CF582EE9BFEED9AFDEC99FC0FD5F0D603
:10024200E4CEFBE4CDFAE4CCF9A88222B800C1B92D
:100252000059BA002DEC8BF084CFCECDFCE5F0CB6B
:10026200F97818EF2FFFEE33FEED33FDEC33FCEBA4
:1002720033FB10D703994004EB99FB0FD8E5E4F95F
:10028200FA227818EF2FFFEE33FEED33FDEC33FC4C
:10029200C933C910D7059BE99A4007EC9BFCE99A40
:1002A200F90FD8E0E4C9FAE4CCFB2275F010EF2F85
:1002B200FFEE33FEED33FDCC33CCC833C810D70785
:1002C2009BEC9AE899400AED9BFDEC9AFCE899F8C0
:0E02D2000FD5F0DAE4CDFBE4CCFAE4C8F92253
:1002E000EB9FF5F0EA9E42F0E99D42F0E89C45F074
:0102F00022EB
:1002F100E493FC740193FD740293FE740393FF2253
:0C030100A42582F582E5F03583F5832207
:06030D008A838982E4737B
:00000001FF
