:030000000216F5F0
:0C16F500787FE4F6D8FD75813B02173CBD
:102142000102030405060708090A0B0C0D0E0F1005
:1016680046003CFFFFFFFFFFFF4100360041003509
:0D167800004100180041005A0041003701F8
:0D1C6B0090004BEFF07B017A0079427D0A7A
:061C78008B228A2389245F
:101C7E00E490005EF090005DF090005DE0FFC39D8B
:101C8E005020A3E0FEAB22AA23A9248F82758300E5
:101C9E00120475FFEE6F90005EF090005DE004F0B0
:071CAE0080D790005EE0FF0B
:011CB500220C
:061BC1008B228A23892417
:101BC700E490005BF0A3740AF07B007A0479007F4D
:101BD700521219DBEF700790005BE04401F0AB2273
:101BE700AA23A924120FEEEF700790005BE04402CE
:101BF700F090005BE0FFB40302801390005CE0FE0E
:0E1C070014F0EE70028007E490005BF080BBEA
:011C150022AC
:061884007B017A007938B7
:06188A008B228A23892451
:10189000E490005DF0A3740AF07B007A0479007F85
:1018A000521219DBEF700790005DE04401F0AB22AB
:1018B000AA23A924120FEEEF700790005DE0440206
:1018C000F0AB22AA23A9241210A9EF700790005DA3
:1018D000E04404F090005DE0B40702801390005EE5
:1018E000E0FF14F0EF70028007E490005DF080A943
:0818F000121D8F90005DE0FF66
:0118F80022CD
:0812C0008F228B238A2489256B
:1012C800E490005DF0A3740AF0AB23AA24A9257F5B
:1012D800521219DBEF700790005DE04401F0AB2378
:1012E800AA24A925120FEEEF700790005DE04402D2
:1012F800F0AB23AA24A9251210A9EF700790005D6E
:10130800E04404F085232E85242F8525307B017A3F
:1013180000793CAD227F61121218EF700790005DD2
:10132800E04408F0AB26AA27A928AF22121781EFBC
:10133800700790005DE04420F090005DE0B42F025B
:10134800801490005EE0FF14F0EF70028008E490D3
:0E135800005DF00212D1121D8F90005DE0FFCB
:011366002264
:081367008F228B238A248925C3
:10136F00E490005DF0A3740AF07B017A00795F7F4F
:10137F00521219DBEF700790005DE04401F07B0122
:10138F007A00795F120FEEEF700790005DE0440274
:10139F00F07B017A00795F1210A9EF700790005D62
:1013AF00E04404F0752E01752F0075305F7B017AD4
:1013BF0000793CAD227F61121218EF700790005D2B
:1013CF00E04408F0AB23AA24A925AF22120E33EF75
:1013DF00700790005DE04410F090005DE0B41F02D4
:1013EF00801490005EE0FF14F0EF70028008E4902C
:0E13FF00005DF0021378121D8F90005DE0FF7C
:01140D0022BC
:101B13001221A178297C007D017E007F0C120436FE
:101B23009000447408F0A37403F090002FE0FCA32A
:101B3300E0FDEC900046F0EDA3F0900031E0FCA353
:101B4300E0FDEC900048F0EDA3F090002DA3E090B1
:101B5300004AF0E4A3121C6F90004CEFF07B017A73
:071B63000079420D0220CFC2
:101EFC00900018E004F0B41E02E4F0900035E0B459
:101F0C0001227B017A007938121BC1BF03089000B3
:101F1C005A7401F08005E490005AF0900018E070BB
:051F2C0003121B13224B
:10196C00900035E06401706690005AE06050900081
:10197C0037E0FF1221A8900038E0FEC4540FFFEEB0
:10198C00540FFDA3E0FEC4540FFBEE540FF525A33A
:10199C00E0FEC4540FF526EE540FF527A3E0FEC469
:1019AC00540FF528EE540FF529121161900037E011
:1019BC00FF25E0FEEFC413131354012EF022E4FFB5
:0F19CC001221A87F007E007D007C00120AC62237
:10180A007F011220B490005BEFF0640170489000F1
:10181A0035E02401FFE433FE7C007D031204D6AFD9
:10182A0005EFF070097F877ED67D12FC8025900037
:10183A0035E0B4010FE4FF1221A87F007E007D008D
:10184A007C00800F900035E0B4020B7F027E007DA1
:10185A00007C00120AC6900035E0701DFF1220B409
:10186A0090005BEFF0BF0111121884BF070B7B01D8
:09187A007A0079387D041220CFB8
:011883002242
:1015D700900035E06003021667FF121B6A90005BFC
:1015E700EFF0640170427526017527007528197B95
:1015F700017A0079387F141212C0900036EFF06438
:101607002F600FE0900044F07B017A0079427D0360
:1016170080137B017A0079387D041220CF7B017A11
:101627000079197D101220CF7F03121B6A90005B8F
:10163700EFF0BF011B7BFF7A2179427F14121367FA
:10164700900044EFF07B017A0079427D031220CFAE
:101657007F05121B6A90005BEFF0BF0103121B139B
:011667002260
:10002E0090005B74FFF0E4A3F07B017A0079007D11
:10003E0017121C78900017E06F60030203659000A2
:10004E0002E090005BF0705E121884EF640790007F
:10005E0044601C7401F0A374FFF0A37402F07B01E2
:10006E007A0079427D05121C78900047020359747C
:10007E0006F0E4A3F0900038E0900046F0900039CE
:10008E00E0900047F090003AE0900048F090003B7E
:10009E00E0900049F07B017A0079427D08121C78CD
:1000AE0090004A02035990005BE064016003020174
:1000BE00989000447413F0A37401F0900003E0FFD5
:1000CE00900046F07526017527007528197B017A78
:1000DE000079381212C0EF642F601E900044740332
:1000EE00F0A374FFF0A37401F0FB7A0079427D0552
:1000FE00121C78900047020195900019E09000477D
:10010E00F090001AE0900048F090001BE09000493B
:10011E00F090001CE090004AF090001DE090004B23
:10012E00F090001EE090004CF090001FE090004D0B
:10013E00F0900020E090004EF0900021E090004FF3
:10014E00F0900022E0900050F0900023E0900051DB
:10015E00F0900024E0900052F0900025E0900053C3
:10016E00F0900026E0900054F0900027E0900055AB
:10017E00F0900028E0900056F07B017A0079427DE5
:10018E0015121C7890005702035990005BE0640230
:10019E006003020270900003E0FF7B017A00790495
:1001AE00121367EF641F900044601C7403F0A37475
:1001BE00FFF0A37403F07B017A0079427D05121CD7
:1001CE007890004702026D7413F0A37402F0A3142A
:1001DE00F0900004E0900047F0900005E090004899
:1001EE00F0900006E0900049F0900007E090004A81
:1001FE00F0900008E090004BF0900009E090004C69
:10020E00F090000AE090004DF090000BE090004E50
:10021E00F090000CE090004FF090000DE090005038
:10022E00F090000EE0900051F090000FE090005220
:10023E00F0900010E0900053F0900011E090005408
:10024E00F0900012E0900055F0900013E0900056F0
:10025E00F07B017A0079427D15121C7890005702CE
:10026E00035990005BE0B40303021B1390005BE0A4
:10027E006404600302030A900003E0FD7F50121F26
:10028E00C3900004E0FD7F51121FC3900005E0FDF6
:10029E007F52121FC3900006E0FD7F53121FC390C2
:1002AE000007E0FD7F54121FC3900008E0FD7F554C
:1002BE00121FC39000447408F0A37404F07F501210
:1002CE001D01900046EFF07F51121D01900047EF87
:1002DE00F07F52121D01900048EFF07F53121D0166
:1002EE00900049EFF07F54121D0190004AEFF07F0D
:1002FE0055121D01121C6B90004C804F90005BE05C
:10030E00640570539000447408F0A37405F07F5098
:10031E00121D01900046EFF07F51121D0190004713
:10032E00EFF07F52121D01900048EFF07F53121D27
:10033E0001900049EFF07F54121D0190004AEFF03A
:10034E007F55121D01121C6B90004CEFF07B017A51
:07035E000079420D1220CFCF
:010365002275
:1020E900EF1FAC0670011E4C600D0000007D0B7CDB
:0720F900BEDCFEDDFC80E906
:0121000022BC
:1014B1001221AE1221701200167F807E257D007CE4
:1014C10000121F66752601752700752842752902CD
:1014D1007B017A0079007D18121FEC12217C7BFFC1
:1014E1007A19796C7F031220587BFF7A18790AE404
:1014F100FF1220587BFF7A1579D77F051220587B80
:10150100FF7A00792E7F041220587BFF7A1E79FC26
:101511007F0612205890004274AAF0A37455F07F00
:10152100151221A87525037526047527057528064A
:101531007529077B027D01E4FF121161121F9712C9
:041541000D3380FBEB
:101F9700C2AF53B3E143B41E4391015392FE539131
:101FA700FD439202D291D2C1D2C2C290C2C3D2C45F
:0C1FB700121F3112219A122117D2AF2202
:0819DB008F298B2A8A2B892C2D
:1019E3001220977D077F0D121AB67D037F141221F3
:1019F30001900066E529F0753501753601753700EC
:101A0300753866753901753A00753B647A007966F5
:101A13001208EA900063EFF07027A3E07004A3E0DC
:101A23006410701D900066E0AB2AAA2BA92C120447
:101A3300A2900067E0AB2AAA2BA92C900001120404
:061A4300B4900063E0FF17
:011A4900227A
:060FEE008B298A2A892BE1
:100FF400E4900065F0122097E4FD7F0D121AB67D8F
:10100400807F0E12209B9000687493F0A37420F0EC
:10101400753502753601753700753868753901758F
:101024003A00753B667B017A0079687F0C1208EE02
:10103400900063EFF07061A3F0900064E0FFC3944C
:10104400045039E0FE2468F582E43400F583E0AB13
:1010540029AA2AA92B8E827583001204B4900065F4
:10106400E0FE74682FF582E43400F583E0FFEE6F50
:10107400900065F0900064E004F080BD900064E0AE
:101084002468F582E43400F583E0FF900065E06FA6
:10109400600690006374FEF07D807F0E1221019043
:0410A4000063E0FF06
:0110A8002225
:0610A9008B298A2A892B25
:1010AF009000677493F0A37470F0E490006DF0906B
:1010BF000064F0900064E0FFC394045039AB29AA98
:1010CF002AA92BE0FEF582758300120475FD746961
:1010DF002EF582E43400F583EDF090006DE0FE8F85
:1010EF0082758300120475FFEE6F90006DF0900013
:1010FF0064E004F080BD75300175310075326E7B90
:10110F00017A0079677D0712142712209775350928
:10111F00753601753700753867753901753A007581
:10112F003B657B017A0079677F0C1208EE900063B4
:10113F00EFF07012900065E07004A3E06418700681
:10114F00900063F0800690006374FEF0900063E0FF
:01115F00FF90
:01116000226C
:061218008B2B8A2C892DAE
:10121E00900067EFF0A3EDF0E4900066F0AB2BAA20
:10122E002CA92D900066E0FFF582758300120475DF
:10123E00FE74692FF582E43400F583EEF0900066BB
:10124E00E004F0E0B406D6E4900066F0AB2EAA2FD0
:10125E00A930900066E0FFF582758300120475FEDA
:10126E00746F2FF582E43400F583EEF0900066E0A3
:10127E0004F0E0B406D675350C7536017537007579
:10128E003867753901753A00753B647B017A0079D0
:10129E00677F0E1208EE900063EFF070097F081260
:1012AE001A4AEF20E30690006374FEF0900063E0AC
:0112BE00FF30
:0112BF00220C
:061781008B298A2A892B46
:101787009000637430F0A3EFF07530017531007588
:1017970032657A007963121423753504753601753D
:1017A7003700753863753901753A00753B607B0101
:1017B7007A0079637F0C1208EE90005FEFF07037C4
:1017C700A3E07004A3E06490702D900062F0900095
:1017D70062E0FF2463F582E43400F583E0AB29AAD5
:1017E7002AA92B8F827583001204B4900062E0044B
:1017F700F0E0B410D9800690005F74FEF090005FAF
:02180700E0FF00
:0118090022BC
:060E33008B268A278928A6
:100E390090006774A0F0A3EFF0753001753100756B
:100E490032697B017A0079677D02121427753504AE
:100E5900753601753700753867753901753A00754A
:100E69003B647B017A0079677F0C1208EE9000637E
:100E7900EFF07014A3E07004A3E06404700A90001A
:100E890067E0540F640A600690006374FEF09000F6
:100E990063E06003020F23900066F0AB26AA27A93E
:100EA90028900066E0FFF582758300120475FE74D0
:100EB900672FF582E43400F583EEF0900066E004D4
:100EC900F0E0B410D67530017531007532777B01C9
:100ED9007A0079677D1012142775351275360175F8
:100EE9003700753867753901753A00753B647B01C0
:100EF9007A0079677F0C1208EE900063EFF07014A6
:100F0900A3E07004A3E06404700A900067E0540F42
:0F0F1900640A600690006374FEF0900063E0FFCE
:010F280022A6
:080F29008D088B098A0A890B6F
:100F3100EF12140E1208D19000ACEFF07014A3E080
:100F41007004A3E06404700A9000B0E0540F640AD6
:100F510060069000AC74FEF09000ACE0705A900016
:100F6100AFF0AB09AA0AA90B9000AFE0FFF58275BB
:100F71008300120475FE74B02FF582E43400F5830A
:100F8100EEF09000AFE004F0E0B410D675300175DA
:100F910031007532B47B017A0079B07D04121427D7
:100FA100E49000ADF0A3F07535061208D49000ACC2
:100FB100EFF064FE6002E4F09000ACE0702974B0E0
:100FC10012140E1208D19000ACEFF07014A3E0706F
:100FD10004A3E06404700A9000B0E0540F640A6056
:0C0FE100069000AC74FEF09000ACE0FF45
:010FED0022E1
:020C16008D0E41
:100C18009000DB74C2F0A3EFF075300175310075F8
:100C280032DD7B017A0079DB7D02121427753504E9
:100C38007536017537007538DB753901753A0075F9
:100C48003BD97B017A0079DB7F0C1208EE9000D843
:100C5800EFF07014A3E07004A3E06404700A90003D
:100C6800DBE0540F640A60069000D874FEF0900030
:100C7800D8E070499000DBF0A3F0A3F0A3F0753042
:100C8800017531007532DF7B017A0079DB7D041252
:100C980014277535067536017537007538DB7539D3
:100CA80001753A00753BD97B017A0079DB7F0C121C
:100CB80008EE9000D8EFF064FE6002E4F09000D8EF
:100CC800E060037FFE229000DB74B0F0A3E50EF035
:100CD8007530017531007532DD7B017A0079DB7D75
:100CE800021214277535047536017537007538DB1F
:100CF800753901753A00753BD97B017A0079DB7F3C
:100D08000C1208EE9000D8EFF07014A3E07004A362
:100D1800E06404700A9000DBE0540F640A600690F7
:0A0D280000D874FEF09000D8E0FF40
:010D3200229E
:101D8F009000667450F0E4A3F07530017531007562
:101D9F0032687B017A0079667D021214277535044B
:101DAF00753601753700753866753901753A0075E6
:101DBF003B647B017A0079667F0C1208EE9000631A
:041DCF00EFF07F00B2
:011DD30022ED
:10140E009000B0F0A3E508F075300175310075322B
:09141E00B27A0079B07B017D0275
:081427008B2C8A2D892E8D2FDC
:10142F007D047F0512209B121AB27D807F0A122144
:10143F0001E4900079F0900079E0FFC3952F501CE4
:10144F00AB2CAA2DA92E8F82758300120475FD7FF8
:10145F0009121AB6900079E004F080DA7D037F015B
:10146F00121AB690007974FFF07F05121A4A900095
:10147F007AEFF0900079E014F0E06005A3E030E23D
:10148F00E87F22121A4AAB30AA31A932EF1204A216
:10149F007F21121A4AAB30AA31A932900001EF0214
:0214AF0004B483
:101F31007D0F7F01121AB6007D3D7F11121AB67D09
:101F41001E7F2D121AB6E4FD7F2C121AB67D8D7FED
:101F51002A121AB67D3E7F2B121AB67D407F1512CA
:051F61001AB67F00220A
:101A4A00E4900084F0D2C1C291EF25E0547E448034
:101A5A00900083F09000827408F0900083E0FF30D9
:101A6A00E703D38001C3B392C2C2C1EF25E090005D
:101A7A0083F0D2C1900082E014F0E070DD90008221
:101A8A007408F0C2C1900084E025E0F0309004E0D0
:101A9A004401F0D2C1900082E014F0E070E5D291E6
:071AAA00D2C1900084E0FFAF
:011AB1002212
:041AB200E4FD7F01CF
:101AB600D2C1C291EF25E0547E900083F09000825F
:101AC6007408F0900083E0FF30E703D38001C3B3CE
:101AD60092C2C2C1EF25E0900083F0D2C19000828D
:101AE600E014F0E070DD9000827408F0ED30E7035A
:101AF600D38001C3B392C2C2C1ED25E0FDD2C1902D
:0C1B06000082E014F0E070E4D291D2C143
:011B120022B0
:02210100AE0727
:10210300E4900081F0121A4A900081EFF0AF064D7F
:04211300FD021AB6F9
:042097007D087F0839
:02209B00AE078E
:10209D00E4900081F0121A4A900081EFF0FCAF0637
:0720AD00EDF45CFD021AB620
:1008D1007535047536017537007538B07539017590
:0D08E1003A00753BAD7A0079B07B017F0CC9
:0808EE008F318B328A3389340B
:1008F60090007A74FEF0E4A3F0A3F0E53124F460EE
:100906001024FE701690007B7412F0A37410F08011
:100916000A90007B7477F0A37430F090007BE0447B
:1009260080FD7F02121AB67D807F0412209B121A68
:10093600B27D807F0A122101E490007FF0A3F0903F
:10094600007FE0FCA3E0FDC39535EC94005023AB9B
:1009560032AA33A9348D828C83120475FD7F091265
:100966001AB6900080E004F070D590007FE004F0A5
:1009760080CDAD317F01121AB6E531B40C077D800A
:100986007F0D12210190007F7402F0A37458F07F4E
:1009960004121A4A90007EEFF0900080E024FFF0E7
:1009A60090007FE034FFF0E07002A3E06011900059
:1009B6007EE0FF20E00990007CE0FEEF5E60D07DE7
:1009C600807F0D12209B90007FE07002A3E07003F1
:1009D600020AB67F06121A4AEF541B6003020AB0D7
:1009E60090007AF0A3E0FF90007EE05F30E0069092
:1009F600007A74FFF0E531640C6003020AB67F0AE0
:100A0600121A4A90007EEFF07F0C121A4AEF540732
:100A160090007DF06026A3E024FFFFE434FFFEEFA4
:100A26007803C333CE33CED8F9FF90007DE07C0047
:100A36002FFFEC3EAB39AA3AA93B801190007EE02D
:100A460075F008A4FFAB39AA3AA93BE5F08FF0127E
:100A5600052B90007EE0700204F090007EE0D394B7
:100A66001240037412F0E490007FF0A3F090007E31
:100A7600E0FFC3900080E09F90007FE0940050303C
:100A86007F09121A4AAB36AA37A93890007FE0FCD4
:100A9600A3E0F5828C83EF1204B4900080E004F0AA
:100AA60070CB90007FE004F080C390007A74FEF073
:0F0AB6007D807F0C122101121AB290007AE0FFAE
:010AC500220E
:102117007F14121A4A90005BEFF0540370077D0397
:052127007F14122101EC
:01212C002290
:07219A007D037F1402209B6E
:101685004100D3004100D7004100D1004100D40002
:101695004100D6004100D2004100D5004100CE00F6
:0B217C00759D9C75BC88D2ADD2AF22CF
:0721A1007B017A0079C222E4
:101B6A00EF70089000D7E05401FF22BF010A9000ED
:101B7A00D7E05402C313FF22BF020C9000D7E054EF
:101B8A00041313543FFF22BF030D9000D7E05408FB
:101B9A00131313541FFF22BF040B9000D7E05410F5
:101BAA00C4540FFF22BF050C9000D7E05420C41381
:071BBA005407FF227F002207
:03002B0002064B7F
:10064B00C0E0C0F0C083C082C0D075D000C002C073
:10065B0004C005C006C0079000D3E0FD7017AFBD06
:10066B00EF75F004A4FFACBEEC7A002FFEEA35F078
:10067B009000C2806EEDB40115AFBDEF75F004A410
:10068B00ADBE7C002DFEEC35F09000C48055900083
:10069B00D3E0FDB40217AFBDEF75F004A4FFACBE01
:1006AB00EC7A002FFEEA35F09000C68036EDB403ED
:1006BB0015AFBDEF75F004A4ADBE7C002DFEEC357F
:1006CB00F09000C8801D9000D3E0FDB4041CAFBDBA
:1006DB00EF75F004A4FFACBEEC7A002FFEEA35F008
:1006EB009000CAF0A3CEF00208B0ED6407600302DD
:1006FB0008B0AFBDEF75F004A4ADBE7C002DFEECD1
:10070B0035F09000CCF0A3CEF09000CCE0FEA3E04F
:10071B00FFC3EE9400402FD3EF9410EE94005026BD
:10072B009000D1E0FDB414109000D7E04401F0909C
:10073B00008AE04420F08006EDC39414500D900025
:10074B00D1E004F080059000D1E4F09000CCE0FE05
:10075B00A3E0FFC3948BEE9400402FD3EF94ABEE4A
:10076B00940050269000D4E0FDB414109000D7E014
:10077B004402F090008AE04420F08006EDC394140C
:10078B00500D9000D4E004F080059000D4E4F0907C
:10079B0000CCE0FEA3E0FFC39420EE9401402DD3E8
:1007AB00EF9440EE940150249000D6E0FDB4140E6B
:1007BB00A3E04404F090008AE04420F08006EDC3EF
:1007CB009414500D9000D6E004F080059000D6E410
:1007DB00F09000CCE0FEA3E0FFC394B9EE9401408F
:1007EB000FD3EF94D9EE940150067C007D01800469
:1007FB007C007D009000D0E025E0FF9000CFE0333F
:10080B004CFEEF4DFFEEF0A3EFF0B40012EEB4E0B0
:10081B000E9000D7E04408F090008AE04420F0905E
:10082B0000CCE0FEA3E0FFC39448EE9402402FD32C
:10083B00EF9468EE940250269000D5E0FDB41410AE
:10084B009000D7E04410F090008AE04420F080063E
:10085B00EDC39414500D9000D5E004F0800590008A
:10086B00D5E4F09000CCE0FEA3E0FFC394D3EE946C
:10087B0002402DD3EF94F3EE94025024A3E0FDB489
:10088B0014109000D7E04420F090008AE04420F050
:10089B008006EDC39414500D9000CEE004F080055B
:1008AB009000CEE4F09000D3E0045407F02488F5D8
:1008BB00BCD007D006D005D004D002D0D0D082D087
:0608CB0083D0F0D0E03202
:101EC5003F065B4F666D7D077F6F777C395E797165
:101ED500BF86DBCFE6EDFD87FFEF3D760F0E75384C
:101EE50037545C73673149783E1C7E646E5A00FF37
:071EF500F7FCB9DEF9F14032
:0416A5004100F610FA
:0C217000E4F5957596FFF5937594FF2239
:0621A8009000F5EFF022AB
:10116100EF3395E0FE74C52FF582741E3EF583E4DE
:10117100939000EDF0AF05EF3395E0FE74C52FF5C8
:1011810082741E3EF583E4939000EEF0AF03EF33DB
:1011910095E0FE74C52FF582741E3EF583E49390AD
:1011A10000EFF0AF25EF3395E0FE74C52FF58274A3
:1011B1001E3EF583E4939000F0F0AF26EF3395E007
:1011C100FE74C52FF582741E3EF583E4939000F101
:1011D100F0AF27EF3395E0FE74C52FF582741E3E04
:1011E100F583E4939000F2F0AF28EF3395E0FE74BD
:1011F100C52FF582741E3EF583E4939000F3F0AFA2
:1012010029EF3395E0FE74C52FF582741E3EF583F8
:07121100E4939000F4F022C9
:100AC6008F258E248D238C227B807A9679987800C8
:100AD600120586E47B0AFAF9F812058674C52BF529
:100AE60082741E3AF583E4939000EDF07B407A42DF
:100AF600790F7800AF25AE24AD23AC22120586E42B
:100B06007B0AFAF9F812058674C52BF582741E3A2B
:100B1600F583E4939000EEF07BA07A867901780065
:100B2600AF25AE24AD23AC22120586E47B0AFAF982
:100B3600F812058674C52BF582741E3AF583E49384
:100B46009000EFF0E47B107A27F9F8AF25AE24ADDC
:100B560023AC22120586E47B0AFAF9F8120586749C
:100B6600C52BF582741E3AF583E4939000F0F0E409
:100B76007BE87A03F9F8AF25AE24AD23AC22120543
:100B860086E47B0AFAF9F812058674C52BF5827499
:100B96001E3AF583E4939000F1F0E47B64FAF9F8E9
:100BA600AF25AE24AD23AC22120586E47B0AFAF902
:100BB600F812058674C52BF582741E3AF583E49304
:100BC6009000F2F0E47B0AFAF9F8AF25AE24AD23E3
:100BD600AC22120586E47B0AFAF9F812058674C57A
:100BE6002BF582741E3AF583E4939000F3F0E47BD0
:100BF6000AFAF9F8AF25AE24AD23AC2212058674A5
:100C0600C52BF582741E3AF583E4939000F4F02226
:0F21520074ED2FF582E43400F583E02480F02251
:101E15009000F6E030E312E5A054F72408F5A09011
:101E250000F5E0F580E4A3F0229000F6E0FF54070A
:101E3500FEE5A054F02EF5A074ED2EF582E43400F5
:0E1E4500F583E0F580EF04540F9000F6F022D4
:1020B400EF7008900101E05401FF22BF010A900172
:0B20C40001E05402C313FF227F002242
:1016A9005E008C0000000000000000000000000047
:1016B9000000000000000000000000000000000021
:1016C900004200890000410088004200AA0000028F
:0B16D9000C000041008600410087006B
:10207900EF25E025E0FFE58954F02F2410F589E5E7
:0E2089008E547F2480F58ED28CD2A9D2AF2245
:10212D00438E805389F0758ACD758CD4C28DD28C37
:05213D00D2A9D2AF227F
:0B218700D2AFD2A8D2AAD288D28A22FE
:0621AE0012218702212D21
:10205800EF3395E0FE90008C75F003EF120639EE31
:1020680075F003A42583F583EBF0A3EAF0A3E9F068
:012078002245
:1015450090008AE030E02090008CE0FBA3E0FAA355
:10155500E0F9EA494B6003120645E4900101F09079
:10156500008AE06401F02290008AE030E41B9000DC
:1015750098E0FBA3E0FAA3E0F9EA494B6003120601
:101585004590008AE06410F02290008AE030E52062
:1015950090009BE0FBA3E0FAA3E0F9EA494B600366
:1015A500120645E49000D7F090008AE06420F0220E
:1015B50090008AE030E71A9000A1E0FBA3E0FAA3CF
:1015C500E0F9EA494B600312064590008AE0648021
:0215D500F02202
:100D3300121545900088E064016003020E32758A43
:100D4300CD758CD490008FE0FBA3E0FAA3E0F9EA21
:100D5300494B600312064520B228900086E0FDB49B
:100D63000A1090008AE06401F0900101E06401F050
:100D73008008C3ED6480948A500D900086E004F0EF
:100D83008005E4900086F020B328900087E0FDB44E
:100D93000A1090008AE06401F0900101E06402F01F
:100DA3008008C3ED6480948A500D900087E004F0BE
:100DB3008005E4900087F0AE0CAF0D7C007D0A1235
:100DC30004D6ED4C7013900092E0FBA3E0FAA3E08D
:100DD300F9EA494B6003120645AE0CAF0D7C007D6A
:100DE300641204D6ED4C7013900095E0FBA3E0FA77
:100DF300A3E0F9EA494B6003120645AE0CAF0D7C44
:100E0300037DE81204D6ED4C701890009EE0FBA31E
:100E1300E0FAA3E0F9EA494B6003120645E4F50C56
:0F0E2300F50D050DE50D7002050CE4900088F04B
:010E3200229D
:03000B00021DD4FF
:101DD400C0E0C0F0C083C082C0D075D000C000C0D5
:101DE40001C002C003C004C005C006C0079000883B
:101DF4007401F0121E15D007D006D005D004D0030C
:101E0400D002D001D000D0D0D082D083D0F0D0E0A6
:011E1400329B
:03000300020006F2
:0100060032C7
:03001300020007E1
:0100070032C6
:101E8D00000004B0000000E800000960000000F44C
:101E9D00000012C0000000FA00002580000000FDC7
:101EAD0000004B00000000FE00009600000000FF47
:081EBD000000E100000000FF3D
:1016E4004100FD004100FB004100FA004100FC0004
:081C16008F298E288D278C26F2
:101C1E00E490005BF090005BE0FFC39407503BEF55
:101C2E0075F008A4248DF582E4341EF5831206297E
:101C3E00AB29AA28A927A826C3120618701490004B
:101C4E005BE075F008A42491F582E4341EF583025E
:0C1C5E00062990005BE004F080BB7FFDD5
:011C6A002257
:101F66008F258E248D238C22759850E589540F2455
:101F760020F589AF25AE24AD23AC22121C169000A5
:101F8600FCEFF0F58DF58BD28E538EFED2ACD2AF30
:011F96002228
:1020CF00AF051DEF601312045CF5993099FDC299AD
:0A20DF00740129F9E43AFA80E722BF
:101FEC009000F7EBF0A3EAF0A3E9F09000FEE526F1
:101FFC00F0A3E527F0A3E528F09000FDEDF09000AC
:05200C00FBE529F022B4
:101CB600E4900085F09000FBE0FF900085E0FEC315
:101CC6009F50359000FEE0FBA3E0FAA3E0F98E8278
:101CD600758300120475FF9000F7E0FBA3E0FAA3FA
:101CE600E0F98E827583001204756F60037F00220F
:0A1CF600900085E004F080BD7F013E
:011D000022C0
:030023000218F9C7
:1018F900C0E0C083C082C0D075D000C000C001C0A4
:1019090002C003C006C007309902C29930983F90BF
:1019190000FDE0FF9000FAE0FEC39F502F9000F712
:10192900E0FBA3E0FAA3E0F98E82758300E5991242
:1019390004B49000FAE004F0E0C39F400FE4F01211
:101949001CB6EF600790008AE04410F0C298D007F7
:10195900D006D003D002D001D000D0D0D082D0831D
:03196900D0E03299
:06203500D2CD7F057E0004
:10203B00EF1FAC0670011E4C60129000617403F030
:0C204B00900061E0FD14F0ED60E680F410
:012057002266
:1020110090005EEFF090005EE0D394004015A37451
:102021007BF090005FE014F0E070F790005EE01448
:03203100F080E25A
:012034002289
:0D00160043C92043CA2043B30143B4012273
:0F216100D2CDD2C0122037C2C0122037C2CD2239
:08219200C2C0122035D2C022A8
:021E5300AB07DB
:101E5500E490005FF0EB30E704D2C08002C2C0EB33
:101E650025E0FB122037122035C2CD90005FE0043B
:101E7500F0E0C3940840DED2C0122037122035A20C
:071E8500C09200C2CDA200D3
:011E8C002233
:101D4900E4900060F0D2C090005FF012203590005E
:101D590060E025E0F030C004E04401F0C2CD12207B
:101D69003790005FE004F0E0C3940840DE300004DF
:101D7900D2C08002C2C0122037122035C2CDD2C0D3
:051D8900900060E0FF86
:011D8E002232
:021D0100AA072F
:101D030090005E74A0F012216190005EE0FF121E4D
:101D13005350028018AF02121E535002800F12213B
:101D23006190005EE04401FF121E5350061221929F
:101D33007FFF22D200121D4990005DEFF012219225
:051D430090005DE0FFCF
:011D48002278
:041FC300AA05A907BB
:101FC70090005D74A0F012216190005DE0FF121E89
:101FD70053AF01121E53AF02121E531221927F32CA
:051FE7007E0002201144
:101701000214B1E493A3F8E493A34003F68001F239
:1017110008DFF48029E493A3F85407240CC8C333E9
:10172100C4540F4420C8834004F456800146F6DFB8
:10173100E4800B0102040810204080901668E47ECA
:10174100019360BCA3FF543F30E509541FFEE493AD
:10175100A360010ECF54C025E060A840B8E493A374
:10176100FAE493A3F8E493A3C8C582C8CAC583CA9F
:10177100F0A3C8C582C8CAC583CADFE9DEE780BE57
:0116F40000F5
:10036600E709F608DFFA8046E709F208DFFA803E79
:1003760088828C83E709F0A3DFFA8032E309F60866
:10038600DFFA8078E309F208DFFA807088828C83CE
:10039600E309F0A3DFFA806489828A83E0A3F60882
:1003A600DFFA805889828A83E0A3F208DFFA804C5C
:1003B60080D280FA80C680D4806980F28033801033
:1003C60080A680EA809A80A880DA80E280CA80339C
:1003D60089828A83ECFAE493A3C8C582C8CCC58314
:1003E600CCF0A3C8C582C8CCC583CCDFE9DEE780E4
:1003F6000D89828A83E493A3F608DFF9ECFAA9F063
:10040600EDFB2289828A83ECFAE0A3C8C582C8CCB8
:10041600C583CCF0A3C8C582C8CCC583CCDFEADED1
:10042600E880DB89828A83E493A3F208DFF980CC33
:1004360088F0EF60010E4E60C388F0ED2402B4042C
:100446000050B9F582EB2402B4040050AF232345D3
:0604560082239003B6733F
:10045C00BB010689828A83E0225002E722BBFE029E
:09046C00E32289828A83E49322D1
:10047500BB010CE58229F582E5833AF583E022503C
:1004850006E92582F8E622BBFE06E92582F8E22286
:0D049500E58229F582E5833AF583E49322A0
:1004A200BB010689828A83F0225002F722BBFE0139
:0204B200F32233
:1004B400F8BB010DE58229F582E5833AF583E8F07E
:1004C400225006E92582C8F622BBFE05E92582C82A
:0204D400F22212
:1004D600BC000BBE0029EF8DF084FFADF022E4CC0A
:1004E600F875F008EF2FFFEE33FEEC33FCEE9DECD3
:1004F600984005FCEE9DFE0FD5F0E9E4CEFD22ED19
:10050600F8F5F0EE8420D21CFEADF075F008EF2F62
:10051600FFED33FD4007985006D5F0F222C398FD53
:050526000FD5F0EA22F0
:10052B00BB010A89828A83F0E5F0A3F0225006F71B
:0F053B0009A7F01922BBFE06F3E5F009F3192218
:10054A0075F008758200EF2FFFEE33FECD33CDCC68
:10055A0033CCC58233C5829BED9AEC99E5829840EB
:10056A000CF582EE9BFEED9AFDEC99FC0FD5F0D6C8
:10057A00E4CEFBE4CDFAE4CCF9A88222B800C1B9F2
:10058A000059BA002DEC8BF084CFCECDFCE5F0CB30
:10059A00F97818EF2FFFEE33FEED33FDEC33FCEB69
:1005AA0033FB10D703994004EB99FB0FD8E5E4F924
:1005BA00FA227818EF2FFFEE33FEED33FDEC33FC11
:1005CA00C933C910D7059BE99A4007EC9BFCE99A05
:1005DA00F90FD8E0E4C9FAE4CCFB2275F010EF2F4A
:1005EA00FFEE33FEED33FDCC33CCC833C810D7074A
:1005FA009BEC9AE899400AED9BFDEC9AFCE899F885
:0E060A000FD5F0DAE4CDFBE4CCFAE4C8F92217
:10061800EB9FF5F0EA9E42F0E99D42F0E89C45F038
:0106280022AF
:10062900E493FC740193FD740293FE740393FF2217
:0C063900A42582F582E5F03583F58322CC
:060645008A838982E47340
:00000001FF
