:030000000215D214
:0C15D200787FE4F6D8FD75813B02161905
:101F8E000102030405060708090A0B0C0D0E0F10BB
:1016E70046003AFFFFFFFFFFFF410034004100358E
:0116F70001F1
:0A1B6800A3F07B017A0079407D05AF
:061B72008B228A23892466
:101B7800E490005BF090005AF090005AE0FFC39D9B
:101B88005020A3E0FEAB22AA23A9248F82758300EC
:101B980012046CFFEE6F90005BF090005AE004F0C6
:071BA80080D790005BE0FF15
:011BAF002213
:061768007B017A007936D6
:06176E008B228A2389246E
:10177400E490005AF0A3740AF0AB22AA23A9247FB0
:1017840052121931EF700790005AE04401F0AB2275
:10179400AA23A924120FEDEF700790005AE0440227
:1017A400F0AB22AA23A9241210A8EF700790005AC4
:1017B400E04404F090005AE0B40702801390005B08
:1017C400E0FF14F0EF70028007E490005AF080A963
:0817D400121C3E90005AE0FFD8
:0117DC0022EA
:0812BF008F228B238A2489256C
:1012C700E490005AF0A3740AF0AB23AA24A9257F5F
:1012D70052121931EF700790005AE04401F0AB2326
:1012E700AA24A925120FEDEF700790005AE04402D7
:1012F700F0AB23AA24A9251210A8EF700790005A73
:10130700E04404F085232E85242F8525307B017A40
:1013170000793AAD227F61121217EF700790005AD9
:10132700E04408F0AB26AA27A928AF2212165EEFE1
:10133700700790005AE04420F090005AE0B42F0262
:10134700801490005BE0FF14F0EF70028008E490D7
:0E135700005AF00212D0121C3E90005AE0FF25
:011365002265
:081366008F228B238A248925C4
:10136E00E490005AF0A3740AF07B017A00795C7F56
:10137E0052121931EF700790005AE04401F07B01D0
:10138E007A00795C120FEDEF700790005AE044027C
:10139E00F07B017A00795C1210A8EF700790005A6A
:1013AE00E04404F0752E01752F0075305C7B017AD8
:1013BE0000793AAD227F61121217EF700790005A32
:1013CE00E04408F0AB23AA24A925AF22120E32EF77
:1013DE00700790005AE04410F090005AE0B41F02DB
:1013EE00801490005BE0FF14F0EF70028008E49030
:0E13FE00005AF0021377121C3E90005AE0FFD6
:01140C0022BD
:0100060022D7
:10185000E4FF121EED900058EFF0BF01131217685D
:10186000EF6407705B7B017A0079367D04121F08F4
:101870007F01121EED900058EFF064017042752652
:10188000017527007528187B017A0079367F1412BC
:1018900012BF900034EFF0642F600FE0900042F030
:1018A0007B017A0079407D0380137B017A007936D1
:1018B0007D04121F087B017A0079187D10121F0821
:0118C0002205
:1018C100E4FF121A71900058EFF0BF011B7BFF7A01
:1018D1001F798E7F14121366900042EFF07B017A1C
:1018E1000079407D03121F087F05121A719000587C
:1018F100EFF07F02121A71900058EFF07F04121A74
:1019010071900058EFF0BF011C9000427403F0A3E6
:1019110014F0E4121B68900045EFF07B017A007926
:0F192100400D121F087F01121A71900058EFF04D
:011930002294
:10002E0090005874FFF0E4A3F07B017A0079007D14
:10003E0017121B72900017E06F600302035C9000B2
:10004E0002E0900058F07054121768EF64079000A9
:10005E004260127401F0A374FFF07402121B6890D8
:10006E0000450203507406F0E4A3F0900036E090D1
:10007E000044F0900037E0900045F0900038E0909A
:10008E000046F0900039E0900047F07B017A00794D
:10009E00407D08121B72900048020350900058E0F9
:1000AE00640160030201889000427413F0A374018E
:1000BE00F0900003E0FF900044F0752601752700D4
:1000CE007528187B017A0079361212BFEF642F6003
:1000DE00189000427403F0A374FFF0A37401F0FBB8
:1000EE00121B6C900045020185900018E0900045AF
:1000FE00F0900019E0900046F090001AE090004752
:10010E00F090001BE0900048F090001CE090004939
:10011E00F090001DE090004AF090001EE090004B21
:10012E00F090001FE090004CF0900020E090004D09
:10013E00F0900021E090004EF0900022E090004FF1
:10014E00F0900023E0900050F0900024E0900051D9
:10015E00F0900025E0900052F0900026E0900053C1
:10016E00F0900027E0900054F07B017A0079407DFA
:10017E0015121B72900055020350900058E0640255
:10018E006003020256900003E0FF7B017A007904BF
:10019E00121366EF641F90004260127403F0A37492
:1001AE00FFF07403121B689000450202537413F0A3
:1001BE00A37402F0A314F0900004E0900045F090B8
:1001CE000005E0900046F0900006E0900047F090A9
:1001DE000007E0900048F0900008E0900049F09091
:1001EE000009E090004AF090000AE090004BF09079
:1001FE00000BE090004CF090000CE090004DF09061
:10020E00000DE090004EF090000EE090004FF09048
:10021E00000FE0900050F0900010E0900051F09030
:10022E000011E0900052F0900012E0900053F09018
:10023E000013E0900054F07B017A0079407D151296
:10024E001B72900055020350900058E064037057E3
:10025E00121FED78287C007D017E007F0C12042D8C
:10026E009000427408F0A37403F090002EE0FCA3FB
:10027E00E0FDEC900044F0EDA3F0900030E0FCA324
:10028E00E0FDEC900046F0EDA3F090002CA3E09082
:10029E000048F0E4A3F07B017A0079407D0A121B3E
:1002AE007290004A020350900058E064046003020A
:1002BE00035C900003E0FD7F50121DFC900004E0F3
:1002CE00FD7F51121DFC900005E0FD7F52121DFCBA
:1002DE00900006E0FD7F53121DFC900007E0FD7FAD
:1002EE0054121DFC900008E0FD7F55121DFC90007D
:1002FE00427408F0A37404F07F50121BB0900044B7
:10030E00EFF07F51121BB0900045EFF07F52121BA1
:10031E00B0900046EFF07F53121BB0900047EFF005
:10032E007F54121BB0900048EFF07F55121BB09017
:10033E000049EFF07B017A0079407D0A121B729022
:0E034E00004AEFF07B017A0079400D121F0883
:01035C00227E
:101F2200EF1FAC0670011E4C600D0000007D0B7CA3
:071F3200BEDCFEDDFC80E9CE
:011F39002285
:10154200121FFA121FBC1200167F807E257D007CBE
:1015520000121D9F75260175270075284075290206
:101562007B017A0079007D18121E25121FC87BFFAD
:101572007A0079067F03121E917BFF7A187950E474
:10158200FF121E917BFF7A1879C17F05121E917B93
:10159200FF7A00792E7F04121E9190004074AAF007
:1015A200A37455F07F15121FF47525037526047573
:1015B20027057528067529077B027D01E4FF1211B4
:1015C20060121DD07FE87E03121F22120D2A80FBBB
:101DD000C2AF53B3E143B41E4391015392FE5391FA
:101DE000FD439202D291D2C1D2C2C290C2C3D2C428
:0C1DF000121D6A121FE6121F50D2AF2213
:081931008F298B2A8A2B892CD7
:10193900121ED07D077F0D121A107D037F14121F0E
:101949003A900063E529F075350175360175370060
:10195900753863753901753A00753B617A007963A9
:101969001208E1900060EFF07027A3E07004A3E093
:101979006410701D900063E0AB2AAA2BA92C1204F5
:1019890099900064E0AB2AAA2BA92C9000011204BB
:06199900AB900060E0FFCE
:01199F002225
:060FED008B298A2A892BE2
:100FF300E4900062F0121ED0E4FD7F0D121A107D02
:10100300807F0E121ED49000657493F0A37420F0B9
:101013007535027536017537007538657539017593
:101023003A00753B637B017A0079657F0C1208E512
:10103300900060EFF07061A3F0900061E0FFC39453
:10104300045039E0FE2465F582E43400F583E0AB17
:1010530029AA2AA92B8E827583001204AB90006201
:10106300E0FE74652FF582E43400F583E0FFEE6F54
:10107300900062F0900061E004F080BD900061E0B8
:101083002465F582E43400F583E0FF900062E06FAD
:10109300600690006074FEF07D807F0E121F3A9010
:0410A3000060E0FF0A
:0110A7002226
:0610A8008B298A2A892B26
:1010AE009000647493F0A37470F0E490006AF09072
:1010BE000061F0900061E0FFC394045039AB29AA9F
:1010CE002AA92BE0FEF58275830012046CFD74666E
:1010DE002EF582E43400F583EDF090006AE0FE8F89
:1010EE008275830012046CFFEE6F90006AF0900020
:1010FE0061E004F080BD75300175310075326B7B97
:10110E00017A0079647D07121426121ED0753509F6
:10111E00753601753700753864753901753A007585
:10112E003B627B017A0079647F0C1208E5900060C7
:10113E00EFF07012900062E07004A3E06418700685
:10114E00900060F0800690006074FEF0900060E009
:01115E00FF91
:01115F00226D
:061217008B2B8A2C892DAF
:10121D00900064EFF0A3EDF0E4900063F0AB2BAA27
:10122D002CA92D900063E0FFF58275830012046CEC
:10123D00FE74662FF582E43400F583EEF0900063C2
:10124D00E004F0E0B406D6E4900063F0AB2EAA2FD4
:10125D00A930900063E0FFF58275830012046CFEE7
:10126D00746C2FF582E43400F583EEF0900063E0AA
:10127D0004F0E0B406D675350C753601753700757A
:10128D003864753901753A00753B617B017A0079D7
:10129D00647F0E1208E5900060EFF070097F081270
:1012AD0019A0EF20E30690006074FEF0900060E05E
:0112BD00FF31
:0112BE00220D
:06165E008B298A2A892B6A
:101664009000607430F0A3EFF075300175310075AF
:1016740032627A0079601214227535047536017568
:101684003700753860753901753A00753B5D7B012B
:101694007A0079607F0C1208E590005CEFF07037F7
:1016A400A3E07004A3E06490702D90005FF09000BC
:1016B4005FE0FF2460F582E43400F583E0AB29AAFF
:1016C4002AA92B8F827583001204AB90005FE0047B
:1016D400F0E0B410D9800690005C74FEF090005CD9
:0216E400E0FF25
:0116E60022E1
:060E32008B268A278928A7
:100E380090006474A0F0A3EFF0753001753100756F
:100E480032667B017A0079647D02121426753504B6
:100E5800753601753700753864753901753A00754E
:100E68003B617B017A0079647F0C1208E590006091
:100E7800EFF07014A3E07004A3E06404700A90001B
:100E880064E0540F640A600690006074FEF09000FD
:100E980060E06003020F22900063F0AB26AA27A946
:100EA80028900063E0FFF58275830012046CFE74DD
:100EB800642FF582E43400F583EEF0900063E004DB
:100EC800F0E0B410D67530017531007532747B01CD
:100ED8007A0079647D1012142675351275360175FD
:100EE8003700753864753901753A00753B617B01C7
:100EF8007A0079647F0C1208E5900060EFF07014B6
:100F0800A3E07004A3E06404700A900064E0540F46
:0F0F1800640A600690006074FEF0900060E0FFD5
:010F270022A7
:080F28008D088B098A0A890B70
:100F3000EF12140D1208C89000A9EFF07014A3E08E
:100F40007004A3E06404700A9000ADE0540F640ADA
:100F500060069000A974FEF09000A9E0705A90001D
:100F6000ACF0AB09AA0AA90B9000ACE0FFF58275C2
:100F7000830012046CFE74AD2FF582E43400F58317
:100F8000EEF09000ACE004F0E0B410D675300175DE
:100F900031007532B17B017A0079AD7D04121426DF
:100FA000E49000AAF0A3F07535061208CB9000A9D2
:100FB000EFF064FE6002E4F09000A9E0702974B0E4
:100FC00012140D1208C89000A9EFF07014A3E0707D
:100FD00004A3E06404700A9000ADE0540F640A605A
:0C0FE000069000A974FEF09000A9E0FF4C
:010FEC0022E2
:020C0D008D1246
:100C0F009000D874C2F0A3EFF07530017531007504
:100C1F0032DA7B017A0079D87D02121426753504F9
:100C2F007536017537007538D8753901753A007505
:100C3F003BD67B017A0079D87F0C1208E59000D55E
:100C4F00EFF07014A3E07004A3E06404700A900046
:100C5F00D8E0540F640A60069000D574FEF090003F
:100C6F00D5E070499000D8F0A3F0A3F0A3F0753051
:100C7F00017531007532DC7B017A0079D87D041261
:100C8F0014267535067536017537007538D87539E0
:100C9F0001753A00753BD67B017A0079D87F0C122B
:100CAF0008E59000D5EFF064FE6002E4F09000D507
:100CBF00E060037FFE229000D874B0F0A3E512F03D
:100CCF007530017531007532DA7B017A0079D87D84
:100CDF00021214267535047536017537007538D82C
:100CEF00753901753A00753BD67B017A0079D87F4B
:100CFF000C1208E59000D5EFF07014A3E07004A378
:100D0F00E06404700A9000D8E0540F640A60069003
:0A0D1F0000D574FEF09000D5E0FF4F
:010D290022A7
:101C3E009000637450F0E4A3F075300175310075B7
:101C4E0032657B017A0079637D02121426753504A4
:101C5E00753601753700753863753901753A00753B
:101C6E003B617B017A0079637F0C1208E59000607E
:041C7E00EFF07F0004
:011C8200223F
:10140D009000ADF0A3E508F075300175310075322F
:09141D00AF7A0079AD7B017D027C
:081426008B2C8A2D892E8D2FDD
:10142E007D047F05121ED4121A0C7D807F0A121FB6
:10143E003AE4900076F0900076E0FFC3952F501CB2
:10144E00AB2CAA2DA92E8F8275830012046CFD7F02
:10145E0009121A10900076E004F080DA7D037F0105
:10146E00121A1090007674FFF07F051219A09000EA
:10147E0077EFF0900076E014F0E06005A3E030E244
:10148E00E87F221219A0AB30AA31A932EF120499CB
:10149E007F211219A0AB30AA31A932900001EF02C0
:0214AE0004AB8D
:101D6A007D0F7F01121A10007D3D7F11121A107D1E
:101D7A001E7F2D121A10E4FD7F2C121A107D8D7F02
:101D8A002A121A107D3E7F2B121A107D407F1512DF
:051D9A001A107F002279
:1019A000E4900081F0C2AFD2C1C291EF25E0547E35
:1019B0004480900080F090007F7408F0900080E0F8
:1019C000FF30E703D38001C3B392C2C2C1EF25E069
:1019D000900080F0D2C190007FE014F0E070DD90C4
:1019E000007F7408F0C2C1900081E025E0F03090E3
:1019F00004E04401F0D2C190007FE014F0E070E513
:0B1A0000D291D2C1D2AF900081E0FF74
:011A0B0022B8
:041A0C00E4FD7F0175
:101A1000C2AFD2C1C291EF25E0547E900080F09019
:101A2000007F7408F0900080E0FF30E703D380016E
:101A3000C3B392C2C2C1EF25E0900080F0D2C19042
:101A4000007FE014F0E070DD90007F7408F0ED306E
:101A5000E703D38001C3B392C2C2C1ED25E0FDD23A
:101A6000C190007FE014F0E070E4D291D2C1D2AF17
:011A70002253
:021F3A00AE07F0
:101F3C00E490007EF01219A090007EEFF0AF064DF9
:041F4C00FD021A1068
:041ED0007D087F0802
:021ED400AE0757
:101ED600E490007EF01219A090007EEFF0FCAF06B1
:071EE600EDF45CFD021A108F
:1008C8007535047536017537007538AD753901759C
:0D08D8003A00753BAA7A0079AD7B017F0CD8
:0808E5008F318B328A33893414
:1008ED0090007774FEF0E4A3F0A3F0E53124F460FA
:1008FD001024FE70169000787412F0A37410F0801E
:10090D000A9000787477F0A37430F0900078E0448A
:10091D0080FD7F02121A107D807F04121ED4121AE0
:10092D000C7D807F0A121F3AE490007CF0A3F090BA
:10093D00007CE0FCA3E0FDC39535EC94005023ABA7
:10094D0032AA33A9348D828C8312046CFD7F091277
:10095D001A1090007DE004F070D590007CE004F05A
:10096D0080CDAD317F01121A10E531B40C077D80B9
:10097D007F0D121F3A90007C7402F0A37458F07F23
:10098D00041219A090007BEFF090007DE024FFF0A1
:10099D0090007CE034FFF0E07002A3E06011900065
:1009AD007BE0FF20E009900079E0FEEF5E60D07DF6
:1009BD00807F0D121ED490007CE07002A3E07003C6
:1009CD00020AAD7F061219A0EF541B6003020AA79D
:1009DD00900077F0A3E0FF90007BE05F30E00690A1
:1009ED00007774FFF0E531640C6003020AAD7F0AF5
:1009FD001219A090007BEFF07F0C1219A0EF540795
:100A0D0090007AF06026A3E024FFFFE434FFFEEFB0
:100A1D007803C333CE33CED8F9FF90007AE07C0053
:100A2D002FFFEC3EAB39AA3AA93B801190007BE039
:100A3D0075F008A4FFAB39AA3AA93BE5F08FF01287
:100A4D00052290007BE0700204F090007BE0D394CF
:100A5D001240037412F0E490007CF0A3F090007B40
:100A6D00E0FFC390007DE09F90007CE0940050304B
:100A7D007F091219A0AB36AA37A93890007CE0FC8B
:100A8D00A3E0F5828C83EF1204AB90007DE004F0BF
:100A9D0070CB90007CE004F080C390007774FEF082
:0F0AAD007D807F0C121F3A121A0C900077E0FF29
:010ABC002217
:101F50007F141219A0900058EFF0540370077D030E
:051F60007F14121F3A7E
:011F65002259
:071FE6007D037F14021ED4ED
:1016F8004100D0004100D4004100CE004100D1009B
:101708004100D3004100CF004100D2004100CB008E
:0B1FC800759D9C75BC88D2ADD2AF2285
:071FED007B017A0079BF229D
:101A7100EF70089000D4E05401FF22BF010A9000EA
:101A8100D4E05402C313FF22BF020C9000D4E054EF
:101A9100041313543FFF22BF030D9000D4E05408F8
:101AA100131313541FFF22BF040B9000D4E05410F2
:101AB100C4540FFF22BF050C9000D4E05420C4137E
:071AC1005407FF227F002201
:03002B0002064288
:10064200C0E0C0F0C083C082C0D075D000C002C07C
:1006520004C005C006C0079000D0E0FD7017AFBD12
:10066200EF75F004A4FFACBEEC7A002FFEEA35F081
:100672009000BF806EEDB40115AFBDEF75F004A41C
:10068200ADBE7C002DFEEC35F09000C1805590008F
:10069200D0E0FDB40217AFBDEF75F004A4FFACBE0D
:1006A200EC7A002FFEEA35F09000C38036EDB403F9
:1006B20015AFBDEF75F004A4ADBE7C002DFEEC3588
:1006C200F09000C5801D9000D0E0FDB4041CAFBDC9
:1006D200EF75F004A4FFACBEEC7A002FFEEA35F011
:1006E2009000C7F0A3CEF00208A7ED6407600302F2
:1006F20008A7AFBDEF75F004A4ADBE7C002DFEECE3
:1007020035F09000C9F0A3CEF09000C9E0FEA3E05E
:10071200FFC3EE9400402FD3EF9410EE94005026C6
:100722009000CEE0FDB414109000D4E04401F090AB
:100732000087E04420F08006EDC39414500D900031
:10074200CEE004F080059000CEE4F09000C9E0FE17
:10075200A3E0FFC3948BEE9400402FD3EF94ABEE53
:10076200940050269000D1E0FDB414109000D4E023
:100772004402F0900087E04420F08006EDC3941418
:10078200500D9000D1E004F080059000D1E4F0908B
:1007920000C9E0FEA3E0FFC39420EE9401402DD3F4
:1007A200EF9440EE940150249000D3E0FDB4140E77
:1007B200A3E04404F0900087E04420F08006EDC3FB
:1007C2009414500D9000D3E004F080059000D3E41F
:1007D200F09000C9E0FEA3E0FFC394B9EE9401409B
:1007E2000FD3EF94D9EE940150067C007D01800472
:1007F2007C007D009000CDE025E0FF9000CCE0334E
:100802004CFEEF4DFFEEF0A3EFF0B40012EEB4E0B9
:100812000E9000D4E04408F0900087E04420F0906D
:1008220000C9E0FEA3E0FFC39448EE9402402FD338
:10083200EF9468EE940250269000D2E0FDB41410BA
:100842009000D4E04410F0900087E04420F080064D
:10085200EDC39414500D9000D2E004F08005900096
:10086200D2E4F09000C9E0FEA3E0FFC394D3EE947B
:1008720002402DD3EF94F3EE94025024A3E0FDB492
:1008820014109000D4E04420F0900087E04420F05F
:100892008006EDC39414500D9000CBE004F0800567
:1008A2009000CBE4F09000D0E0045407F02488F5E7
:1008B200BCD007D006D005D004D002D0D0D082D090
:0608C20083D0F0D0E0320B
:101D33003F065B4F666D7D077F6F777C395E7971F8
:101D4300BF86DBCFE6EDFD87FFEF3D760F0E7538DF
:101D530037545C73673149783E1C7E646E5A00FFCA
:071D6300F7FCB9DEF9F140C5
:041718004100F31089
:0C1FBC00E4F5957596FFF5937594FF22EF
:061FF4009000F2EFF02264
:10116000EF3395E0FE74332FF582741D3EF583E472
:10117000939000EAF0AF05EF3395E0FE74332FF55E
:1011800082741D3EF583E4939000EBF0AF03EF33E0
:1011900095E0FE74332FF582741D3EF583E4939041
:1011A00000ECF0AF25EF3395E0FE74332FF5827439
:1011B0001D3EF583E4939000EDF0AF26EF3395E00C
:1011C000FE74332FF582741D3EF583E4939000EE98
:1011D000F0AF27EF3395E0FE74332FF582741D3E98
:1011E000F583E4939000EFF0AF28EF3395E0FE74C1
:1011F000332FF582741D3EF583E4939000F0F0AF39
:1012000029EF3395E0FE74332FF582741D3EF5838C
:07121000E4939000F1F022CD
:100ABD008F0F8E0E8D0D8C0C7B807A967998780029
:100ACD0012057DE47B0AFAF9F812057D74332BF5D6
:100ADD0082741D3AF583E4939000EAF07B407A42EC
:100AED00790F7800AF0FAE0EAD0DAC0C12057DE495
:100AFD007B0AFAF9F812057D74332BF582741D3AD1
:100B0D00F583E4939000EBF07BA07A867901780071
:100B1D00AF0FAE0EAD0DAC0C12057DE47B0AFAF9EC
:100B2D00F812057D74332BF582741D3AF583E49329
:100B3D009000ECF0E47B107A27F9F8AF0FAE0EAD14
:100B4D000DAC0C12057DE47B0AFAF9F812057D74E3
:100B5D00332BF582741D3AF583E4939000EDF0E4A8
:100B6D007BE87A03F9F8AF0FAE0EAD0DAC0C1205A4
:100B7D007DE47B0AFAF9F812057D74332BF5827446
:100B8D001D3AF583E4939000EEF0E47B64FAF9F8F6
:100B9D00AF0FAE0EAD0DAC0C12057DE47B0AFAF96C
:100BAD00F812057D74332BF582741D3AF583E493A9
:100BBD009000EFF0E47B0AFAF9F8AF0FAE0EAD0D31
:100BCD00AC0C12057DE47B0AFAF9F812057D74333D
:100BDD002BF582741D3AF583E4939000F0F0E47BDD
:100BED000AFAF9F8AF0FAE0EAD0DAC0C12057D740F
:100BFD00332BF582741D3AF583E4939000F1F022C6
:0F1F9E0074EA2FF582E43400F583E02480F0220A
:101C83009000F3E030E312E5A054F72408F5A090A8
:101C930000F2E0F580E4A3F0229000F3E0FF5407A4
:101CA300FEE5A054F02EF5A074EA2EF582E434008C
:0E1CB300F583E0F580EF04540F9000F3F0226B
:101EED00EF70089000FEE05401FF22BF010A900040
:0B1EFD00FEE05402C313FF227F00220E
:10171C005E008900000000000000000000000000D6
:10172C0000000000000000000000000000000000AD
:10173C00004200860000410085004200A700000224
:0B174C001000004100830041008400F9
:101EB200EF25E025E0FFE58954F02F2410F589E5B0
:0E1EC2008E547F2480F58ED28CD2A9D2AF220E
:101F6600438E805389F0758ACD758CD4C28DD28C00
:051F7600D2A9D2AF2248
:0B1FD300D2AFD2A8D2AAD288D28A22B4
:061FFA00121FD3021F6656
:101E9100EF3395E0FE90008975F003EF120630EE06
:101EA10075F003A42583F583EBF0A3EAF0A3E9F031
:011EB100220E
:1014B000900087E030E020900089E0FBA3E0FAA3F1
:1014C000E0F9EA494B600312063CE49000FEF0901C
:1014D0000087E06401F022900087E030E41B900078
:1014E00095E0FBA3E0FAA3E0F9EA494B600312069A
:1014F0003C900087E06410F022900087E030E52007
:10150000900098E0FBA3E0FAA3E0F9EA494B6003FE
:1015100012063CE49000D4F0900087E06420F022B2
:10152000900087E030E71A90009EE0FBA3E0FAA36A
:10153000E0F9EA494B600312063C900087E06480C2
:02154000F02297
:100D2A001214B0900085E064016003020E31758AE6
:100D3A00CD758CD490008CE0FBA3E0FAA3E0F9EA2D
:100D4A00494B600890008CA3A312063C121C832016
:100D5A00B228900083E0FDB40A10900087E0640195
:100D6A00F09000FEE06401F08008C3ED6480948A8C
:100D7A00500D900083E004F08005E4900083F02099
:100D8A00B328900084E0FDB40A10900087E0640163
:100D9A00F09000FEE06402F08008C3ED6480948A5B
:100DAA00500D900084E004F08005E4900084F0AED9
:100DBA0010AF117C007D0A1204CDED4C7013900027
:100DCA008FE0FBA3E0FAA3E0F9EA494B60031206BD
:100DDA003CAE10AF117C007D641204CDED4C701353
:100DEA00900092E0FBA3E0FAA3E0F9EA494B600322
:100DFA0012063CAE10AF117C037DE81204CDED4C17
:100E0A00701890009BE0FBA3E0FAA3E0F9EA494BD3
:100E1A00600312063CE4F510F5110511E5117002A4
:070E2A000510E4900085F0C3
:010E3100229E
:03000B00021F7B56
:101F7B00C0E0C083C0829000857401F0D082D08312
:031F8B00D0E03271
:03000300020007F1
:0100070032C6
:03001300020008E0
:0100080032C5
:101CFB00000004B0000000E800000960000000F4E0
:101D0B00000012C0000000FA00002580000000FD5A
:101D1B0000004B00000000FE00009600000000FFDA
:081D2B000000E100000000FFD0
:101757004100FA004100F8004100F7004100F9009C
:081AC8008F298E288D278C2642
:101AD000E4900058F0900058E0FFC39407503BEFAB
:101AE00075F008A424FBF582E4341CF5831206206B
:101AF000AB29AA28A927A826C312060F70149000A4
:101B000058E075F008A424FFF582E4341CF5830244
:0C1B10000620900058E004F080BB7FFD30
:011B1C0022A6
:101D9F008F258E248D238C22759850E589540F241E
:101DAF0020F589AF25AE24AD23AC22121AC89000BE
:101DBF00F9EFF0F58DF58BD28E538EFED2ACD2AFFC
:011DCF0022F1
:101F0800AF051DEF6013120453F5993099FDC2997E
:0A1F1800740129F9E43AFA80E72287
:101E25009000F4EBF0A3EAF0A3E9F09000FBE526BF
:101E3500F0A3E527F0A3E528F09000FAEDF0900077
:051E4500F8E529F02280
:101B1D00E4900082F09000F8E0FF900082E0FEC3B8
:101B2D009F50359000FBE0FBA3E0FAA3E0F98E8215
:101B3D0075830012046CFF9000F4E0FBA3E0FAA3A0
:101B4D00E0F98E8275830012046C6F60037F0022B2
:0A1B5D00900082E004F080BD7F01DB
:011B6700225B
:030023000217DDE4
:1017DD00C0E0C083C082C0D075D000C000C001C0C1
:1017ED0002C003C006C007309902C29930983F90DD
:1017FD0000FAE0FF9000F7E0FEC39F502F9000F439
:10180D00E0FBA3E0FAA3E0F98E82758300E599125F
:10181D0004AB9000F7E004F0E0C39F400FE4F0123A
:10182D001B1DEF6007900087E04410F0C298D007B1
:10183D00D006D003D002D001D000D0D0D082D0833A
:03184D00D0E032B6
:061E6E00D2CD7F057E00CD
:101E7400EF1FAC0670011E4C601290005E7403F0FC
:0C1E840090005EE0FD14F0ED60E680F4DC
:011E9000222F
:101E4A0090005BEFF090005BE0D394004015A37420
:101E5A007BF090005CE014F0E070F790005BE01417
:031E6A00F080E223
:011E6D002252
:0D00160043C92043CA2043B30143B4012273
:0F1FAD00D2CDD2C0121E70C2C0121E70C2CD2281
:081FDE00C2C0121E6ED2C02227
:021CC100AB076F
:101CC300E490005CF0EB30E704D2C08002C2C0EBCA
:101CD30025E0FB121E70121E6EC2CD90005CE00464
:101CE300F0E0C3940840DED2C0121E70121E6EA232
:071CF300C09200C2CDA20067
:011CFA0022C7
:101BF800E490005DF0D2C090005CF0121E6E900080
:101C08005DE025E0F030C004E04401F0C2CD121ED2
:101C18007090005CE004F0E0C3940840DE300004FB
:101C2800D2C08002C2C0121E70121E6EC2CDD2C0B7
:051C380090005DE0FFDB
:011C3D002284
:021BB000AA0782
:101BB20090005B74A0F0121FAD90005BE0FF121C5E
:101BC200C150028018AF02121CC15002800F121FB6
:101BD200AD90005BE04401FF121CC15006121FDEF3
:101BE2007FFF22D200121BF890005AEFF0121FDE84
:051BF20090005AE0FF25
:011BF70022CB
:041DFC00AA05A90784
:101E000090005A74A0F0121FAD90005AE0FF121C0F
:101E1000C1AF01121CC1AF02121CC1121FDE7F3202
:051E20007E00021E4AD5
:1015DE00021542E493A3F8E493A34003F68001F2CC
:1015EE0008DFF48029E493A3F85407240CC8C3330E
:1015FE00C4540F4420C8834004F456800146F6DFDD
:10160E00E4800B01020408102040809016E7E47E6F
:10161E00019360BCA3FF543F30E509541FFEE493D1
:10162E00A360010ECF54C025E060A840B8E493A398
:10163E00FAE493A3F8E493A3C8C582C8CAC583CAC3
:10164E00F0A3C8C582C8CAC583CADFE9DEE780BE7B
:011767000081
:10035D00E709F608DFFA8046E709F208DFFA803E82
:10036D0088828C83E709F0A3DFFA8032E309F6086F
:10037D00DFFA8078E309F208DFFA807088828C83D7
:10038D00E309F0A3DFFA806489828A83E0A3F6088B
:10039D00DFFA805889828A83E0A3F208DFFA804C65
:1003AD0080D280FA80C680D4806980F2803380103C
:1003BD0080A680EA809A80A880DA80E280CA8033A5
:1003CD0089828A83ECFAE493A3C8C582C8CCC5831D
:1003DD00CCF0A3C8C582C8CCC583CCDFE9DEE780ED
:1003ED000D89828A83E493A3F608DFF9ECFAA9F06C
:1003FD00EDFB2289828A83ECFAE0A3C8C582C8CCC2
:10040D00C583CCF0A3C8C582C8CCC583CCDFEADEDA
:10041D00E880DB89828A83E493A3F208DFF980CC3C
:10042D0088F0EF60010E4E60C388F0ED2402B40435
:10043D000050B9F582EB2402B4040050AF232345DC
:06044D0082239003AD7351
:10045300BB010689828A83E0225002E722BBFE02A7
:09046300E32289828A83E49322DA
:10046C00BB010CE58229F582E5833AF583E0225045
:10047C0006E92582F8E622BBFE06E92582F8E2228F
:0D048C00E58229F582E5833AF583E49322A9
:10049900BB010689828A83F0225002F722BBFE0142
:0204A900F3223C
:1004AB00F8BB010DE58229F582E5833AF583E8F087
:1004BB00225006E92582C8F622BBFE05E92582C833
:0204CB00F2221B
:1004CD00BC000BBE0029EF8DF084FFADF022E4CC13
:1004DD00F875F008EF2FFFEE33FEEC33FCEE9DECDC
:1004ED00984005FCEE9DFE0FD5F0E9E4CEFD22ED22
:1004FD00F8F5F0EE8420D21CFEADF075F008EF2F6C
:10050D00FFED33FD4007985006D5F0F222C398FD5C
:05051D000FD5F0EA22F9
:10052200BB010A89828A83F0E5F0A3F0225006F724
:0F05320009A7F01922BBFE06F3E5F009F3192221
:1005410075F008758200EF2FFFEE33FECD33CDCC71
:1005510033CCC58233C5829BED9AEC99E5829840F4
:100561000CF582EE9BFEED9AFDEC99FC0FD5F0D6D1
:10057100E4CEFBE4CDFAE4CCF9A88222B800C1B9FB
:100581000059BA002DEC8BF084CFCECDFCE5F0CB39
:10059100F97818EF2FFFEE33FEED33FDEC33FCEB72
:1005A10033FB10D703994004EB99FB0FD8E5E4F92D
:1005B100FA227818EF2FFFEE33FEED33FDEC33FC1A
:1005C100C933C910D7059BE99A4007EC9BFCE99A0E
:1005D100F90FD8E0E4C9FAE4CCFB2275F010EF2F53
:1005E100FFEE33FEED33FDCC33CCC833C810D70753
:1005F1009BEC9AE899400AED9BFDEC9AFCE899F88E
:0E0601000FD5F0DAE4CDFBE4CCFAE4C8F92220
:10060F00EB9FF5F0EA9E42F0E99D42F0E89C45F041
:01061F0022B8
:10062000E493FC740193FD740293FE740393FF2220
:0C063000A42582F582E5F03583F58322D5
:06063C008A838982E47349
:00000001FF
