:03000000021729BB
:0C172900787FE4F6D8FD75813B02177054
:102176000102030405060708090A0B0C0D0E0F10D1
:10169C0046003CFFFFFFFFFFFF41003600410035D5
:0D16AC00004100180041005A0041003701C4
:0D1C9F0090004BEFF07B017A0079427D0A46
:061CAC008B228A2389242B
:101CB200E490005EF090005DF090005DE0FFC39D57
:101CC2005020A3E0FEAB22AA23A9248F82758300B1
:101CD2001204A9FFEE6F90005EF090005DE004F048
:071CE20080D790005EE0FFD7
:011CE90022D8
:061BF5008B228A238924E3
:101BFB00E490005BF0A3740AF07B007A0479007F19
:101C0B0052121A0FEF700790005BE04401F0AB2209
:101C1B00AA23A924121022EF700790005BE0440264
:101C2B00F090005BE0FFB40302801390005CE0FED9
:0E1C3B0014F0EE70028007E490005BF080BBB6
:011C49002278
:0618B8007B017A00793883
:0618BE008B228A2389241D
:1018C400E490005DF0A3740AF07B007A0479007F51
:1018D40052121A0FEF700790005DE04401F0AB2242
:1018E400AA23A924121022EF700790005DE044029D
:1018F400F0AB22AA23A9241210DDEF700790005D3B
:10190400E04404F090005DE0B40702801390005EB0
:10191400E0FF14F0EF70028007E490005DF080A90E
:08192400121DC390005DE0FFFD
:01192C002298
:0812F4008F228B238A24892537
:1012FC00E490005DF0A3740AF0AB23AA24A9257F27
:10130C0052121A0FEF700790005DE04401F0AB230E
:10131C00AA24A925121022EF700790005DE0440268
:10132C00F0AB23AA24A9251210DDEF700790005D05
:10133C00E04404F085232E85242F8525307B017A0B
:10134C0000793CAD227F6112124CEF700790005D6A
:10135C00E04408F0AB26AA27A928AF221217B5EF54
:10136C00700790005DE04420F090005DE0B42F0227
:10137C00801490005EE0FF14F0EF70028008E4909F
:0E138C00005DF0021305121DC390005DE0FF2E
:01139A002230
:08139B008F228B238A2489258F
:1013A300E490005DF0A3740AF07B017A00795F7F1B
:1013B30052121A0FEF700790005DE04401F07B01B9
:1013C3007A00795F121022EF700790005DE044020B
:1013D300F07B017A00795F1210DDEF700790005DFA
:1013E300E04404F0752E01752F0075305F7B017AA0
:1013F30000793CAD227F6112124CEF700790005DC3
:10140300E04408F0AB23AA24A925AF22120E67EF0C
:10141300700790005DE04410F090005DE0B41F029F
:10142300801490005EE0FF14F0EF70028008E490F7
:0E143300005DF00213AC121DC390005DE0FFDF
:011441002288
:101B47001221D578297C007D017E007F0C12046A62
:101B57009000447408F0A37403F090002FE0FCA3F6
:101B6700E0FDEC900046F0EDA3F0900031E0FCA31F
:101B7700E0FDEC900048F0EDA3F090002DA3E0907D
:101B8700004AF0E4A3121CA390004CEFF07B017A0B
:071B97000079420D02210359
:101F3000900018E004F0B41E02E4F0900035E0B424
:101F400001227B017A007938121BF5BF030890004B
:101F50005A7401F08005E490005AF0900018E07087
:051F600003121B4722E3
:1019A000900035E06401706690005AE0605090004D
:1019B00037E0FF1221DC900038E0FEC4540FFFEE48
:1019C000540FFDA3E0FEC4540FFBEE540FF525A306
:1019D000E0FEC4540FF526EE540FF527A3E0FEC435
:1019E000540FF528EE540FF529121195900037E0A9
:1019F000FF25E0FEEFC413131354012EF022E4FF81
:0F1A00001221DC7F007E007D007C00120AFA229A
:10183E007F011220E890005BEFF064017048900089
:10184E0035E02401FFE433FE7C007D0312050AAF70
:10185E0005EFF070097F877ED67D12FC8025900003
:10186E0035E0B4010FE4FF1221DC7F007E007D0025
:10187E007C00800F900035E0B4020B7F027E007D6D
:10188E00007C00120AFA900035E0701DFF1220E86D
:10189E0090005BEFF0BF01111218B8BF070B7B0170
:0918AE007A0079387D041221034F
:0118B700220E
:10160B00900035E0600302169BFF121B9E90005B5F
:10161B00EFF0640170427526017527007528197B60
:10162B00017A0079387F141212F4900036EFF064CF
:10163B002F600FE0900044F07B017A0079427D032C
:10164B0080137B017A0079387D041221037B017AA8
:10165B000079197D101221037F03121B9E90005BF2
:10166B00EFF0BF011B7BFF7A2179767F1412139B5E
:10167B00900044EFF07B017A0079427D0312210345
:10168B007F05121B9E90005BEFF0BF0103121B47FF
:01169B00222C
:10002E0090005B74FFF0E4A3F0900035E0700B7B62
:10003E00017A0079007D180203967B017A0079001F
:10004E007D17121CAC900017E06F600302039990AD
:10005E000002E090005BF070661218B8EF64079033
:10006E000044601B7401F0A374FFF0A37402F07BD4
:10007E00017A0079427D05121CAC900047803474E1
:10008E0006F0E4A3F0900038E0900046F0900039BE
:10009E00E0900047F090003AE0900048F090003B6E
:1000AE00E0900049F07B017A0079427D08121CAC89
:1000BE0090004AEFF07B017A0079420D0203969090
:1000CE00005BE0640160030201BA9000447413F017
:1000DE00A37401F0900003E0FF900046F075260136
:1000EE007527007528197B017A0079381212F4EF02
:1000FE00642F601E9000447403F0A374FFF0A37489
:10010E0001F0FB7A0079427D05121CAC900047028B
:10011E0001AE900019E0900047F090001AE09000B8
:10012E0048F090001BE0900049F090001CE0900019
:10013E004AF090001DE090004BF090001EE0900001
:10014E004CF090001FE090004DF0900020E09000E9
:10015E004EF0900021E090004FF0900022E09000D1
:10016E0050F0900023E0900051F0900024E09000B9
:10017E0052F0900025E0900053F0900026E09000A1
:10018E0054F0900027E0900055F0900028E0900089
:10019E0056F07B017A0079427D15121CAC90005707
:1001AE00EFF07B017A0079420D02039690005BE03E
:1001BE006402600302029B900003E0FF7B017A0061
:1001CE00790412139BEF641F900044601C7403F0BB
:1001DE00A374FFF0A37403F07B017A0079427D05CE
:1001EE00121CAC90004702028F7413F0A37402F03D
:1001FE00A314F0900004E0900047F0900005E0900A
:10020E000048F0900006E0900049F0900007E09062
:10021E00004AF0900008E090004BF0900009E0904A
:10022E00004CF090000AE090004DF090000BE09032
:10023E00004EF090000CE090004FF090000DE0901A
:10024E000050F090000EE0900051F090000FE09002
:10025E000052F0900010E0900053F0900011E090EA
:10026E000054F0900012E0900055F0900013E090D2
:10027E000056F07B017A0079427D15121CAC90007D
:10028E0057EFF07B017A0079420D02039690005BE6
:10029E00E0B40303021B4790005BE06404600302BA
:1002AE00033E900003E0FD7F50121FF7900004E024
:1002BE00FD7F51121FF7900005E0FD7F52121FF7D0
:1002CE00900006E0FD7F53121FF7900007E0FD7FC0
:1002DE0054121FF7900008E0FD7F55121FF7900093
:1002EE00447408F0A37404F07F50121D359000463C
:1002FE00EFF07F51121D35900047EFF07F52121D27
:10030E0035900048EFF07F53121D35900049EFF005
:10031E007F54121D3590004AEFF07F55121D351295
:10032E001C9F90004CEFF07B017A0079420D8058B3
:10033E0090005BE0640570539000447408F0A37461
:10034E0005F07F50121D35900046EFF07F51121DC3
:10035E0035900047EFF07F52121D35900048EFF0B8
:10036E007F53121D35900049EFF07F54121D3590CA
:10037E00004AEFF07F55121D35121C9F90004CEF76
:0B038E00F07B017A0079420D12210380
:010399002241
:10211D00EF1FAC0670011E4C600D0000007D0B7CA6
:07212D00BEDCFEDDFC80E9D1
:012134002288
:1014E5001221E21221A41200167F807E257D007C48
:1014F50000121F9A75260175270075284275290265
:101505007B017A0079007D181220201221B07BFF23
:101515007A1979A07F0312208C7BFF7A18793EE433
:10152500FF12208C7BFF7A16790B7F0512208C7BAE
:10153500FF7A00792E7F0412208C7BFF7A1F793089
:101545007F0612208C90004274AAF0A37455F07F98
:10155500151221DC752503752604752705752806E2
:101565007529077B027D01E4FF121195121FCB122D
:041575000D6780FB83
:101FCB00C2AF53B3E143B41E4391015392FE5391FD
:101FDB00FD439202D291D2C1D2C2C290C2C3D2C42B
:0C1FEB00121F651221CE12214BD2AF2232
:081A0F008F298B2A8A2B892CF8
:101A17001220CB7D077F0D121AEA7D037F14122156
:101A270035900066E529F075350175360175370083
:101A3700753866753901753A00753B647A007966C1
:101A470012091E900063EFF07027A3E07004A3E073
:101A57006410701D900066E0AB2AAA2BA92C120413
:101A6700D6900067E0AB2AAA2BA92C90000112049C
:061A7700E8900063E0FFAF
:011A7D002246
:061022008B298A2A892BAC
:10102800E4900065F01220CBE4FD7F0D121AEA7DF2
:10103800807F0E1220CF9000687493F0A37420F084
:10104800753502753601753700753868753901755B
:101058003A00753B667B017A0079687F0C12092299
:10106800900063EFF07061A3F0900064E0FFC39418
:10107800045039E0FE2468F582E43400F583E0ABDF
:1010880029AA2AA92B8E827583001204E89000658C
:10109800E0FE74682FF582E43400F583E0FFEE6F1C
:1010A800900065F0900064E004F080BD900064E07A
:1010B8002468F582E43400F583E0FF900065E06F72
:1010C800600690006374FEF07D807F0E12213590DB
:0410D8000063E0FFD2
:0110DC0022F1
:0610DD008B298A2A892BF1
:1010E3009000677493F0A37470F0E490006DF09037
:1010F3000064F0900064E0FFC394045039AB29AA64
:101103002AA92BE0FEF5827583001204A9FD7469F8
:101113002EF582E43400F583EDF090006DE0FE8F50
:10112300827583001204A9FFEE6F90006DF09000AA
:1011330064E004F080BD75300175310075326E7B5B
:10114300017A0079677D0712145B1220CB7535098C
:10115300753601753700753867753901753A00754D
:101163003B657B017A0079677F0C1209229000634B
:10117300EFF07012900065E07004A3E0641870064D
:10118300900063F0800690006374FEF0900063E0CB
:01119300FF5C
:011194002238
:06124C008B2B8A2C892D7A
:10125200900067EFF0A3EDF0E4900066F0AB2BAAEC
:101262002CA92D900066E0FFF5827583001204A977
:10127200FE74692FF582E43400F583EEF090006687
:10128200E004F0E0B406D6E4900066F0AB2EAA2F9C
:10129200A930900066E0FFF5827583001204A9FE72
:1012A200746F2FF582E43400F583EEF0900066E06F
:1012B20004F0E0B406D675350C7536017537007545
:1012C2003867753901753A00753B647B017A00799C
:1012D200677F0E120922900063EFF070097F0812F7
:1012E2001A7EEF20E30690006374FEF0900063E044
:0112F200FFFC
:0112F30022D8
:0617B5008B298A2A892B12
:1017BB009000637430F0A3EFF07530017531007554
:1017CB0032657A00796312145775350475360175D5
:1017DB003700753863753901753A00753B607B01CD
:1017EB007A0079637F0C12092290005FEFF070375B
:1017FB00A3E07004A3E06490702D900062F0900061
:10180B0062E0FF2463F582E43400F583E0AB29AAA0
:10181B002AA92B8F827583001204E8900062E004E2
:10182B00F0E0B410D9800690005F74FEF090005F7A
:02183B00E0FFCC
:01183D002288
:060E67008B268A27892872
:100E6D0090006774A0F0A3EFF07530017531007537
:100E7D0032697B017A0079677D0212145B75350446
:100E8D00753601753700753867753901753A007516
:100E9D003B647B017A0079677F0C12092290006315
:100EAD00EFF07014A3E07004A3E06404700A9000E6
:100EBD0067E0540F640A600690006374FEF09000C2
:100ECD0063E06003020F57900066F0AB26AA27A9D6
:100EDD0028900066E0FFF5827583001204A9FE7468
:100EED00672FF582E43400F583EEF0900066E004A0
:100EFD00F0E0B410D67530017531007532777B0195
:100F0D007A0079677D1012145B753512753601758F
:100F1D003700753867753901753A00753B647B018B
:100F2D007A0079677F0C120922900063EFF070143C
:100F3D00A3E07004A3E06404700A900067E0540F0E
:0F0F4D00640A600690006374FEF0900063E0FF9A
:010F5C002272
:080F5D008D088B098A0A890B3B
:100F6500EF1214421209059000ACEFF07014A3E0E3
:100F75007004A3E06404700A9000B0E0540F640AA2
:100F850060069000AC74FEF09000ACE0705A9000E2
:100F9500AFF0AB09AA0AA90B9000AFE0FFF5827587
:100FA50083001204A9FE74B02FF582E43400F583A2
:100FB500EEF09000AFE004F0E0B410D675300175A6
:100FC50031007532B47B017A0079B07D0412145B6F
:100FD500E49000ADF0A3F07535061209089000AC59
:100FE500EFF064FE6002E4F09000ACE0702974B0AC
:100FF5001214421209059000ACEFF07014A3E070D2
:1010050004A3E06404700A9000B0E0540F640A6021
:0C101500069000AC74FEF09000ACE0FF10
:0110210022AC
:020C4A008D0E0D
:100C4C009000DB74C2F0A3EFF075300175310075C4
:100C5C0032DD7B017A0079DB7D0212145B75350481
:100C6C007536017537007538DB753901753A0075C5
:100C7C003BD97B017A0079DB7F0C1209229000D8DA
:100C8C00EFF07014A3E07004A3E06404700A900009
:100C9C00DBE0540F640A60069000D874FEF09000FC
:100CAC00D8E070499000DBF0A3F0A3F0A3F075300E
:100CBC00017531007532DF7B017A0079DB7D04121E
:100CCC00145B7535067536017537007538DB75396B
:100CDC0001753A00753BD97B017A0079DB7F0C12E8
:100CEC0009229000D8EFF064FE6002E4F09000D886
:100CFC00E060037FFE229000DB74B0F0A3E50EF001
:100D0C007530017531007532DD7B017A0079DB7D40
:100D1C000212145B7535047536017537007538DBB6
:100D2C00753901753A00753BD97B017A0079DB7F07
:100D3C000C1209229000D8EFF07014A3E07004A3F9
:100D4C00E06404700A9000DBE0540F640A600690C3
:0A0D5C0000D874FEF09000D8E0FF0C
:010D6600226A
:101DC3009000667450F0E4A3F0753001753100752E
:101DD30032687B017A0079667D0212145B753504E3
:101DE300753601753700753866753901753A0075B2
:101DF3003B647B017A0079667F0C120922900063B1
:041E0300EFF07F007D
:011E070022B8
:101442009000B0F0A3E508F07530017531007532F7
:09145200B27A0079B07B017D0241
:08145B008B2C8A2D892E8D2FA8
:101463007D047F051220CF121AE67D807F0A1221A8
:1014730035E4900079F0900079E0FFC3952F501C7C
:10148300AB2CAA2DA92E8F827583001204A9FD7F90
:1014930009121AEA900079E004F080DA7D037F01F3
:1014A300121AEA90007974FFF07F05121A7E9000F9
:1014B3007AEFF0900079E014F0E06005A3E030E209
:1014C300E87F22121A7EAB30AA31A932EF1204D67A
:1014D3007F21121A7EAB30AA31A932900001EF02AC
:0214E30004E81B
:101F65007D0F7F01121AEA007D3D7F11121AEA7D6D
:101F75001E7F2D121AEAE4FD7F2C121AEA7D8D7F51
:101F85002A121AEA7D3E7F2B121AEA7D407F15122E
:051F95001AEA7F0022A2
:101A7E00E4900084F0D2C1C291EF25E0547E448000
:101A8E00900083F09000827408F0900083E0FF30A5
:101A9E00E703D38001C3B392C2C2C1EF25E0900029
:101AAE0083F0D2C1900082E014F0E070DD900082ED
:101ABE007408F0C2C1900084E025E0F0309004E09C
:101ACE004401F0D2C1900082E014F0E070E5D291B2
:071ADE00D2C1900084E0FF7B
:011AE50022DE
:041AE600E4FD7F019B
:101AEA00D2C1C291EF25E0547E900083F09000822B
:101AFA007408F0900083E0FF30E703D38001C3B39A
:101B0A0092C2C2C1EF25E0900083F0D2C190008258
:101B1A00E014F0E070DD9000827408F0ED30E70325
:101B2A00D38001C3B392C2C2C1ED25E0FDD2C190F8
:0C1B3A000082E014F0E070E4D291D2C10F
:011B4600227C
:02213500AE07F3
:10213700E4900081F0121A7E900081EFF0AF064D17
:04214700FD021AEA91
:0420CB007D087F0805
:0220CF00AE075A
:1020D100E4900081F0121A7E900081EFF0FCAF06CF
:0720E100EDF45CFD021AEAB8
:100905007535047536017537007538B0753901755B
:0D0915003A00753BAD7A0079B07B017F0C94
:080922008F318B328A338934D6
:10092A0090007A74FEF0E4A3F0A3F0E53124F460B9
:10093A001024FE701690007B7412F0A37410F080DD
:10094A000A90007B7477F0A37430F090007BE04447
:10095A0080FD7F02121AEA7D807F041220CF121ACC
:10096A00E67D807F0A122135E490007FF0A3F090A3
:10097A00007FE0FCA3E0FDC39535EC94005023AB67
:10098A0032AA33A9348D828C831204A9FD7F0912FD
:10099A001AEA900080E004F070D590007FE004F03D
:1009AA0080CDAD317F01121AEAE531B40C077D80A2
:1009BA007F0D12213590007F7402F0A37458F07FE6
:1009CA0004121A7E90007EEFF0900080E024FFF07F
:1009DA0090007FE034FFF0E07002A3E06011900025
:1009EA007EE0FF20E00990007CE0FEEF5E60D07DB3
:1009FA00807F0D1220CF90007FE07002A3E0700389
:100A0A00020AEA7F06121A7EEF541B6003020AE406
:100A1A0090007AF0A3E0FF90007EE05F30E006905D
:100A2A00007A74FFF0E531640C6003020AEA7F0A77
:100A3A00121A7E90007EEFF07F0C121A7EEF540796
:100A4A0090007DF06026A3E024FFFFE434FFFEEF70
:100A5A007803C333CE33CED8F9FF90007DE07C0013
:100A6A002FFFEC3EAB39AA3AA93B801190007EE0F9
:100A7A0075F008A4FFAB39AA3AA93BE5F08FF0124A
:100A8A00055F90007EE0700204F090007EE0D3944F
:100A9A001240037412F0E490007FF0A3F090007EFD
:100AAA00E0FFC3900080E09F90007FE09400503008
:100ABA007F09121A7EAB36AA37A93890007FE0FC6C
:100ACA00A3E0F5828C83EF1204E8900080E004F042
:100ADA0070CB90007FE004F080C390007A74FEF03F
:0F0AEA007D807F0C122135121AE690007AE0FF12
:010AF90022DA
:10214B007F14121A7E90005BEFF0540370077D032F
:05215B007F1412213584
:01216000225C
:0721CE007D037F140220CF06
:1016B9004100D3004100D7004100D1004100D400CE
:1016C9004100D6004100D2004100D5004100CE00C2
:0B21B000759D9C75BC88D2ADD2AF229B
:0721D5007B017A0079C222B0
:101B9E00EF70089000D7E05401FF22BF010A9000B9
:101BAE00D7E05402C313FF22BF020C9000D7E054BB
:101BBE00041313543FFF22BF030D9000D7E05408C7
:101BCE00131313541FFF22BF040B9000D7E05410C1
:101BDE00C4540FFF22BF050C9000D7E05420C4134D
:071BEE005407FF227F0022D3
:03002B0002067F4B
:10067F00C0E0C0F0C083C082C0D075D000C002C03F
:10068F0004C005C006C0079000D3E0FD7017AFBDD2
:10069F00EF75F004A4FFACBEEC7A002FFEEA35F044
:1006AF009000C2806EEDB40115AFBDEF75F004A4DC
:1006BF00ADBE7C002DFEEC35F09000C4805590004F
:1006CF00D3E0FDB40217AFBDEF75F004A4FFACBECD
:1006DF00EC7A002FFEEA35F09000C68036EDB403B9
:1006EF0015AFBDEF75F004A4ADBE7C002DFEEC354B
:1006FF00F09000C8801D9000D3E0FDB4041CAFBD86
:10070F00EF75F004A4FFACBEEC7A002FFEEA35F0D3
:10071F009000CAF0A3CEF00208E4ED640760030274
:10072F0008E4AFBDEF75F004A4ADBE7C002DFEEC68
:10073F0035F09000CCF0A3CEF09000CCE0FEA3E01B
:10074F00FFC3EE9400402FD3EF9410EE9400502689
:10075F009000D1E0FDB414109000D7E04401F09068
:10076F00008AE04420F08006EDC39414500D9000F1
:10077F00D1E004F080059000D1E4F09000CCE0FED1
:10078F00A3E0FFC3948BEE9400402FD3EF94ABEE16
:10079F00940050269000D4E0FDB414109000D7E0E0
:1007AF004402F090008AE04420F08006EDC39414D8
:1007BF00500D9000D4E004F080059000D4E4F09048
:1007CF0000CCE0FEA3E0FFC39420EE9401402DD3B4
:1007DF00EF9440EE940150249000D6E0FDB4140E37
:1007EF00A3E04404F090008AE04420F08006EDC3BB
:1007FF009414500D9000D6E004F080059000D6E4DC
:10080F00F09000CCE0FEA3E0FFC394B9EE9401405A
:10081F000FD3EF94D9EE940150067C007D01800434
:10082F007C007D009000D0E025E0FF9000CFE0330A
:10083F004CFEEF4DFFEEF0A3EFF0B40012EEB4E07C
:10084F000E9000D7E04408F090008AE04420F0902A
:10085F0000CCE0FEA3E0FFC39448EE9402402FD3F8
:10086F00EF9468EE940250269000D5E0FDB414107A
:10087F009000D7E04410F090008AE04420F080060A
:10088F00EDC39414500D9000D5E004F08005900056
:10089F00D5E4F09000CCE0FEA3E0FFC394D3EE9438
:1008AF0002402DD3EF94F3EE94025024A3E0FDB455
:1008BF0014109000D7E04420F090008AE04420F01C
:1008CF008006EDC39414500D9000CEE004F0800527
:1008DF009000CEE4F09000D3E0045407F02488F5A4
:1008EF00BCD007D006D005D004D002D0D0D082D053
:0608FF0083D0F0D0E032CE
:101EF9003F065B4F666D7D077F6F777C395E797131
:101F0900BF86DBCFE6EDFD87FFEF3D760F0E753817
:101F190037545C73673149783E1C7E646E5A00FF02
:071F2900F7FCB9DEF9F140FD
:0416D9004100F610C6
:0C21A400E4F5957596FFF5937594FF2205
:0621DC009000F5EFF02277
:10119500EF3395E0FE74F92FF582741E3EF583E476
:1011A500939000EDF0AF05EF3395E0FE74F92FF560
:1011B50082741E3EF583E4939000EEF0AF03EF33A7
:1011C50095E0FE74F92FF582741E3EF583E4939045
:1011D50000EFF0AF25EF3395E0FE74F92FF582743B
:1011E5001E3EF583E4939000F0F0AF26EF3395E0D3
:1011F500FE74F92FF582741E3EF583E4939000F199
:10120500F0AF27EF3395E0FE74F92FF582741E3E9B
:10121500F583E4939000F2F0AF28EF3395E0FE7488
:10122500F92FF582741E3EF583E4939000F3F0AF39
:1012350029EF3395E0FE74F92FF582741E3EF58390
:07124500E4939000F4F02295
:100AFA008F258E248D238C227B807A967998780094
:100B0A001205BAE47B0AFAF9F81205BA74F92BF558
:100B1A0082741E3AF583E4939000EDF07B407A42AA
:100B2A00790F7800AF25AE24AD23AC221205BAE4C2
:100B3A007B0AFAF9F81205BA74F92BF582741E3A8F
:100B4A00F583E4939000EEF07BA07A867901780031
:100B5A00AF25AE24AD23AC221205BAE47B0AFAF91A
:100B6A00F81205BA74F92BF582741E3AF583E493E8
:100B7A009000EFF0E47B107A27F9F8AF25AE24ADA8
:100B8A0023AC221205BAE47B0AFAF9F81205BA7400
:100B9A00F92BF582741E3AF583E4939000F0F0E4A1
:100BAA007BE87A03F9F8AF25AE24AD23AC2212050F
:100BBA00BAE47B0AFAF9F81205BA74F92BF58274C9
:100BCA001E3AF583E4939000F1F0E47B64FAF9F8B5
:100BDA00AF25AE24AD23AC221205BAE47B0AFAF99A
:100BEA00F81205BA74F92BF582741E3AF583E49368
:100BFA009000F2F0E47B0AFAF9F8AF25AE24AD23AF
:100C0A00AC221205BAE47B0AFAF9F81205BA74F9A9
:100C1A002BF582741E3AF583E4939000F3F0E47B9B
:100C2A000AFAF9F8AF25AE24AD23AC221205BA743C
:100C3A00F92BF582741E3AF583E4939000F4F022BE
:0F21860074ED2FF582E43400F583E02480F0221D
:101E49009000F6E030E312E5A054F72408F5A090DD
:101E590000F5E0F580E4A3F0229000F6E0FF5407D6
:101E6900FEE5A054F02EF5A074ED2EF582E43400C1
:0E1E7900F583E0F580EF04540F9000F6F022A0
:1020E800EF7008900101E05401FF22BF010A90013E
:0B20F80001E05402C313FF227F00220E
:1016DD005E008C0000000000000000000000000013
:1016ED0000000000000000000000000000000000ED
:1016FD00004200890000410088004200AA0000025B
:0B170D000C0000410086004100870036
:1020AD00EF25E025E0FFE58954F02F2410F589E5B3
:0E20BD008E547F2480F58ED28CD2A9D2AF2211
:10216100438E805389F0758ACD758CD4C28DD28C03
:05217100D2A9D2AF224B
:0B21BB00D2AFD2A8D2AAD288D28A22CA
:0621E2001221BB02216185
:10208C00EF3395E0FE90008C75F003EF12066DEEC9
:10209C0075F003A42583F583EBF0A3EAF0A3E9F034
:0120AC002211
:1015790090008AE030E02090008CE0FBA3E0FAA321
:10158900E0F9EA494B6003120679E4900101F09011
:10159900008AE06401F02290008AE030E41B9000A8
:1015A90098E0FBA3E0FAA3E0F9EA494B60031206CD
:1015B9007990008AE06410F02290008AE030E520FA
:1015C90090009BE0FBA3E0FAA3E0F9EA494B600332
:1015D900120679E49000D7F090008AE06420F022A6
:1015E90090008AE030E71A9000A1E0FBA3E0FAA39B
:1015F900E0F9EA494B600312067990008AE06480B9
:02160900F022CD
:100D6700121579900088E064016003020E66758AA7
:100D7700CD758CD490008FE0FBA3E0FAA3E0F9EAED
:100D8700494B600312067920B228900086E0FDB433
:100D97000A1090008AE06401F0900101E06401F01C
:100DA7008008C3ED6480948A500D900086E004F0BB
:100DB7008005E4900086F020B328900087E0FDB41A
:100DC7000A1090008AE06401F0900101E06402F0EB
:100DD7008008C3ED6480948A500D900087E004F08A
:100DE7008005E4900087F0AE0CAF0D7C007D0A1201
:100DF700050AED4C7013900092E0FBA3E0FAA3E024
:100E0700F9EA494B6003120679AE0CAF0D7C007D01
:100E17006412050AED4C7013900095E0FBA3E0FA0D
:100E2700A3E0F9EA494B6003120679AE0CAF0D7CDB
:100E3700037DE812050AED4C701890009EE0FBA3B5
:100E4700E0FAA3E0F9EA494B6003120679E4F50CEE
:0F0E5700F50D050DE50D7002050CE4900088F017
:010E66002269
:03000B00021E08CA
:101E0800C0E0C0F0C083C082C0D075D000C000C0A0
:101E180001C002C003C004C005C006C00790008806
:101E28007401F0121E49D007D006D005D004D003A3
:101E3800D002D001D000D0D0D082D083D0F0D0E072
:011E48003267
:03000300020006F2
:0100060032C7
:03001300020007E1
:0100070032C6
:101EC100000004B0000000E800000960000000F418
:101ED100000012C0000000FA00002580000000FD93
:101EE10000004B00000000FE00009600000000FF13
:081EF1000000E100000000FF09
:101718004100FD004100FB004100FA004100FC00CF
:081C4A008F298E288D278C26BE
:101C5200E490005BF090005BE0FFC39407503BEF21
:101C620075F008A424C1F582E4341EF58312065DE2
:101C7200AB29AA28A927A826C312064C70149000E3
:101C82005BE075F008A424C5F582E4341EF58302F6
:0C1C9200065D90005BE004F080BB7FFD6D
:011C9E002223
:101F9A008F258E248D238C22759850E589540F2421
:101FAA0020F589AF25AE24AD23AC22121C4A90003D
:101FBA00FCEFF0F58DF58BD28E538EFED2ACD2AFFC
:011FCA0022F4
:10210300AF051DEF6013120490F5993099FDC29944
:0A211300740129F9E43AFA80E7228A
:102020009000F7EBF0A3EAF0A3E9F09000FEE526BC
:10203000F0A3E527F0A3E528F09000FDEDF0900077
:05204000FBE529F02280
:101CEA00E4900085F09000FBE0FF900085E0FEC3E1
:101CFA009F50359000FEE0FBA3E0FAA3E0F98E8244
:101D0A007583001204A9FF9000F7E0FBA3E0FAA391
:101D1A00E0F98E827583001204A96F60037F0022A6
:0A1D2A00900085E004F080BD7F0109
:011D3400228C
:0300230002192D92
:10192D00C0E0C083C082C0D075D000C000C001C06F
:10193D0002C003C006C007309902C29930983F908B
:10194D0000FDE0FF9000FAE0FEC39F502F9000F7DE
:10195D00E0FBA3E0FAA3E0F98E82758300E599120E
:10196D0004E89000FAE004F0E0C39F400FE4F012A9
:10197D001CEAEF600790008AE04410F0C298D0078F
:10198D00D006D003D002D001D000D0D0D082D083E9
:03199D00D0E03265
:06206900D2CD7F057E00D0
:10206F00EF1FAC0670011E4C60129000617403F0FC
:0C207F00900061E0FD14F0ED60E680F4DC
:01208B002232
:1020450090005EEFF090005EE0D394004015A3741D
:102055007BF090005FE014F0E070F790005EE01414
:03206500F080E226
:012068002255
:0D00160043C92043CA2043B30143B4012273
:0F219500D2CDD2C012206BC2C012206BC2CD229D
:0821C600C2C0122069D2C02240
:021E8700AB07A7
:101E8900E490005FF0EB30E704D2C08002C2C0EBFF
:101E990025E0FB12206B122069C2CD90005FE0049F
:101EA900F0E0C3940840DED2C012206B122069A270
:071EB900C09200C2CDA2009F
:011EC00022FF
:101D7D00E4900060F0D2C090005FF01220699000F6
:101D8D0060E025E0F030C004E04401F0C2CD122047
:101D9D006B90005FE004F0E0C3940840DE30000477
:101DAD00D2C08002C2C012206B122069C2CDD2C037
:051DBD00900060E0FF52
:011DC20022FE
:021D3500AA07FB
:101D370090005E74A0F012219590005EE0FF121EE5
:101D47008750028018AF02121E875002800F12219F
:101D57009590005EE04401FF121E8750061221C6CF
:101D67007FFF22D200121D7D90005DEFF01221C689
:051D770090005DE0FF9B
:011D7C002244
:041FF700AA05A90787
:101FFB0090005D74A0F012219590005DE0FF121E21
:10200B0087AF01121E87AF02121E871221C67F32C5
:05201B007E00022045DB
:101735000214E5E493A3F8E493A34003F68001F2D1
:1017450008DFF48029E493A3F85407240CC8C333B5
:10175500C4540F4420C8834004F456800146F6DF84
:10176500E4800B010204081020408090169CE47E62
:10177500019360BCA3FF543F30E509541FFEE49379
:10178500A360010ECF54C025E060A840B8E493A340
:10179500FAE493A3F8E493A3C8C582C8CAC583CA6B
:1017A500F0A3C8C582C8CAC583CADFE9DEE780BE23
:0117280000C0
:10039A00E709F608DFFA8046E709F208DFFA803E45
:1003AA0088828C83E709F0A3DFFA8032E309F60832
:1003BA00DFFA8078E309F208DFFA807088828C839A
:1003CA00E309F0A3DFFA806489828A83E0A3F6084E
:1003DA00DFFA805889828A83E0A3F208DFFA804C28
:1003EA0080D280FA80C680D4806980F280338010FF
:1003FA0080A680EA809A80A880DA80E280CA803368
:10040A0089828A83ECFAE493A3C8C582C8CCC583DF
:10041A00CCF0A3C8C582C8CCC583CCDFE9DEE780AF
:10042A000D89828A83E493A3F608DFF9ECFAA9F02E
:10043A00EDFB2289828A83ECFAE0A3C8C582C8CC84
:10044A00C583CCF0A3C8C582C8CCC583CCDFEADE9D
:10045A00E880DB89828A83E493A3F208DFF980CCFF
:10046A0088F0EF60010E4E60C388F0ED2402B404F8
:10047A000050B9F582EB2402B4040050AF2323459F
:06048A0082239003EA73D7
:10049000BB010689828A83E0225002E722BBFE026A
:0904A000E32289828A83E493229D
:1004A900BB010CE58229F582E5833AF583E0225008
:1004B90006E92582F8E622BBFE06E92582F8E22252
:0D04C900E58229F582E5833AF583E493226C
:1004D600BB010689828A83F0225002F722BBFE0105
:0204E600F322FF
:1004E800F8BB010DE58229F582E5833AF583E8F04A
:1004F800225006E92582C8F622BBFE05E92582C8F6
:02050800F222DD
:10050A00BC000BBE0029EF8DF084FFADF022E4CCD5
:10051A00F875F008EF2FFFEE33FEEC33FCEE9DEC9E
:10052A00984005FCEE9DFE0FD5F0E9E4CEFD22EDE4
:10053A00F8F5F0EE8420D21CFEADF075F008EF2F2E
:10054A00FFED33FD4007985006D5F0F222C398FD1F
:05055A000FD5F0EA22BC
:10055F00BB010A89828A83F0E5F0A3F0225006F7E7
:0F056F0009A7F01922BBFE06F3E5F009F31922E4
:10057E0075F008758200EF2FFFEE33FECD33CDCC34
:10058E0033CCC58233C5829BED9AEC99E5829840B7
:10059E000CF582EE9BFEED9AFDEC99FC0FD5F0D694
:1005AE00E4CEFBE4CDFAE4CCF9A88222B800C1B9BE
:1005BE000059BA002DEC8BF084CFCECDFCE5F0CBFC
:1005CE00F97818EF2FFFEE33FEED33FDEC33FCEB35
:1005DE0033FB10D703994004EB99FB0FD8E5E4F9F0
:1005EE00FA227818EF2FFFEE33FEED33FDEC33FCDD
:1005FE00C933C910D7059BE99A4007EC9BFCE99AD1
:10060E00F90FD8E0E4C9FAE4CCFB2275F010EF2F15
:10061E00FFEE33FEED33FDCC33CCC833C810D70715
:10062E009BEC9AE899400AED9BFDEC9AFCE899F850
:0E063E000FD5F0DAE4CDFBE4CCFAE4C8F922E3
:10064C00EB9FF5F0EA9E42F0E99D42F0E89C45F004
:01065C00227B
:10065D00E493FC740193FD740293FE740393FF22E3
:0C066D00A42582F582E5F03583F5832298
:060679008A838982E4730C
:00000001FF
