:030000000216C322
:0C16C300787FE4F6D8FD75813B02170A21
:102147000102030405060708090A0B0C0D0E0F1000
:10150A00460042FFFFFFFFFFFF41003C0041003B56
:10151A0000410018004100600041003D01460029D9
:06152A00000000000000BB
:101473001221B31221751200167F807E257D007C18
:1014830000121F617526017527007528487529020A
:101493007B017A0079007D18121FE71221817BFFFF
:1014A3007A1979B27F031220757BFF7A1779D8E412
:1014B300FF1220757BFF7A1679327F051220757B28
:1014C300FF7A00792E7F041220757BFF7A1E79F74D
:1014D3007F0612207590004874AAF0A37455F01289
:1014E30020537F151221AD75250375260475270535
:1014F3007528067529077B027D01E4FF121123126B
:071503001F92120CF580FBA2
:081282008F228B238A248925A9
:10128A00E4900063F0A3740AF0AB23AA24A9257F93
:10129A0052121A21EF7007900063E04401F0AB2369
:1012AA00AA24A925120FB0EF7007900063E0440248
:1012BA00F0AB23AA24A92512106BEF7007900063E4
:1012CA00E04404F085232E85242F8525307B017A7E
:1012DA00007942AD227F611211DAEF700790006344
:1012EA00E04408F0AB26AA27A928AF2212174FEF2D
:1012FA007007900063E04420F0900063E0B42F028E
:10130A008014900064E0FF14F0EF70028008E4900B
:0E131A000063F0021293121D8A900063E0FF40
:0113280022A2
:061C07008B228A238924D0
:101C0D00E4900061F0A3740AF07B007A0479007F00
:101C1D0052121A21EF7007900061E04401F0AB22DF
:101C2D00AA23A924120FB0EF7007900061E04402BF
:101C3D00F0900061E0FFB403028013900062E0FEBB
:0E1C4D0014F0EE70028007E4900061F080BB9E
:011C5B002266
:081329008F228B238A24892501
:10133100E4900063F0A3740AF07B017A0079657F81
:1013410052121A21EF7007900063E04401F07B0113
:101351007A007965120FB0EF7007900063E04402E4
:10136100F07B017A00796512106BEF7007900063D2
:10137100E04404F0752E01752F007530657B017A0C
:10138100007942AD227F611211DAEF70079000639C
:10139100E04408F0AB23AA24A925AF22120DF5EFF2
:1013A1007007900063E04410F0900063E0B41F0206
:1013B1008014900064E0FF14F0EF70028008E49064
:0E13C1000063F002133A121D8A900063E0FFF1
:0113CF0022FB
:0618CA007B017A00793E6B
:0618D0008B228A2389240B
:1018D600E4900063F0A3740AF07B007A0479007F39
:1018E60052121A21EF7007900063E04401F0AB2218
:1018F600AA23A924120FB0EF7007900063E04402F8
:10190600F0AB22AA23A92412106BEF700790006394
:10191600E04404F0900063E0B40702801390006492
:10192600E0FF14F0EF70028007E4900063F080A9F6
:08193600121D8A900063E0FF1E
:01193E002286
:10205300E4F522E5222450FF121CFC74292522F505
:1020630082E43400F583EFF00522E522C3940640B1
:01207300E28A
:012074002249
:10185200A3F0900029E090004CF090002AE0900064
:101862004DF090002BE090004EF090002CE09000A4
:101872004FF090002DE0900050F090002EE090008C
:0A18820051F07B017A0079487D0ADD
:06188C008B228A2389244F
:10189200E4900064F0900063F0900063E0FFC39D69
:1018A2005020A3E0FEAB22AA23A9248F82758300D5
:1018B200120437FFEE6F900064F0900063E004F0D2
:0718C20080D7900064E0FFF5
:0118C90022FC
:101B59001221A6782F7C007D017E007F0C1203F8EC
:101B690090004A7408F0A37403F0900035E0FCA3D8
:101B7900E0FDEC90004CF0EDA3F0900037E0FCA301
:101B8900E0FDEC90004EF0EDA3F0900033A3E0905F
:101B99000050F0E4A3121883900052EFF07B017A11
:071BA9000079480D0220EC59
:101EF700900018E004F0B41E02E4F090003BE0B458
:101F070001227B017A00793E121C07BF030890006B
:101F1700607401F08005E4900060F0900018E070B4
:051F270003121B59220A
:1019B20090003BE064017066900060E0605090002F
:1019C2003DE0FF1221AD90003EE0FEC4540FFFEE59
:1019D200540FFDA3E0FEC4540FFBEE540FF525A3F4
:1019E200E0FEC4540FF526EE540FF527A3E0FEC423
:1019F200540FF528EE540FF52912112390003DE003
:101A0200FF25E0FEEFC413131354012EF022E4FF6E
:0F1A12001221AD7F007E007D007C00120A882229
:10002E0090006174FFF0E4A3F090003BE0700B7B56
:10003E00017A0079007D180203247B017A00790091
:10004E007D1712188C900017E06F60030203279043
:10005E000002E0900061F070661218CAEF6407901B
:10006E00004A601B7401F0A374FFF0A37402F07BCE
:10007E00017A0079487D0512188C90004D803474F9
:10008E0006F0E4A3F090003EE090004CF090003FAC
:10009E00E090004DF0900040E090004EF090004156
:1000AE00E090004FF07B017A0079487D0812188CA1
:1000BE00900050EFF07B017A0079480D02032490F6
:1000CE000061E0640160030201BA90004A7413F00B
:1000DE00A37401F0900003E0FF90004CF075260130
:1000EE007527007528197B017A00793E121282EF6E
:1000FE00642F601E90004A7403F0A374FFF0A37483
:10010E0001F0FB7A0079487D0512188C90004D02A3
:10011E0001AE900019E090004DF090001AE09000B2
:10012E004EF090001BE090004FF090001CE090000D
:10013E0050F090001DE0900051F090001EE09000F5
:10014E0052F090001FE0900053F0900020E09000DD
:10015E0054F0900021E0900055F0900022E09000C5
:10016E0056F0900023E0900057F0900024E09000AD
:10017E0058F0900025E0900059F0900026E0900095
:10018E005AF0900027E090005BF0900028E090007D
:10019E005CF07B017A0079487D1512188C90005D19
:1001AE00EFF07B017A0079480D020324900061E0A4
:1001BE006402600302029B900003E0FF7B017A0061
:1001CE007904121329EF641F90004A601C7403F027
:1001DE00A374FFF0A37403F07B017A0079487D05C8
:1001EE0012188C90004D02028F7413F0A37402F05B
:1001FE00A314F0900004E090004DF0900005E09004
:10020E00004EF0900006E090004FF0900007E09056
:10021E000050F0900008E0900051F0900009E0903E
:10022E000052F090000AE0900053F090000BE09026
:10023E000054F090000CE0900055F090000DE0900E
:10024E000056F090000EE0900057F090000FE090F6
:10025E000058F0900010E0900059F0900011E090DE
:10026E00005AF0900012E090005BF0900013E090C6
:10027E00005CF07B017A0079487D1512188C900095
:10028E005DEFF07B017A0079480D02032490006146
:10029E00E0B40303021B59900061E06404705890AF
:1002AE000003E0FD7F50121FBE900004E0FD7F5161
:1002BE00121FBE900005E0FD7F52121FBE90000679
:1002CE00E0FD7F53121FBE900007E0FD7F54121F0A
:1002DE00BE900008E0FD7F55121FBE122053900005
:1002EE004A7408F07404121852900052EFF07B0119
:1002FE007A0079480D801F900061E06405701A90B5
:10030E00004A7408F07405121852900052EFF07BF8
:09031E00017A0079480D1220EC6F
:0103270022B3
:1016320090003BE060030216C2FF121BB0900061F3
:10164200EFF0640170427526017527007528197B39
:10165200017A00793E7F1412128290003CEFF0640E
:101662002F600FE090004AF07B017A0079487D03F9
:1016720080137B017A00793E7D041220EC7B017A93
:101682000079197D101220EC7F03121BB0900061CB
:10169200EFF0BF011B7BFF7A2179477F14121329D8
:1016A20090004AEFF07B017A0079487D031220EC2A
:1016B2007F05121BB0900061EFF0BF0103121B59AE
:0116C2002205
:1017D8007F011220D1900061EFF064017048900001
:1017E8003BE02401FFE433FE7C007D03120498AF44
:1017F80005EFF070097F877ED67D12FC802590006A
:101808003BE0B4010FE4FF1221AD7F007E007D00B4
:101818007C00800F90003BE0B4020B7F027E007DCD
:10182800007C00120A8890003BE0701DFF1220D156
:10183800900061EFF0BF01111218CABF070B7B01BE
:091848007A00793E7D041220ECC7
:011851002274
:101F9200C2AF53B3E143B41E4391015392FE539136
:101FA200FD439202D291D2C1D2C2C290C2C3D2C464
:0C1FB200121F2C12219F12211CD2AF2202
:081A21008F298B2A8A2B892CE6
:101A29001220B47D077F0D121AFC7D037F14122149
:101A39000690006CE529F07535017536017537009A
:101A490075386C753901753A00753B6A7A00796C9D
:101A59001208AC900069EFF07027A3E07004A3E0CE
:101A69006410701D90006CE0AB2AAA2BA92C1204FB
:101A79006490006DE0AB2AAA2BA92C9000011204F6
:061A890076900069E0FF09
:011A8F002234
:060FB0008B298A2A892B1F
:100FB600E490006BF01220B4E4FD7F0D121AFC7D64
:100FC600807F0E1220B890006E7493F0A37420F008
:100FD60075350275360175370075386E75390175C8
:100FE6003A00753B6C7B017A00796E7F0C1208B073
:100FF600900069EFF07061A3F090006AE0FFC3947F
:10100600045039E0FE246EF582E43400F583E0AB4B
:1010160029AA2AA92B8E8275830012047690006B6A
:10102600E0FE746E2FF582E43400F583E0FFEE6F88
:1010360090006BF090006AE004F080BD90006AE0DA
:10104600246EF582E43400F583E0FF90006BE06FD8
:10105600600690006974FEF07D807F0E1221069076
:041066000069E0FF3E
:01106A002263
:06106B008B298A2A892B63
:1010710090006D7493F0A37470F0E4900073F0909D
:10108100006AF090006AE0FFC394045039AB29AACA
:101091002AA92BE0FEF582758300120437FD746FD7
:1010A1002EF582E43400F583EDF0900073E0FE8FBD
:1010B10082758300120437FFEE6F900073F0900089
:1010C1006AE004F080BD7530017531007532747BC2
:1010D100017A00796D7D071213E91220B475350983
:1010E10075360175370075386D753901753A0075BA
:1010F1003B6B7B017A00796D7F0C1208B09000691F
:10110100EFF0701290006BE07004A3E064187006B9
:10111100900069F0800690006974FEF0900069E02B
:01112100FFCE
:0111220022AA
:0611DA008B2B8A2C892DED
:1011E00090006DEFF0A3EDF0E490006CF0AB2BAA53
:1011F0002CA92D90006CE0FFF58275830012043756
:10120000FE746F2FF582E43400F583EEF090006CED
:10121000E004F0E0B406D6E490006CF0AB2EAA2F08
:10122000A93090006CE0FFF582758300120437FE50
:1012300074752FF582E43400F583EEF090006CE0D5
:1012400004F0E0B406D675350C75360175370075B7
:10125000386D753901753A00753B6A7B017A007902
:101260006D7F0E1208B0900069EFF070097F0812D0
:101270001A90EF20E30690006974FEF0900069E098
:01128000FF6E
:01128100224A
:06174F008B298A2A892B78
:101755009000697430F0A3EFF075300175310075B4
:10176500326B7A0079691213E575350475360175A2
:101775003700753869753901753A00753B667B0127
:101785007A0079697F0C1208B0900065EFF0703728
:10179500A3E07004A3E06490702D900068F09000C1
:1017A50068E0FF2469F582E43400F583E0AB29AAFB
:1017B5002AA92B8F82758300120476900068E004B5
:1017C500F0E0B410D9800690006574FEF0900065D5
:0217D500E0FF33
:0117D70022EF
:060DF5008B268A278928E5
:100DFB0090006D74A0F0A3EFF075300175310075A4
:100E0B00326F7B017A00796D7D021213E97535041F
:100E1B0075360175370075386D753901753A007582
:100E2B003B6A7B017A00796D7F0C1208B0900069E8
:100E3B00EFF07014A3E07004A3E06404700A900058
:100E4B006DE0540F640A600690006974FEF0900028
:100E5B0069E06003020EE590006CF0AB26AA27A9AF
:100E6B002890006CE0FFF582758300120437FE7446
:100E7B006D2FF582E43400F583EEF090006CE00406
:100E8B00F0E0B410D675300175310075327D7B0101
:100E9B007A00796D7D101213E9753512753601756F
:100EAB00370075386D753901753A00753B6A7B01F2
:100EBB007A00796D7F0C1208B0900069EFF0701416
:100ECB00A3E07004A3E06404700A90006DE0540F7B
:0F0EDB00640A600690006974FEF0900069E0FF01
:010EEA0022E5
:080EEB008D088B098A0A890BAE
:100EF300EF1213D01208939000B2EFF07014A3E036
:100F03007004A3E06404700A9000B6E0540F640A0E
:100F130060069000B274FEF09000B2E0705A900048
:100F2300B5F0AB09AA0AA90B9000B5E0FFF58275ED
:100F33008300120437FE74B62FF582E43400F58380
:100F4300EEF09000B5E004F0E0B410D67530017512
:100F530031007532BA7B017A0079B67D041213E948
:100F6300E49000B3F0A3F07535061208969000B232
:100F7300EFF064FE6002E4F09000B2E0702974B018
:100F83001213D01208939000B2EFF07014A3E07024
:100F930004A3E06404700A9000B6E0540F640A608E
:0C0FA300069000B274FEF09000B2E0FF77
:010FAF00221F
:020BD8008D0E80
:100BDA009000E174C2F0A3EFF07530017531007531
:100BEA0032E37B017A0079E17D021213E97535045B
:100BFA007536017537007538E1753901753A007532
:100C0A003BDF7B017A0079E17F0C1208B09000DEAD
:100C1A00EFF07014A3E07004A3E06404700A90007B
:100C2A00E1E0540F640A60069000DE74FEF0900062
:100C3A00DEE070499000E1F0A3F0A3F0A3F0753074
:100C4A00017531007532E57B017A0079E17D041284
:100C5A0013E97535067536017537007538E175394A
:100C6A0001753A00753BDF7B017A0079E17F0C124E
:100C7A0008B09000DEEFF064FE6002E4F09000DE5F
:100C8A00E060037FFE229000E174B0F0A3E50EF06D
:100C9A007530017531007532E37B017A0079E17DA7
:100CAA00021213E97535047536017537007538E196
:100CBA00753901753A00753BDF7B017A0079E17F6E
:100CCA000C1208B09000DEEFF07014A3E07004A3D9
:100CDA00E06404700A9000E1E0540F640A60069030
:0A0CEA0000DE74FEF09000DEE0FF73
:010CF40022DD
:101D8A0090006C7450F0E4A3F07530017531007561
:101D9A00326E7B017A00796C7D021213E975350483
:101DAA0075360175370075386C753901753A0075E5
:101DBA003B6A7B017A00796C7F0C1208B09000694B
:041DCA00EFF07F00B7
:011DCE0022F2
:1013D0009000B6F0A3E508F0753001753100753264
:0913E000B87A0079B67B017D02A8
:0813E9008B2C8A2D892E8D2F1B
:1013F1007D047F051220B8121AF87D807F0A122120
:1014010006E490007FF090007FE0FFC3952F501C11
:10141100AB2CAA2DA92E8F82758300120437FD7F74
:1014210009121AFC90007FE004F080DA7D037F014D
:10143100121AFC90007F74FFF07F05121A90900041
:1014410080EFF090007FE014F0E06005A3E030E26F
:10145100E87F22121A90AB30AA31A932EF1204644C
:101461007F21121A90AB30AA31A932900001EF020C
:021471000476FF
:101F2C007D0F7F01121AFC007D3D7F11121AFC7D82
:101F3C001E7F2D121AFCE4FD7F2C121AFC7D8D7F66
:101F4C002A121AFC7D3E7F2B121AFC7D407F151243
:051F5C001AFC7F0022C9
:101A9000E490008AF0D2C1C291EF25E0547E4480E8
:101AA000900089F09000887408F0900089E0FF3081
:101AB000E703D38001C3B392C2C2C1EF25E0900017
:101AC00089F0D2C1900088E014F0E070DD900088C9
:101AD0007408F0C2C190008AE025E0F0309004E084
:101AE0004401F0D2C1900088E014F0E070E5D2919A
:071AF000D2C190008AE0FF63
:011AF70022CC
:041AF800E4FD7F0189
:101AFC00D2C1C291EF25E0547E900089F09000880D
:101B0C007408F0900089E0FF30E703D38001C3B381
:101B1C0092C2C2C1EF25E0900089F0D2C19000883A
:101B2C00E014F0E070DD9000887408F0ED30E7030D
:101B3C00D38001C3B392C2C2C1ED25E0FDD2C190E6
:0C1B4C000088E014F0E070E4D291D2C1F7
:011B5800226A
:02210600AE0722
:10210800E4900087F0121A90900087EFF0AF064D28
:04211800FD021AFCAE
:0420B4007D087F081C
:0220B800AE0771
:1020BA00E4900087F0121A90900087EFF0FCAF06C8
:0720CA00EDF45CFD021AFCBD
:100893007535047536017537007538B675390175C8
:0D08A3003A00753BB37A0079B67B017F0CFB
:0808B0008F318B328A33893449
:1008B80090008074FEF0E4A3F0A3F0E53124F46026
:1008C8001024FE70169000817412F0A37410F0804A
:1008D8000A9000817477F0A37430F0900081E044AE
:1008E80080FD7F02121AFC7D807F041220B8121A44
:1008F800F87D807F0A122106E4900085F0A3F0902D
:100908000085E0FCA3E0FDC39535EC94005023ABD3
:1009180032AA33A9348D828C83120437FD7F0912E1
:100928001AFC900086E004F070D5900085E004F091
:1009380080CDAD317F01121AFCE531B40C077D8002
:100948007F0D1221069000857402F0A37458F07F81
:1009580004121A90900084EFF0900086E024FFF0D3
:10096800900085E034FFF0E07002A3E06011900091
:1009780084E0FF20E009900082E0FEEF5E60D07D19
:10098800807F0D1220B8900085E07002A3E070030C
:10099800020A787F06121A90EF541B6003020A724B
:1009A800900080F0A3E0FF900084E05F30E00690C4
:1009B800008074FFF0E531640C6003020A787F0A56
:1009C800121A90900084EFF07F0C121A90EF5407DF
:1009D800900083F06026A3E024FFFFE434FFFEEFDD
:1009E8007803C333CE33CED8F9FF900083E07C0080
:1009F8002FFFEC3EAB39AA3AA93B8011900084E066
:100A080075F008A4FFAB39AA3AA93BE5F08FF012BC
:100A180004ED900084E0700204F0900084E0D39428
:100A28001240037412F0E4900085F0A3F090008463
:100A3800E0FFC3900086E09F900085E0940050306E
:100A48007F09121A90AB36AA37A938900085E0FCC6
:100A5800A3E0F5828C83EF120476900086E004F020
:100A680070CB900085E004F080C390008074FEF0A5
:0F0A78007D807F0C122106121AF8900080E0FF9B
:010A8700224C
:10211C007F14121A90900061EFF0540370077D0346
:05212C007F14122106E2
:01213100228B
:07219F007D037F140220B84C
:101530004100D9004100DD004100D7004100DA0040
:101540004100DC004100D8004100DB004100D40034
:0B218100759D9C75BC88D2ADD2AF22CA
:0721A6007B017A0079C822D9
:101BB000EF70089000DDE05401FF22BF010A9000A1
:101BC000DDE05402C313FF22BF020C9000DDE0549D
:101BD000041313543FFF22BF030D9000DDE05408AF
:101BE000131313541FFF22BF040B9000DDE05410A9
:101BF000C4540FFF22BF050C9000DDE05420C41335
:071C00005407FF227F0022C0
:03002B0002060DBD
:10060D00C0E0C0F0C083C082C0D075D000C002C0B1
:10061D0004C005C006C0079000D9E0FD7017AFBD3E
:10062D00EF75F004A4FFACBEEC7A002FFEEA35F0B6
:10063D009000C8806EEDB40115AFBDEF75F004A448
:10064D00ADBE7C002DFEEC35F09000CA80559000BB
:10065D00D9E0FDB40217AFBDEF75F004A4FFACBE39
:10066D00EC7A002FFEEA35F09000CC8036EDB40325
:10067D0015AFBDEF75F004A4ADBE7C002DFEEC35BD
:10068D00F09000CE801D9000D9E0FDB4041CAFBDEC
:10069D00EF75F004A4FFACBEEC7A002FFEEA35F046
:1006AD009000D0F0A3CEF0020872ED640760030253
:1006BD000872AFBDEF75F004A4ADBE7C002DFEEC4D
:1006CD0035F09000D2F0A3CEF09000D2E0FEA3E082
:1006DD00FFC3EE9400402FD3EF9410EE94005026FC
:1006ED009000D7E0FDB414109000DDE04401F090CF
:1006FD000090E04420F08006EDC39414500D90005E
:10070D00D7E004F080059000D7E4F09000D2E0FE31
:10071D00A3E0FFC3948BEE9400402FD3EF94ABEE88
:10072D00940050269000DAE0FDB414109000DDE046
:10073D004402F0900090E04420F08006EDC3941444
:10074D00500D9000DAE004F080059000DAE4F090AE
:10075D0000D2E0FEA3E0FFC39420EE9401402DD320
:10076D00EF9440EE940150249000DCE0FDB4140EA3
:10077D00A3E04404F0900090E04420F08006EDC327
:10078D009414500D9000DCE004F080059000DCE442
:10079D00F09000D2E0FEA3E0FFC394B9EE940140C7
:1007AD000FD3EF94D9EE940150067C007D018004A7
:1007BD007C007D009000D6E025E0FF9000D5E03371
:1007CD004CFEEF4DFFEEF0A3EFF0B40012EEB4E0EF
:1007DD000E9000DDE04408F0900090E04420F09091
:1007ED0000D2E0FEA3E0FFC39448EE9402402FD365
:1007FD00EF9468EE940250269000DBE0FDB41410E7
:10080D009000DDE04410F0900090E04420F0800670
:10081D00EDC39414500D9000DBE004F080059000C2
:10082D00DBE4F09000D2E0FEA3E0FFC394D3EE949E
:10083D0002402DD3EF94F3EE94025024A3E0FDB4C7
:10084D0014109000DDE04420F0900090E04420F082
:10085D008006EDC39414500D9000D4E004F0800593
:10086D009000D4E4F09000D9E0045407F02488F50A
:10087D00BCD007D006D005D004D002D0D0D082D0C5
:06088D0083D0F0D0E03240
:101EC0003F065B4F666D7D077F6F777C395E79716A
:101ED000BF86DBCFE6EDFD87FFEF3D760F0E753851
:101EE00037545C73673149783E1C7E646E5A00FF3C
:071EF000F7FCB9DEF9F14037
:041550004100FC104A
:0C217500E4F5957596FFF5937594FF2234
:0621AD009000FBEFF022A0
:10112300EF3395E0FE74C02FF582741E3EF583E421
:10113300939000F3F0AF05EF3395E0FE74C02FF505
:1011430082741E3EF583E4939000F4F0AF03EF3313
:1011530095E0FE74C02FF582741E3EF583E49390F0
:1011630000F5F0AF25EF3395E0FE74C02FF58274E0
:101173001E3EF583E4939000F6F0AF26EF3395E03F
:10118300FE74C02FF582741E3EF583E4939000F73E
:10119300F0AF27EF3395E0FE74C02FF582741E3E47
:1011A300F583E4939000F8F0AF28EF3395E0FE74F5
:1011B300C02FF582741E3EF583E4939000F9F0AFDF
:1011C30029EF3395E0FE74C02FF582741E3EF5833C
:0711D300E4939000FAF02202
:100A88008F258E248D238C227B807A967998780006
:100A9800120548E47B0AFAF9F812054874C02BF5E8
:100AA80082741E3AF583E4939000F3F07B407A4217
:100AB800790F7800AF25AE24AD23AC22120548E4A7
:100AC8007B0AFAF9F812054874C02BF582741E3AAD
:100AD800F583E4939000F4F07BA07A86790178009E
:100AE800AF25AE24AD23AC22120548E47B0AFAF9FF
:100AF800F812054874C02BF582741E3AF583E49306
:100B08009000F5F0E47B107A27F9F8AF25AE24AD14
:100B180023AC22120548E47B0AFAF9F81205487456
:100B2800C02BF582741E3AF583E4939000F6F0E446
:100B38007BE87A03F9F8AF25AE24AD23AC22120581
:100B480048E47B0AFAF9F812054874C02BF5827458
:100B58001E3AF583E4939000F7F0E47B64FAF9F821
:100B6800AF25AE24AD23AC22120548E47B0AFAF97E
:100B7800F812054874C02BF582741E3AF583E49385
:100B88009000F8F0E47B0AFAF9F8AF25AE24AD231B
:100B9800AC22120548E47B0AFAF9F812054874C039
:100BA8002BF582741E3AF583E4939000F9F0E47B08
:100BB8000AFAF9F8AF25AE24AD23AC221205487421
:100BC800C02BF582741E3AF583E4939000FAF02264
:0F21570074F32FF582E43400F583E02480F02246
:101E10009000FCE030E312E5A054F72408F5A09010
:101E200000FBE0F580E4A3F0229000FCE0FF540703
:101E3000FEE5A054F02EF5A074F32EF582E43400F4
:0E1E4000F583E0F580EF04540F9000FCF022D3
:1020D100EF7008900107E05401FF22BF010A90014F
:0B20E10007E05402C313FF227F00221F
:101554005E00920000000000000000000000000097
:101564000000000000000000000000000000000077
:101574000042008F000041008E004200B0000002D3
:0B1584000C000041008C0041008D00B5
:10209600EF25E025E0FFE58954F02F2410F589E5CA
:0E20A6008E547F2480F58ED28CD2A9D2AF2228
:10213200438E805389F0758ACD758CD4C28DD28C32
:05214200D2A9D2AF227A
:0B218C00D2AFD2A8D2AAD288D28A22F9
:0621B30012218C02213212
:10207500EF3395E0FE90009275F003EF1205FBEE4D
:1020850075F003A42583F583EBF0A3EAF0A3E9F04B
:012095002228
:1015A000900090E030E020900092E0FBA3E0FAA3EE
:1015B000E0F9EA494B6003120607E4900107F09056
:1015C0000090E06401F022900090E030E41B900075
:1015D0009EE0FBA3E0FAA3E0F9EA494B60031206A0
:1015E00007900090E06410F022900090E030E52039
:1015F0009000A1E0FBA3E0FAA3E0F9EA494B600305
:10160000120607E49000DDF0900090E06420F022E4
:10161000900090E030E71A9000A7E0FBA3E0FAA367
:10162000E0F9EA494B6003120607900090E06480FD
:02163000F022A6
:100CF5001215A090008EE064016003020DF4758A60
:100D0500CD758CD4900095E0FBA3E0FAA3E0F9EA59
:100D1500494B600312060720B22890008CE0FDB411
:100D25000A10900090E06401F0900107E06401F082
:100D35008008C3ED6480948A500D90008CE004F027
:100D45008005E490008CF020B32890008DE0FDB480
:100D55000A10900090E06401F0900107E06402F051
:100D65008008C3ED6480948A500D90008DE004F0F6
:100D75008005E490008DF0AE0CAF0D7C007D0A126D
:100D85000498ED4C7013900098E0FBA3E0FAA3E003
:100D9500F9EA494B6003120607AE0CAF0D7C007DE6
:100DA50064120498ED4C701390009BE0FBA3E0FAED
:100DB500A3E0F9EA494B6003120607AE0CAF0D7CC0
:100DC500037DE8120498ED4C70189000A4E0FBA395
:100DD500E0FAA3E0F9EA494B6003120607E4F50CD3
:0F0DE500F50D050DE50D7002050CE490008EF084
:010DF40022DC
:03000B00021DCF04
:101DCF00C0E0C0F0C083C082C0D075D000C000C0DA
:101DDF0001C002C003C004C005C006C00790008E3A
:101DEF007401F0121E10D007D006D005D004D00316
:101DFF00D002D001D000D0D0D082D083D0F0D0E0AC
:011E0F0032A0
:03000300020006F2
:0100060032C7
:03001300020007E1
:0100070032C6
:101E8800000004B0000000E800000960000000F451
:101E9800000012C0000000FA00002580000000FDCC
:101EA80000004B00000000FE00009600000000FF4C
:081EB8000000E100000000FF42
:10158F00410103004101010041010000410102003E
:081C5C008F298E288D278C26AC
:101C6400E4900061F0900061E0FFC39407503BEF03
:101C740075F008A42488F582E4341EF5831205EB7C
:101C8400AB29AA28A927A826C31205DA7014900044
:101C940061E075F008A4248CF582E4341EF5830217
:0C1CA40005EB900061E004F080BB7FFDC8
:011CB0002211
:101F61008F258E248D238C22759850E589540F245A
:101F710020F589AF25AE24AD23AC22121C5C900163
:101F810002EFF0F58DF58BD28E538EFED2ACD2AF2F
:011F9100222D
:1020EC00AF051DEF601312041EF5993099FDC299CE
:0A20FC00740129F9E43AFA80E722A2
:101FE7009000FDEBF0A3EAF0A3E9F0900104E526E9
:101FF700F0A3E527F0A3E528F0900103EDF09001A9
:0520070001E529F022B3
:101CB100E490008BF0900101E0FF90008BE0FEC307
:101CC1009F5035900104E0FBA3E0FAA3E0F98E8276
:101CD100758300120437FF9000FDE0FBA3E0FAA337
:101CE100E0F98E827583001204376F60037F002252
:0A1CF10090008BE004F080BD7F013D
:011CFB0022C6
:0300230002193F80
:10193F00C0E0C083C082C0D075D000C000C001C05D
:10194F0002C003C006C007309902C29930983F9079
:10195F000103E0FF900100E0FEC39F502F9000FDB8
:10196F00E0FBA3E0FAA3E0F98E82758300E59912FC
:10197F000476900100E004F0E0C39F400FE4F01202
:10198F001CB1EF6007900090E04410F0C298D007B0
:10199F00D006D003D002D001D000D0D0D082D083D7
:0319AF00D0E03253
:06203000D2CD7F057E0009
:10203600EF1FAC0670011E4C60129000677403F02F
:0C204600900067E0FD14F0ED60E680F40F
:01205200226B
:10200C00900064EFF0900064E0D394004015A3744A
:10201C007BF0900065E014F0E070F7900064E01441
:03202C00F080E25F
:01202F00228E
:0D00160043C92043CA2043B30143B4012273
:0F216600D2CDD2C0122032C2C0122032C2CD223E
:08219700C2C0122030D2C022A8
:021E4E00AB07E0
:101E5000E4900065F0EB30E704D2C08002C2C0EB32
:101E600025E0FB122032122030C2CD900065E00444
:101E7000F0E0C3940840DED2C0122032122030A21B
:071E8000C09200C2CDA200D8
:011E87002238
:101D4400E4900066F0D2C0900065F012203090005C
:101D540066E025E0F030C004E04401F0C2CD12207A
:101D640032900065E004F0E0C3940840DE300004E3
:101D7400D2C08002C2C0122032122030C2CDD2C0E2
:051D8400900066E0FF85
:011D89002237
:021CFC00AA0735
:101CFE0090006474A0F0122166900064E0FF121E42
:101D0E004E50028018AF02121E4E5002800F12214A
:101D1E0066900064E04401FF121E4E500612219799
:101D2E007FFF22D200121D44900063EFF012219724
:051D3E00900063E0FFCE
:011D4300227D
:041FBE00AA05A907C0
:101FC20090006374A0F0122166900063E0FF121E7D
:101FD2004EAF01121E4EAF02121E4E1221977F32D9
:051FE2007E0002200C4E
:1016CF00021473E493A3F8E493A34003F68001F2AA
:1016DF0008DFF48029E493A3F85407240CC8C3331C
:1016EF00C4540F4420C8834004F456800146F6DFEB
:1016FF00E4800B010204081020408090150AE47E5C
:10170F00019360BCA3FF543F30E509541FFEE493DF
:10171F00A360010ECF54C025E060A840B8E493A3A6
:10172F00FAE493A3F8E493A3C8C582C8CAC583CAD1
:10173F00F0A3C8C582C8CAC583CADFE9DEE780BE89
:01159F00004B
:10032800E709F608DFFA8046E709F208DFFA803EB7
:1003380088828C83E709F0A3DFFA8032E309F608A4
:10034800DFFA8078E309F208DFFA807088828C830C
:10035800E309F0A3DFFA806489828A83E0A3F608C0
:10036800DFFA805889828A83E0A3F208DFFA804C9A
:1003780080D280FA80C680D4806980F28033801071
:1003880080A680EA809A80A880DA80E280CA8033DA
:1003980089828A83ECFAE493A3C8C582C8CCC58352
:1003A800CCF0A3C8C582C8CCC583CCDFE9DEE78022
:1003B8000D89828A83E493A3F608DFF9ECFAA9F0A1
:1003C800EDFB2289828A83ECFAE0A3C8C582C8CCF7
:1003D800C583CCF0A3C8C582C8CCC583CCDFEADE10
:1003E800E880DB89828A83E493A3F208DFF980CC72
:1003F80088F0EF60010E4E60C388F0ED2402B4046B
:100408000050B9F582EB2402B4040050AF23234511
:06041800822390037873BB
:10041E00BB010689828A83E0225002E722BBFE02DC
:09042E00E32289828A83E493220F
:10043700BB010CE58229F582E5833AF583E022507A
:1004470006E92582F8E622BBFE06E92582F8E222C4
:0D045700E58229F582E5833AF583E49322DE
:10046400BB010689828A83F0225002F722BBFE0177
:02047400F32271
:10047600F8BB010DE58229F582E5833AF583E8F0BC
:10048600225006E92582C8F622BBFE05E92582C868
:02049600F22250
:10049800BC000BBE0029EF8DF084FFADF022E4CC48
:1004A800F875F008EF2FFFEE33FEEC33FCEE9DEC11
:1004B800984005FCEE9DFE0FD5F0E9E4CEFD22ED57
:1004C800F8F5F0EE8420D21CFEADF075F008EF2FA1
:1004D800FFED33FD4007985006D5F0F222C398FD92
:0504E8000FD5F0EA222F
:1004ED00BB010A89828A83F0E5F0A3F0225006F75A
:0F04FD0009A7F01922BBFE06F3E5F009F3192257
:10050C0075F008758200EF2FFFEE33FECD33CDCCA6
:10051C0033CCC58233C5829BED9AEC99E582984029
:10052C000CF582EE9BFEED9AFDEC99FC0FD5F0D606
:10053C00E4CEFBE4CDFAE4CCF9A88222B800C1B930
:10054C000059BA002DEC8BF084CFCECDFCE5F0CB6E
:10055C00F97818EF2FFFEE33FEED33FDEC33FCEBA7
:10056C0033FB10D703994004EB99FB0FD8E5E4F962
:10057C00FA227818EF2FFFEE33FEED33FDEC33FC4F
:10058C00C933C910D7059BE99A4007EC9BFCE99A43
:10059C00F90FD8E0E4C9FAE4CCFB2275F010EF2F88
:1005AC00FFEE33FEED33FDCC33CCC833C810D70788
:1005BC009BEC9AE899400AED9BFDEC9AFCE899F8C3
:0E05CC000FD5F0DAE4CDFBE4CCFAE4C8F92256
:1005DA00EB9FF5F0EA9E42F0E99D42F0E89C45F077
:0105EA0022EE
:1005EB00E493FC740193FD740293FE740393FF2256
:0C05FB00A42582F582E5F03583F583220B
:060607008A838982E4737E
:00000001FF
