:0300000002169F46
:0C169F00787FE4F6D8FD75813B0216E66A
:1020CF000102030405060708090A0B0C0D0E0F1079
:1016120046003CFFFFFFFFFFFF410036004100355F
:0D162200004100180041005A00410037014E
:0D1C2600E0900056F07B017A0079427D15B8
:061C33008B228A238924A4
:101C3900E490005EF090005DF090005DE0FFC39DD0
:101C49005020A3E0FEAB22AA23A9248F827583002A
:101C590012013DFFEE6F90005EF090005DE004F030
:071C690080D790005EE0FF50
:011C70002251
:061B7C008B228A2389245C
:101B8200E490005BF0A3740AF07B007A0479007F92
:101B920052121985EF700790005BE04401F0AB220E
:101BA200AA23A924120F98EF700790005BE0440269
:101BB200F090005BE0FFB40302801390005CE0FE53
:0E1BC20014F0EE70028007E490005BF080BB30
:011BD00022F2
:06182E007B017A0079380D
:061834008B228A238924A7
:10183A00E490005DF0A3740AF07B007A0479007FDB
:10184A0052121985EF700790005DE04401F0AB2257
:10185A00AA23A924120F98EF700790005DE04402B2
:10186A00F0AB22AA23A924121053EF700790005D4F
:10187A00E04404F090005DE0B40702801390005E3B
:10188A00E0FF14F0EF70028007E490005DF080A999
:08189A00121D4A90005DE0FF01
:0118A2002223
:08126A008F228B238A248925C1
:10127200E490005DF0A3740AF0AB23AA24A9257FB1
:1012820052121985EF700790005DE04401F0AB2324
:10129200AA24A925120F98EF700790005DE044027E
:1012A200F0AB23AA24A925121053EF700790005D1A
:1012B200E04404F085232E85242F8525307B017A96
:1012C20000793CAD227F611211C2EF700790005D80
:1012D200E04408F0AB26AA27A928AF2212172BEF69
:1012E200700790005DE04420F090005DE0B42F02B2
:1012F200801490005EE0FF14F0EF70028008E4902A
:0E130200005DF002127B121D4A90005DE0FFBC
:0113100022BA
:081311008F228B238A24892519
:10131900E490005DF0A3740AF07B017A00795F7FA5
:1013290052121985EF700790005DE04401F07B01CE
:101339007A00795F120F98EF700790005DE0440220
:10134900F07B017A00795F121053EF700790005D0E
:10135900E04404F0752E01752F0075305F7B017A2A
:1013690000793CAD227F611211C2EF700790005DD8
:10137900E04408F0AB23AA24A925AF22120DDDEF22
:10138900700790005DE04410F090005DE0B41F022A
:10139900801490005EE0FF14F0EF70028008E49082
:0E13A900005DF0021322121D4A90005DE0FF6D
:0113B7002213
:101AC50012212E78297C007D017E007F0C1200FEFC
:101AD5009000447408F0A37403F090002FE0FCA379
:101AE500E0FDEC900046F0EDA3F0900031E0FCA3A2
:101AF500E0FDEC900048F0EDA3F090002DA3E09000
:101B0500004AF0E4A3F07B017A0079427D0A121CB9
:101B15003390004CEFF07B017A0079420D022049A9
:101E7600900018E004F0B41E02E4F0900035E0B4DF
:101E860001227B017A007938121B7CBF030890007F
:101E96005A7401F08005E490005AF0900018E07042
:051EA60003121AC52221
:10191600900035E06401706690005AE060509000D7
:1019260037E0FF122135900038E0FEC4540FFFEE79
:10193600540FFDA3E0FEC4540FFBEE540FF525A390
:10194600E0FEC4540FF526EE540FF527A3E0FEC4BF
:10195600540FF528EE540FF52912110B900037E0BD
:10196600FF25E0FEEFC413131354012EF022E4FF0B
:0F1976001221357F007E007D007C00120A68225E
:1017B4007F0112202E90005BEFF0640170489000CE
:1017C40035E02401FFE433FE7C007D0312019EAF6B
:1017D40005EFF070097F877ED67D12FC802590008E
:1017E40035E0B4010FE4FF1221357F007E007D0057
:1017F4007C00800F900035E0B4020B7F027E007DF8
:10180400007C00120A68900035E0701DFF12202E43
:1018140090005BEFF0BF011112182EBF070B7B0184
:091824007A0079387D0412204994
:01182D002298
:10158100900035E06003021611FF121B2590005BED
:10159100EFF0640170427526017527007528197BEB
:1015A100017A0079387F1412126A900036EFF064E4
:1015B1002F600FE0900044F07B017A0079427D03B7
:1015C10080137B017A0079387D041220497B017AEE
:1015D1000079197D101220497F03121B2590005BB1
:1015E100EFF0BF011B7BFF7A2079CF7F141213111B
:1015F100900044EFF07B017A0079427D031220498B
:101601007F05121B2590005BEFF0BF0103121AC585
:0116110022B6
:1003130090005B74FFF0E4A3F07B017A0079007D29
:1003230017121C33900017E06F60030205EC900076
:1003330002E090005BF0705E12182EEF64079000ED
:1003430044601C7401F0A374FFF0A37402F07B01FA
:100353007A0079427D05121C339000470205E07450
:1003630006F0E4A3F0900038E0900046F0900039E6
:10037300E0900047F090003AE0900048F090003B96
:10038300E0900049F07B017A0079427D08121C332A
:1003930090004A0205E090005BE064016003020400
:1003A300709000447413F0A37401F0900003E0FF15
:1003B300900046F07526017527007528197B017A90
:1003C30000793812126AEF642F601E9000447403A0
:1003D300F0A374FFF0A37401F0FB7A0079427D056A
:1003E300121C3390004702046D900019E0900047FF
:1003F300F090001AE0900048F090001BE090004954
:10040300F090001CE090004AF090001DE090004B3B
:10041300F090001EE090004CF090001FE090004D23
:10042300F0900020E090004EF0900021E090004F0B
:10043300F0900022E0900050F0900023E0900051F3
:10044300F0900024E0900052F0900025E0900053DB
:10045300F0900026E0900054F0900027E0900055C3
:10046300F0900028121C269000570205E090005BD4
:10047300E06402600302053B900003E0FF7B017A26
:10048300007904121311EF641F900044601C74037D
:10049300F0A374FFF0A37403F07B017A0079427D2B
:1004A30005121C339000470205387413F0A374023D
:1004B300F0A314F0900004E0900047F0900005E0F2
:1004C300900048F0900006E0900049F0900007E0AB
:1004D30090004AF0900008E090004BF0900009E093
:1004E30090004CF090000AE090004DF090000BE07B
:1004F30090004EF090000CE090004FF090000DE063
:10050300900050F090000EE0900051F090000FE04A
:10051300900052F0900010E0900053F0900011E032
:10052300900054F0900012E0900055F090001312E8
:100533001C269000570205E090005BE0B403030221
:100543001AC590005BE0640460030205EC900003AD
:10055300E0FD7F50121F3D900004E0FD7F51121F0C
:100563003D900005E0FD7F52121F3D900006E0FD27
:100573007F53121F3D900007E0FD7F54121F3D90F3
:100583000008E0FD7F55121F3D9000447408F0A35E
:100593007404F07F50121CBC900046EFF07F5112A0
:1005A3001CBC900047EFF07F52121CBC900048EF38
:1005B300F07F53121CBC900049EFF07F54121CBC17
:1005C30090004AEFF07F55121CBC90004BEFF07B7C
:1005D300017A0079427D0A121C3390004CEFF07BC4
:0905E300017A0079420D12204951
:0105EC0022EC
:10206300EF1FAC0670011E4C600D0000007D0B7C61
:07207300BEDCFEDDFC80E98C
:01207A002243
:10145B0012213B1220FD1200167F807E257D007C21
:10146B0000121EE0752601752700752842752902AA
:10147B007B017A0079007D18121F661221097BFF10
:10148B007A1979167F03121FD27BFF7A1779B4E48E
:10149B00FF121FD27BFF7A1579817F05121FD27B3A
:1014AB00FF7A0379137F04121FD27BFF7A1E7976A2
:1014BB007F06121FD290004274AAF0A37455F07FDE
:1014CB001512213575250375260475270575280614
:1014DB007529077B027D01E4FF12110B121F1112FC
:0414EB000CD580FBA1
:101F1100C2AF53B3E143B41E4391015392FE5391B7
:101F2100FD439202D291D2C1D2C2C290C2C3D2C4E5
:0C1F3100121EAB122127122091D2AF2209
:081985008F298B2A8A2B892C83
:10198D001220117D077F0D121A647D037F14122022
:10199D007B900066E529F0753501753601753700C8
:1019AD00753866753901753A00753B647A0079664C
:1019BD0012088C900063EFF07027A3E07004A3E091
:1019CD006410701D900066E0AB2AAA2BA92C1201A1
:1019DD006A900067E0AB2AAA2BA92C900001120196
:0619ED007C900063E0FFA6
:0119F30022D1
:060F98008B298A2A892B37
:100F9E00E4900065F0122011E4FD7F0D121A647DBD
:100FAE00807F0E1220159000687493F0A37420F0C9
:100FBE0075350275360175370075386875390175E6
:100FCE003A00753B667B017A0079687F0C120890B7
:100FDE00900063EFF07061A3F0900064E0FFC394A3
:100FEE00045039E0FE2468F582E43400F583E0AB6A
:100FFE0029AA2AA92B8E8275830012017C90006586
:10100E00E0FE74682FF582E43400F583E0FFEE6FA6
:10101E00900065F0900064E004F080BD900064E004
:10102E002468F582E43400F583E0FF900065E06FFC
:10103E00600690006374FEF07D807F0E12207B9020
:04104E000063E0FF5C
:01105200227B
:061053008B298A2A892B7B
:101059009000677493F0A37470F0E490006DF090C1
:101069000064F0900064E0FFC394045039AB29AAEE
:101079002AA92BE0FEF58275830012013DFD7469F2
:101089002EF582E43400F583EDF090006DE0FE8FDB
:101099008275830012013DFFEE6F90006DF09000A4
:1010A90064E004F080BD75300175310075326E7BE6
:1010B900017A0079677D071213D11220117535095C
:1010C900753601753700753867753901753A0075D8
:1010D9003B657B017A0079677F0C12089090006369
:1010E900EFF07012900065E07004A3E064187006D8
:1010F900900063F0800690006374FEF0900063E056
:01110900FFE6
:01110A0022C2
:0611C2008B2B8A2C892D05
:1011C800900067EFF0A3EDF0E4900066F0AB2BAA77
:1011D8002CA92D900066E0FFF58275830012013D71
:1011E800FE74692FF582E43400F583EEF090006612
:1011F800E004F0E0B406D6E4900066F0AB2EAA2F27
:10120800A930900066E0FFF58275830012013DFE6B
:10121800746F2FF582E43400F583EEF0900066E0F9
:1012280004F0E0B406D675350C75360175370075CF
:101238003867753901753A00753B647B017A007926
:10124800677F0E120890900063EFF070097F081214
:1012580019F4EF20E30690006374FEF0900063E059
:01126800FF86
:011269002262
:06172B008B298A2A892B9C
:101731009000637430F0A3EFF075300175310075DE
:1017410032657A0079631213CD75350475360175EA
:101751003700753863753901753A00753B607B0157
:101761007A0079637F0C12089090005FEFF0703778
:10177100A3E07004A3E06490702D900062F09000EB
:1017810062E0FF2463F582E43400F583E0AB29AA2B
:101791002AA92B8F8275830012017C900062E004DC
:1017A100F0E0B410D9800690005F74FEF090005F05
:0217B100E0FF57
:0117B3002213
:060DDD008B268A278928FD
:100DE30090006774A0F0A3EFF075300175310075C2
:100DF30032697B017A0079677D021213D17535045C
:100E0300753601753700753867753901753A0075A0
:100E13003B647B017A0079677F0C12089090006332
:100E2300EFF07014A3E07004A3E06404700A900070
:100E330067E0540F640A600690006374FEF090004C
:100E430063E06003020ECD900066F0AB26AA27A9EB
:100E530028900066E0FFF58275830012013DFE7461
:100E6300672FF582E43400F583EEF0900066E0042A
:100E7300F0E0B410D67530017531007532777B011F
:100E83007A0079677D101213D175351275360175A5
:100E93003700753867753901753A00753B647B0116
:100EA3007A0079677F0C120890900063EFF070145A
:100EB300A3E07004A3E06404700A900067E0540F99
:0F0EC300640A600690006374FEF0900063E0FF25
:010ED20022FD
:080ED3008D088B098A0A890BC6
:100EDB00EF1213B81208739000ACEFF07014A3E08C
:100EEB007004A3E06404700A9000B0E0540F640A2D
:100EFB0060069000AC74FEF09000ACE0705A90006D
:100F0B00AFF0AB09AA0AA90B9000AFE0FFF5827511
:100F1B00830012013DFE74B02FF582E43400F5839B
:100F2B00EEF09000AFE004F0E0B410D67530017530
:100F3B0031007532B47B017A0079B07D041213D184
:100F4B00E49000ADF0A3F07535061208769000AC76
:100F5B00EFF064FE6002E4F09000ACE0702974B036
:100F6B001213B81208739000ACEFF07014A3E0707A
:100F7B0004A3E06404700A9000B0E0540F640A60AC
:0C0F8B00069000AC74FEF09000ACE0FF9B
:010F97002237
:020BB8008D0EA0
:100BBA009000DB74C2F0A3EFF07530017531007557
:100BCA0032DD7B017A0079DB7D021213D17535049F
:100BDA007536017537007538DB753901753A007558
:100BEA003BD97B017A0079DB7F0C1208909000D800
:100BFA00EFF07014A3E07004A3E06404700A90009C
:100C0A00DBE0540F640A60069000D874FEF090008E
:100C1A00D8E070499000DBF0A3F0A3F0A3F07530A0
:100C2A00017531007532DF7B017A0079DB7D0412B0
:100C3A0013D17535067536017537007538DB753988
:100C4A0001753A00753BD97B017A0079DB7F0C127A
:100C5A0008909000D8EFF064FE6002E4F09000D8AB
:100C6A00E060037FFE229000DB74B0F0A3E50EF093
:100C7A007530017531007532DD7B017A0079DB7DD3
:100C8A00021213D17535047536017537007538DBD4
:100C9A00753901753A00753BD97B017A0079DB7F9A
:100CAA000C1208909000D8EFF07014A3E07004A31F
:100CBA00E06404700A9000DBE0540F640A60069056
:0A0CCA0000D874FEF09000D8E0FF9F
:010CD40022FD
:101D4A009000667450F0E4A3F075300175310075A7
:101D5A0032687B017A0079667D021213D1753504E7
:101D6A00753601753700753866753901753A00752B
:101D7A003B647B017A0079667F0C120890900063BD
:041D8A00EFF07F00F7
:011D8E002232
:1013B8009000B0F0A3E508F0753001753100753282
:0913C800B27A0079B07B017D02CC
:0813D1008B2C8A2D892E8D2F33
:1013D9007D047F05122015121A607D807F0A122074
:1013E9007BE4900079F0900079E0FFC3952F501CC1
:1013F900AB2CAA2DA92E8F8275830012013DFD7F8A
:1014090009121A64900079E004F080DA7D037F0103
:10141900121A6490007974FFF07F051219F4900094
:101429007AEFF0900079E014F0E06005A3E030E293
:10143900E87F221219F4AB30AA31A932EF12016AFE
:101449007F211219F4AB30AA31A932900001EF02C1
:02145900017C14
:101EAB007D0F7F01121A64007D3D7F11121A647D34
:101EBB001E7F2D121A64E4FD7F2C121A647D8D7F18
:101ECB002A121A647D3E7F2B121A647D407F1512F5
:051EDB001A647F0022E3
:1019F400E4900084F0C2AFD2C1C291EF25E0547EDE
:101A04004480900083F09000827408F0900083E09A
:101A1400FF30E703D38001C3B392C2C2C1EF25E014
:101A2400900083F0D2C1900082E014F0E070DD9069
:101A340000827408F0C2C1900084E025E0F0309088
:101A440004E04401F0D2C1900082E014F0E070E5BB
:0B1A5400D291D2C1D2AF900084E0FF1D
:011A5F002264
:041A6000E4FD7F0121
:101A6400C2AFD2C1C291EF25E0547E900083F090C2
:101A740000827408F0900083E0FF30E703D3800114
:101A8400C3B392C2C2C1EF25E0900083F0D2C190EB
:101A94000082E014F0E070DD9000827408F0ED3014
:101AA400E703D38001C3B392C2C2C1ED25E0FDD2E6
:101AB400C1900082E014F0E070E4D291D2C1D2AFC0
:011AC40022FF
:02207B00AE07AE
:10207D00E4900081F01219F4900081EFF0AF064D5D
:04208D00FD021A64D2
:042011007D087F08BF
:02201500AE0714
:10201700E4900081F01219F4900081EFF0FCAF0614
:07202700EDF45CFD021A64F8
:100873007535047536017537007538B075390175EE
:0D0883003A00753BAD7A0079B07B017F0C27
:080890008F318B328A33893469
:1008980090007A74FEF0E4A3F0A3F0E53124F4604C
:1008A8001024FE701690007B7412F0A37410F08070
:1008B8000A90007B7477F0A37430F090007BE044DA
:1008C80080FD7F02121A647D807F04122015121A9F
:1008D800607D807F0A12207BE490007FF0A3F09077
:1008E800007FE0FCA3E0FDC39535EC94005023ABFA
:1008F80032AA33A9348D828C8312013DFD7F0912FF
:100908001A64900080E004F070D590007FE004F055
:1009180080CDAD317F01121A64E531B40C077D80BA
:100928007F0D12207B90007F7402F0A37458F07F33
:10093800041219F490007EEFF0900080E024FFF09C
:1009480090007FE034FFF0E07002A3E060119000B7
:100958007EE0FF20E00990007CE0FEEF5E60D07D45
:10096800807F0D12201590007FE07002A3E07003D5
:10097800020A587F061219F4EF541B6003020A5248
:1009880090007AF0A3E0FF90007EE05F30E00690F0
:10099800007A74FFF0E531640C6003020A587F0A9C
:1009A8001219F490007EEFF07F0C1219F4EF54073F
:1009B80090007DF06026A3E024FFFFE434FFFEEF03
:1009C8007803C333CE33CED8F9FF90007DE07C00A6
:1009D8002FFFEC3EAB39AA3AA93B801190007EE08C
:1009E80075F008A4FFAB39AA3AA93BE5F08FF012DD
:1009F80001F390007EE0700204F090007EE0D39452
:100A08001240037412F0E490007FF0A3F090007E8F
:100A1800E0FFC3900080E09F90007FE0940050309A
:100A28007F091219F4AB36AA37A93890007FE0FC89
:100A3800A3E0F5828C83EF12017C900080E004F043
:100A480070CB90007FE004F080C390007A74FEF0D1
:0F0A58007D807F0C12207B121A6090007AE0FFE5
:010A6700226C
:102091007F141219F490005BEFF0540370077D0375
:0520A1007F1412207BFA
:0120A6002217
:072127007D037F1402201567
:10162F004100D3004100D7004100D1004100D40058
:10163F004100D6004100D2004100D5004100CE004C
:0B210900759D9C75BC88D2ADD2AF2242
:07212E007B017A0079C22257
:101B2500EF70089000D7E05401FF22BF010A900032
:101B3500D7E05402C313FF22BF020C9000D7E05434
:101B4500041313543FFF22BF030D9000D7E0540840
:101B5500131313541FFF22BF040B9000D7E054103A
:101B6500C4540FFF22BF050C9000D7E05420C413C6
:071B75005407FF227F00224C
:03002B000205EDDE
:1005ED00C0E0C0F0C083C082C0D075D000C002C0D2
:1005FD0004C005C006C0079000D3E0FD7017AFBD65
:10060D00EF75F004A4FFACBEEC7A002FFEEA35F0D6
:10061D009000C2806EEDB40115AFBDEF75F004A46E
:10062D00ADBE7C002DFEEC35F09000C480559000E1
:10063D00D3E0FDB40217AFBDEF75F004A4FFACBE5F
:10064D00EC7A002FFEEA35F09000C68036EDB4034B
:10065D0015AFBDEF75F004A4ADBE7C002DFEEC35DD
:10066D00F09000C8801D9000D3E0FDB4041CAFBD18
:10067D00EF75F004A4FFACBEEC7A002FFEEA35F066
:10068D009000CAF0A3CEF0020852ED640760030299
:10069D000852AFBDEF75F004A4ADBE7C002DFEEC8D
:1006AD0035F09000CCF0A3CEF09000CCE0FEA3E0AE
:1006BD00FFC3EE9400402FD3EF9410EE940050261C
:1006CD009000D1E0FDB414109000D7E04401F090FB
:1006DD00008AE04420F08006EDC39414500D900084
:1006ED00D1E004F080059000D1E4F09000CCE0FE64
:1006FD00A3E0FFC3948BEE9400402FD3EF94ABEEA9
:10070D00940050269000D4E0FDB414109000D7E072
:10071D004402F090008AE04420F08006EDC394146A
:10072D00500D9000D4E004F080059000D4E4F090DA
:10073D0000CCE0FEA3E0FFC39420EE9401402DD346
:10074D00EF9440EE940150249000D6E0FDB4140EC9
:10075D00A3E04404F090008AE04420F08006EDC34D
:10076D009414500D9000D6E004F080059000D6E46E
:10077D00F09000CCE0FEA3E0FFC394B9EE940140ED
:10078D000FD3EF94D9EE940150067C007D018004C7
:10079D007C007D009000D0E025E0FF9000CFE0339D
:1007AD004CFEEF4DFFEEF0A3EFF0B40012EEB4E00F
:1007BD000E9000D7E04408F090008AE04420F090BD
:1007CD0000CCE0FEA3E0FFC39448EE9402402FD38B
:1007DD00EF9468EE940250269000D5E0FDB414100D
:1007ED009000D7E04410F090008AE04420F080069D
:1007FD00EDC39414500D9000D5E004F080059000E9
:10080D00D5E4F09000CCE0FEA3E0FFC394D3EE94CA
:10081D0002402DD3EF94F3EE94025024A3E0FDB4E7
:10082D0014109000D7E04420F090008AE04420F0AE
:10083D008006EDC39414500D9000CEE004F08005B9
:10084D009000CEE4F09000D3E0045407F02488F536
:10085D00BCD007D006D005D004D002D0D0D082D0E5
:06086D0083D0F0D0E03260
:101E3F003F065B4F666D7D077F6F777C395E7971EB
:101E4F00BF86DBCFE6EDFD87FFEF3D760F0E7538D2
:101E5F0037545C73673149783E1C7E646E5A00FFBD
:071E6F00F7FCB9DEF9F140B8
:04164F004100F61050
:0C20FD00E4F5957596FFF5937594FF22AD
:062135009000F5EFF0221E
:10110B00EF3395E0FE743F2FF582741E3EF583E4BA
:10111B00939000EDF0AF05EF3395E0FE743F2FF5A4
:10112B0082741E3EF583E4939000EEF0AF03EF3331
:10113B0095E0FE743F2FF582741E3EF583E4939089
:10114B0000EFF0AF25EF3395E0FE743F2FF582747F
:10115B001E3EF583E4939000F0F0AF26EF3395E05D
:10116B00FE743F2FF582741E3EF583E4939000F1DD
:10117B00F0AF27EF3395E0FE743F2FF582741E3EE0
:10118B00F583E4939000F2F0AF28EF3395E0FE7413
:10119B003F2FF582741E3EF583E4939000F3F0AF7E
:1011AB0029EF3395E0FE743F2FF582741E3EF583D5
:0711BB00E4939000F4F02220
:100A68008F258E248D238C227B807A967998780026
:100A780012024EE47B0AFAF9F812024E743F2BF583
:100A880082741E3AF583E4939000EDF07B407A423D
:100A9800790F7800AF25AE24AD23AC2212024EE4C4
:100AA8007B0AFAF9F812024E743F2BF582741E3A4B
:100AB800F583E4939000EEF07BA07A8679017800C4
:100AC800AF25AE24AD23AC2212024EE47B0AFAF91C
:100AD800F812024E743F2BF582741E3AF583E493A4
:100AE8009000EFF0E47B107A27F9F8AF25AE24AD3B
:100AF80023AC2212024EE47B0AFAF9F812024E7471
:100B08003F2BF582741E3AF583E4939000F0F0E4ED
:100B18007BE87A03F9F8AF25AE24AD23AC221202A4
:100B28004EE47B0AFAF9F812024E743F2BF58274F0
:100B38001E3AF583E4939000F1F0E47B64FAF9F847
:100B4800AF25AE24AD23AC2212024EE47B0AFAF99B
:100B5800F812024E743F2BF582741E3AF583E49323
:100B68009000F2F0E47B0AFAF9F8AF25AE24AD2341
:100B7800AC2212024EE47B0AFAF9F812024E743FD4
:100B88002BF582741E3AF583E4939000F3F0E47B2E
:100B98000AFAF9F8AF25AE24AD23AC2212024E743E
:100BA8003F2BF582741E3AF583E4939000F4F0220B
:0F20DF0074ED2FF582E43400F583E02480F022C5
:101D8F009000F6E030E312E5A054F72408F5A09098
:101D9F0000F5E0F580E4A3F0229000F6E0FF540791
:101DAF00FEE5A054F02EF5A074ED2EF582E434007C
:0E1DBF00F583E0F580EF04540F9000F6F0225B
:10202E00EF7008900101E05401FF22BF010A9001F8
:0B203E0001E05402C313FF227F0022C8
:101653005E008C000000000000000000000000009D
:101663000000000000000000000000000000000077
:10167300004200890000410088004200AA000002E5
:0B1683000C00004100860041008700C1
:101FF300EF25E025E0FFE58954F02F2410F589E56E
:0E2003008E547F2480F58ED28CD2A9D2AF22CB
:1020A700438E805389F0758ACD758CD4C28DD28CBE
:0520B700D2A9D2AF2206
:0B211400D2AFD2A8D2AAD288D28A2271
:06213B001221140220A78E
:101FD200EF3395E0FE90008C75F003EF120301EEF3
:101FE20075F003A42583F583EBF0A3EAF0A3E9F0EF
:011FF20022CC
:1014EF0090008AE030E02090008CE0FBA3E0FAA3AC
:1014FF00E0F9EA494B600312030DE4900101F0900B
:10150F00008AE06401F02290008AE030E41B900032
:10151F0098E0FBA3E0FAA3E0F9EA494B600312035A
:10152F000D90008AE06410F02290008AE030E520F0
:10153F0090009BE0FBA3E0FAA3E0F9EA494B6003BC
:10154F0012030DE49000D7F090008AE06420F0229F
:10155F0090008AE030E71A9000A1E0FBA3E0FAA325
:10156F00E0F9EA494B600312030D90008AE06480B2
:02157F00F02258
:100CD5001214EF900088E064016003020DDC758A50
:100CE500CD758CD490008FE0FBA3E0FAA3E0F9EA80
:100CF500494B600890008FA3A312030D121D8F208E
:100D0500B228900086E0FDB40A1090008AE06401E4
:100D1500F0900101E06401F08008C3ED6480948ADD
:100D2500500D900086E004F08005E4900086F020E8
:100D3500B328900087E0FDB40A1090008AE06401B2
:100D4500F0900101E06402F08008C3ED6480948AAC
:100D5500500D900087E004F08005E4900087F0AE28
:100D65000CAF0D7C007D0A12019EED4C70139000B6
:100D750092E0FBA3E0FAA3E0F9EA494B6003120312
:100D85000DAE0CAF0D7C007D6412019EED4C701311
:100D9500900095E0FBA3E0FAA3E0F9EA494B600374
:100DA50012030DAE0CAF0D7C037DE812019EED4CD8
:100DB500701890009EE0FBA3E0FAA3E0F9EA494B26
:100DC500600312030DE4F50CF50D050DE50D70023C
:070DD500050CE4900088F01A
:010DDC0022F4
:03000B000220BC14
:1020BC00C0E0C083C0829000887401F0D082D083CD
:0320CC00D0E0322F
:03000300020006F2
:0100060032C7
:03001300020007E1
:0100070032C6
:101E0700000004B0000000E800000960000000F4D2
:101E1700000012C0000000FA00002580000000FD4D
:101E270000004B00000000FE00009600000000FFCD
:081E37000000E100000000FFC3
:10168E004100FD004100FB004100FA004100FC005A
:081BD1008F298E288D278C2638
:101BD900E490005BF090005BE0FFC39407503BEF9B
:101BE90075F008A42407F582E4341EF5831202F186
:101BF900AB29AA28A927A826C31202E070149000CD
:101C09005BE075F008A4240BF582E4341EF5830229
:0C1C190002F190005BE004F080BB7FFD56
:011C2500229C
:101EE0008F258E248D238C22759850E589540F24DC
:101EF00020F589AF25AE24AD23AC22121BD1900072
:101F0000FCEFF0F58DF58BD28E538EFED2ACD2AFB6
:011F100022AE
:10204900AF051DEF6013120124F5993099FDC2996E
:0A205900740129F9E43AFA80E72245
:101F66009000F7EBF0A3EAF0A3E9F09000FEE52677
:101F7600F0A3E527F0A3E528F09000FDEDF0900032
:051F8600FBE529F0223B
:101C7100E4900085F09000FBE0FF900085E0FEC35A
:101C81009F50359000FEE0FBA3E0FAA3E0F98E82BD
:101C910075830012013DFF9000F7E0FBA3E0FAA37A
:101CA100E0F98E8275830012013D6F60037F00228F
:0A1CB100900085E004F080BD7F0183
:011CBB002206
:030023000218A31D
:1018A300C0E0C083C082C0D075D000C000C001C0FA
:1018B30002C003C006C007309902C29930983F9016
:1018C30000FDE0FF9000FAE0FEC39F502F9000F769
:1018D300E0FBA3E0FAA3E0F98E82758300E5991299
:1018E300017C9000FAE004F0E0C39F400FE4F012A3
:1018F3001C71EF600790008AE04410F0C298D00793
:10190300D006D003D002D001D000D0D0D082D08373
:03191300D0E032EF
:061FAF00D2CD7F057E008B
:101FB500EF1FAC0670011E4C60129000617403F0B7
:0C1FC500900061E0FD14F0ED60E680F497
:011FD10022ED
:101F8B0090005EEFF090005EE0D394004015A374D8
:101F9B007BF090005FE014F0E070F790005EE014CF
:031FAB00F080E2E1
:011FAE002210
:0D00160043C92043CA2043B30143B4012273
:0F20EE00D2CDD2C0121FB1C2C0121FB1C2CD22BB
:08211F00C2C0121FAFD2C022A2
:021DCD00AB0762
:101DCF00E490005FF0EB30E704D2C08002C2C0EBBA
:101DDF0025E0FB121FB1121FAFC2CD90005FE004D0
:101DEF00F0E0C3940840DED2C0121FB1121FAFA2A1
:071DFF00C09200C2CDA2005A
:011E060022B9
:101D0400E4900060F0D2C090005FF0121FAF90002A
:101D140060E025E0F030C004E04401F0C2CD121FC1
:101D2400B190005FE004F0E0C3940840DE300004AA
:101D3400D2C08002C2C0121FB1121FAFC2CDD2C026
:051D4400900060E0FFCB
:011D49002277
:021CBC00AA0775
:101CBE0090005E74A0F01220EE90005EE0FF121D08
:101CCE00CD50028018AF02121DCD5002800F12208F
:101CDE00EE90005EE04401FF121DCD500612211F52
:101CEE007FFF22D200121D0490005DEFF012211F23
:051CFE0090005DE0FF15
:011D030022BD
:041F3D00AA05A90741
:101F410090005D74A0F01220EE90005DE0FF121D84
:101F5100CDAF01121DCDAF02121DCD12211F7F3257
:051F61007E00021F8B51
:1016AB0002145BE493A3F8E493A34003F68001F2E6
:1016BB0008DFF48029E493A3F85407240CC8C33340
:1016CB00C4540F4420C8834004F456800146F6DF0F
:1016DB00E4800B0102040810204080901612E47E77
:1016EB00019360BCA3FF543F30E509541FFEE49304
:1016FB00A360010ECF54C025E060A840B8E493A3CB
:10170B00FAE493A3F8E493A3C8C582C8CAC583CAF5
:10171B00F0A3C8C582C8CAC583CADFE9DEE780BEAD
:01169E00004B
:10002E00E709F608DFFA8046E709F208DFFA803EB4
:10003E0088828C83E709F0A3DFFA8032E309F608A1
:10004E00DFFA8078E309F208DFFA807088828C8309
:10005E00E309F0A3DFFA806489828A83E0A3F608BD
:10006E00DFFA805889828A83E0A3F208DFFA804C97
:10007E0080D280FA80C680D4806980F2803380106E
:10008E0080A680EA809A80A880DA80E280CA8033D7
:10009E0089828A83ECFAE493A3C8C582C8CCC5834F
:1000AE00CCF0A3C8C582C8CCC583CCDFE9DEE7801F
:1000BE000D89828A83E493A3F608DFF9ECFAA9F09E
:1000CE00EDFB2289828A83ECFAE0A3C8C582C8CCF4
:1000DE00C583CCF0A3C8C582C8CCC583CCDFEADE0D
:1000EE00E880DB89828A83E493A3F208DFF980CC6F
:1000FE0088F0EF60010E4E60C388F0ED2402B40468
:10010E000050B9F582EB2402B4040050AF2323450E
:06011E00822390007E73B5
:10012400BB010689828A83E0225002E722BBFE02D9
:09013400E32289828A83E493220C
:10013D00BB010CE58229F582E5833AF583E0225077
:10014D0006E92582F8E622BBFE06E92582F8E222C1
:0D015D00E58229F582E5833AF583E49322DB
:10016A00BB010689828A83F0225002F722BBFE0174
:02017A00F3226E
:10017C00F8BB010DE58229F582E5833AF583E8F0B9
:10018C00225006E92582C8F622BBFE05E92582C865
:02019C00F2224D
:10019E00BC000BBE0029EF8DF084FFADF022E4CC45
:1001AE00F875F008EF2FFFEE33FEEC33FCEE9DEC0E
:1001BE00984005FCEE9DFE0FD5F0E9E4CEFD22ED54
:1001CE00F8F5F0EE8420D21CFEADF075F008EF2F9E
:1001DE00FFED33FD4007985006D5F0F222C398FD8F
:0501EE000FD5F0EA222C
:1001F300BB010A89828A83F0E5F0A3F0225006F757
:0F02030009A7F01922BBFE06F3E5F009F3192253
:1002120075F008758200EF2FFFEE33FECD33CDCCA3
:1002220033CCC58233C5829BED9AEC99E582984026
:100232000CF582EE9BFEED9AFDEC99FC0FD5F0D603
:10024200E4CEFBE4CDFAE4CCF9A88222B800C1B92D
:100252000059BA002DEC8BF084CFCECDFCE5F0CB6B
:10026200F97818EF2FFFEE33FEED33FDEC33FCEBA4
:1002720033FB10D703994004EB99FB0FD8E5E4F95F
:10028200FA227818EF2FFFEE33FEED33FDEC33FC4C
:10029200C933C910D7059BE99A4007EC9BFCE99A40
:1002A200F90FD8E0E4C9FAE4CCFB2275F010EF2F85
:1002B200FFEE33FEED33FDCC33CCC833C810D70785
:1002C2009BEC9AE899400AED9BFDEC9AFCE899F8C0
:0E02D2000FD5F0DAE4CDFBE4CCFAE4C8F92253
:1002E000EB9FF5F0EA9E42F0E99D42F0E89C45F074
:0102F00022EB
:1002F100E493FC740193FD740293FE740393FF2253
:0C030100A42582F582E5F03583F5832207
:06030D008A838982E4737B
:00000001FF
