:03000000021B1BC5
:0C1B1B00787FE4F6D8FD75813B021B6268
:102509000102030405060708090A0B0C0D0E0F103A
:06251900000000000000BC
:1016A700460044FFFFFFFFFFFF41003E0041003DB2
:1016B70000410018004100640041003F0146002B33
:1016C70000000000000041002A0142004A000041DA
:1016D70000190041006D004800650000000000008F
:0216E700000001
:0A258A0000007F027E0FDEFEDFFC82
:012594002224
:102479009000007C007D0A12019EAA06AB07C3E505
:0F248900829BE5839A5008B2B412258AA380EF94
:012498002221
:1019F2001225C712257E1200167F807E257D007C6F
:101A02000012231B75250175260075274C752802C7
:101A12007B017A0079007D181223CA1225957BFF7B
:101A22007A0F79D97F031224587BFF7A1C7930E42C
:101A3200FF1224587BFF7A0979007F051224587B14
:101A4200FF7A0379747F041224587BFF7A1279D4C7
:101A52007F0612245890004C74AAF0A37455F01219
:101A620024367F151225C1752403752504752605B4
:101A72007527067528077B027D01E4FF1215F01217
:071A820023771210DE80FB48
:081801008F228B238A24892524
:10180900E4900075F0A3740AF0AB23AA24A9257FFC
:1018190052121E0AEF7007900075E04401F0AB23E5
:10182900AA24A92512147DEF7007900075E04402DF
:10183900F0AB23AA24A925121538EF70079000757B
:10184900E04404F085232E85242F8525307B017AF9
:10185900007944AD227F61121759EF700790007526
:10186900E04408F0AB26AA27A928AF22121BA7EF4C
:101879007007900075E04420F0900075E0B42F02E5
:101889008014900076E0FF14F0EF70028008E49075
:0E1899000075F0021812122179900075E0FF20
:0118A700221E
:061F42007B017A007940EA
:061F48008B218A2289238F
:101F4E00E490006EF0A3740AF07B007A0479007FAF
:101F5E0052121E0AEF700790006EE04401F0AB21A2
:101F6E00AA22A92312147DEF700790006EE044029E
:101F7E00F090006EE0FFB40302801390006FE0FE5D
:0E1F8E0014F0EE70028007E490006EF080BB4D
:011F9C002222
:0818A8008F228B238A2489257D
:1018B000E4900070F0A3740AF07B017A0079727FE3
:1018C00052121E0AEF7007900070E04401F07B0195
:1018D0007A00797212147DEF7007900070E0440274
:1018E000F07B017A007972121538EF700790007062
:1018F000E04404F0752E01752F007530727B017A7B
:10190000007944AD227F61121759EF700790007083
:10191000E04408F0AB23AA24A925AF221211DEEF80
:101920007007900070E04410F0900070E0B41F0267
:101930008014900071E0FF14F0EF70028008E490D2
:0E1940000070F00218B9122179900070E0FFDB
:01194E002276
:061D22007B017A0079400C
:061D28008B228A238924AE
:101D2E00E4900070F0A3740AF07B007A0479007FCF
:101D3E0052121E0AEF7007900070E04401F0AB22C1
:101D4E00AA23A92412147DEF7007900070E04402BC
:101D5E00F0AB22AA23A924121538EF700790007059
:101D6E00E04404F0900070E0B4070280139000711C
:101D7E00E0FF14F0EF70028007E4900070F080A98D
:081D8E00122179900070E0FFC2
:011D9600222A
:10243600E4F522E5222450FF1220EB742B2522F529
:1024460082E43400F583EFF00522E522C3940640CA
:01245600E2A3
:012457002262
:06234C008B228A23892484
:10235200E4F525E5252450FFAB22AA23A9248525EF
:102362008275830012013DFD1223A10525E525C3D7
:04237200940640DFAE
:012376002244
:101CAA00A3F090002BE0900050F090002CE0900000
:101CBA0051F090002DE0900052F090002EE090003C
:101CCA0053F090002FE0900054F0900030E0900024
:0A1CDA0055F07B017A00794C7D0A79
:061CE4008B228A238924F3
:101CEA00E4900071F0900070F0900070E0FFC39DE6
:101CFA005020A3E0FEAB22AA23A9248F8275830079
:101D0A0012013DFFEE6F900071F0900070E004F058
:071D1A0080D7900071E0FF8B
:011D2100229F
:101F9D001225BA78317C007D017E007F0C1200FE87
:101FAD0090004E7408F0A37403F0900037E0FCA38A
:101FBD00E0FDEC900050F0EDA3F0900039E0FCA3B3
:101FCD00E0FDEC900052F0EDA3F0900035A3E09011
:101FDD000054F0E4A3121CDB900056EFF07B017A65
:071FED0000794C0D0224EF06
:1012D400900018E004F0B41E02E4F090003DE064D5
:1012E40001705F121F42EF6403704990006404F0C0
:1012F40090004E7406F0A3F0900040E0900050F08F
:10130400900041E0900051F0900042E0900052F0D3
:10131400900043E0900053F07B017A00794C7D0803
:10132400121CE4900054EFF07B017A00794C0D120A
:1013340024EF8005E4900064F0900018E07003123C
:101344001F9D90003DE06402706990006DE0706341
:1013540090004AE07002A3E06059121F42EF640358
:10136400705190004E7408F0A314F0900040E09087
:101374000050F0900041E0900051F0900042E09065
:101384000052F0900043E0900053F090004AE0FCDB
:10139400A3E0FDEC900054F0EDA3121CDB9000568A
:1013A400EFF07B017A00794C0D1224EFE490004AAF
:0413B400F0A3F02290
:100FD90090003DE0704490002AE0600A7F381225B5
:100FE900C190002B80087F071225C190002EE0FEDA
:100FF900C4540FFFEE540FFDA3E0FEC4540FF524B3
:10100900EE540FF525752636A3E0FEC4540FF527D7
:10101900EE540FF5287B361215F090003DE064017F
:101029007067900064E0605190003FE0FF1225C1B5
:10103900900040E0FEC4540FFFEE540FFDA3E0FE04
:10104900C4540FFBEE540FF524A3E0FEC4540FF56E
:1010590025EE540FF526A3E0FEC4540FF527EE54F0
:101069000FF5281215F090003FE0FF25E0FEEFC4D0
:1010790013131354012EF08010E4FF1225C17F00D1
:101089007E007D007C00120D6C90003DE0640270D2
:101099004390006CE0FF90006BE0FD90006AE0FB7C
:1010A900900069E0F524900068E0F525900067E07C
:1010B900F526900066E0F527900065E0F528121501
:1010C900F090006DE0600D900019E0FFC374079F78
:0510D900FF122560225A
:1003740090006E74FFF0E4A3F07B017A0079007DB5
:1003840017121CE4900017E06F60030206799000D6
:1003940002E090006EF0705E121D22EF6407900080
:1003A4004E601C7401F0A374FFF0A37402F07B018F
:1003B4007A00794C7D05121CE490005102062F74DA
:1003C40006F0E4A3F0900040E0900050F09000416B
:1003D400E0900051F0900042E0900052F090004311
:1003E400E0900053F07B017A00794C7D08121CE404
:1003F40090005402062F90006EE064016003020432
:10040400DE90004E7413F0A37401F0900003E0FF3B
:10041400900050F075260175270075281A7B017A23
:10042400007940121801EF642F601E90004E74038F
:10043400F0A374FFF0A37401F0FB7A00794C7D05FE
:10044400121CE49000510204DB90001AE090005169
:10045400F090001BE0900052F090001CE0900053DC
:10046400F090001DE0900054F090001EE0900055C4
:10047400F090001FE0900056F0900020E0900057AC
:10048400F0900021E0900058F0900022E090005994
:10049400F0900023E090005AF0900024E090005B7C
:1004A400F0900025E090005CF0900026E090005D64
:1004B400F0900027E090005EF0900028E090005F4C
:1004C400F0900029E0900060F07B017A00794C7D87
:1004D40015121CE490006102062F90006EE0640285
:1004E40060030205B6900003E0FF7B017A00790403
:1004F4001218A8EF641F90004E601C7403F0A374DC
:10050400FFF0A37403F07B017A00794C7D05121C83
:10051400E49000510205B37413F0A37402F0A31421
:10052400F0900004E0900051F0900005E09000523B
:10053400F0900006E0900053F0900007E090005423
:10054400F0900008E0900055F0900009E09000560B
:10055400F090000AE0900057F090000BE0900058F3
:10056400F090000CE0900059F090000DE090005ADB
:10057400F090000EE090005BF090000FE090005CC3
:10058400F0900010E090005DF0900011E090005EAB
:10059400F0900012E090005FF0900013E090006093
:1005A400F07B017A00794C7D15121CE49000610205
:1005B400062F90006EE0B40303021F9D90006EE0CE
:1005C4006404701D7B017A00790312234C122436D3
:1005D40090004E7408F07404121CAA90005602068F
:1005E4002F90006EE06405701090004E7408F07453
:1005F40005121CAA900056803290006EE0640670CA
:1006040036900003E06401706C7FC8FE1224799078
:10061400004E7403F0A374FFF0A37406F07B017A18
:1006240000794C7D05121CE4900051EFF07B017AB7
:1006340000794C0D0224EF90006EE0640770369050
:060644000003E0B4012FE9
:10064A00E4F5217FC8FE122479E4F5217465252199
:10065A00F582E43400F583E4F00521E521B408ECE1
:0F066A00E490004AF0A3F090006DF0900019F0BA
:01067900225E
:1009000090003DE060030209B2FF121FF4900074F2
:10091000EFF06401704275260175270075281A7B77
:10092000017A0079407F1412180190003EEFF064C4
:100930002F600FE090004EF07B017A00794C7D0330
:1009400080137B017A0079407D041224EF7B017AC9
:1009500000791A7D101224EF7F03121FF4900074A7
:05096000EFF0BF011FD4
:10096500786E7C007D017BFF7A2579197E007F06F4
:0F0975001200FE7B017A00796E12234C12243699
:100984007F05121FF4900074EFF0BF010A90002A53
:10099400E0FFC374019FF07F02121FF4900074EF14
:1009A400F0BF010A90002AE0FFC374019FF0900099
:1009B4003DE064026003020B767F03121FF4900093
:1009C40074EFF064016003020AA590006DE0700505
:1009D40004F0020AA5E490006DF0900066E0FF3395
:1009E40095E0FE7C007D0A12019E900065E0FD33D7
:1009F40095E0FCEF2DFBEE3CFA900067E0FF3395A9
:100A0400E0FE7C007D6412019EEF2BFBEE3AFAA31C
:100A1400E0FF3395E0FE7C037DE812019EEF2BFBA3
:100A2400EE3AFAA3E0FF3395E0FE7C277D10120135
:100A34009EEF2BFFEE3AFEC006C007A3E0FF3395FE
:100A4400E0FEFDFC7BA07A8679017800120224D0B6
:100A5400E02FFFD0E03EFEC006C00790006BE0FF31
:100A64003395E0FEFDFC7B407A42790F7800120258
:100A740024D0E02FFFD0E03EFEC006C00790006CFB
:100A8400E0FF3395E0FEFDFC7B807A967998780050
:100A9400120224D0E02FFFD0E03E90004AF0A3EFF2
:100AA400F07F04121FF4900074EFF0BF0111900066
:100AB40019E0B40704E4F08006900019E004F07F24
:100AC40001121FF4900074EFF0BF0111900019E0BF
:100AD40070057407F08006900019E014F07F051289
:100AE4001FF4900074EFF06401703C90006DE060BE
:100AF40036900019E0FFFD3395E0FC74652DF58216
:100B040074003CF583E004F074652DF58274003CB8
:100B1400F583E0B40A11EF3395E0FE74652FF58296
:100B240074003EF583E4F07F02121FF4900074EF2A
:100B3400F06401703D90006DE06037900019E0FFB3
:100B4400FD3395E0FC74652DF58274003CF583E07B
:100B540014F074652DF58274003CF583E0B4FF1243
:100B6400EF3395E0FE74652FF58274003EF58374CF
:020B740009F086
:010B7600225C
:101C30007F011224D490006EEFF064017048900090
:101C40003DE02401FFE433FE7C007D031201B0AFD0
:101C500005EFF070097F877ED67D12FC802590000D
:101C60003DE0B4010FE4FF1225C17F007E007D003E
:101C70007C00800F90003DE0B4020B7F027E007D6F
:101C8000007C00120D6C90003DE0701DFF1224D40A
:101C900090006EEFF0BF0111121D22BF070B7B01F8
:091CA0007A0079407D041224EF62
:011CA9002218
:10237700C2AF53B3E143B41E4391015392FE53914D
:10238700FD439202D291D2C1D2C2C2C3D2C4122299
:0A239700E61225B3122535D2AF225D
:081E0A008F298B2A8A2B892CF9
:101E12001224B77D077F0D121EE57D037F14122564
:101E22001F90007AE529F075350175360175370086
:101E320075387A753901753A00753B787A00797A86
:101E4200120B90900077EFF07027A3E07004A3E0EC
:101E52006410701D90007AE0AB2AAA2BA92C120103
:101E62006A90007BE0AB2AAA2BA92C9000011201F8
:061E72007C900077E0FF08
:011E78002247
:06147D008B298A2A892B4D
:10148300E4900079F01224B7E4FD7F0D121EE57D90
:10149300807F0E1224BB90007C7493F0A37420F021
:1014A30075350275360175370075387C75390175E8
:1014B3003A00753B7A7B017A00797C7F0C120B949E
:1014C300900077EFF07061A3F0900078E0FFC39491
:1014D300045039E0FE247CF582E43400F583E0AB6C
:1014E30029AA2AA92B8E8275830012017C90007988
:1014F300E0FE747C2FF582E43400F583E0FFEE6FA9
:10150300900079F0900078E004F080BD900078E0DE
:10151300247CF582E43400F583E0FF900079E06FEA
:10152300600690007774FEF07D807F0E12251F9079
:041533000077E0FF5E
:011537002291
:061538008B298A2A892B91
:10153E0090007B7493F0A37470F0E4900081F090AF
:10154E000078F0900078E0FFC394045039AB29AADC
:10155E002AA92BE0FEF58275830012013DFD747DF4
:10156E002EF582E43400F583EDF0900081E0FE8FDD
:10157E008275830012013DFFEE6F900081F09000A6
:10158E0078E004F080BD7530017531007532827BD4
:10159E00017A00797B7D071219681224B775350917
:1015AE0075360175370075387B753901753A0075DA
:1015BE003B797B017A00797B7F0C120B949000773C
:1015CE00EFF07012900079E07004A3E064187006DA
:1015DE00900077F0800690007774FEF0900077E030
:0115EE00FFFD
:0115EF0022D9
:061759008B2B8A2C892D68
:10175F0090007BEFF0A3EDF0E490007AF0AB2BAAB2
:10176F002CA92D90007AE0FFF58275830012013DC0
:10177F00FE747D2FF582E43400F583EEF090007A4D
:10178F00E004F0E0B406D6E490007AF0AB2EAA2F76
:10179F00A93090007AE0FFF58275830012013DFEBB
:1017AF0074832FF582E43400F583EEF090007AE035
:1017BF0004F0E0B406D675350C7536017537007533
:1017CF00387B753901753A00753B787B017A007962
:1017DF007B7F0E120B94900077EFF070097F081249
:1017EF001E79EF20E30690007774FEF0900077E00B
:0117FF00FFEA
:0118000022C5
:061BA7008B298A2A892B1C
:101BAD0090007B7430F0A3EFF07530017531007546
:101BBD00327D7A00797B121964753504753601759D
:101BCD00370075387B753901753A00753B787B01A7
:101BDD007A00797B7F0C120B94900077EFF07037C1
:101BED00A3E07004A3E06490702D90007AF0900053
:101BFD007AE0FF247BF582E43400F583E0AB29AA7B
:101C0D002AA92B8F8275830012017C90007AE00443
:101C1D00F0E0B410D9800690007774FEF090007754
:021C2D00E0FFD6
:011C2F002292
:0611DE008B268A278928F8
:1011E40090007A74A0F0A3EFF075300175310075AA
:1011F400327C7B017A00797A7D0212196875350494
:1012040075360175370075387A753901753A007588
:101214003B777B017A00797A7F0C120B94900076ED
:10122400EFF07014A3E07004A3E06404700A90006B
:101234007AE0540F640A600690007674FEF0900021
:1012440076E060030212CE900079F0AB26AA27A9BB
:1012540028900079E0FFF58275830012013DFE7449
:101264007A2FF582E43400F583EEF0900079E004FF
:10127400F0E0B410D675300175310075328A7B0107
:101284007A00797A7D1012196875351275360175F0
:10129400370075387A753901753A00753B777B01EB
:1012A4007A00797A7F0C120B94900076EFF0701428
:1012B400A3E07004A3E06404700A90007AE0540F81
:0F12C400640A600690007674FEF0900076E0FFFA
:0112D30022F8
:0813B8008D088B098A0A890BDC
:1013C000EF12194F120B779000C0EFF07014A3E0EA
:1013D0007004A3E06404700A9000C4E0540F640A2F
:1013E00060069000C074FEF09000C0E0705A90005B
:1013F000C3F0AB09AA0AA90B9000C3E0FFF5827500
:10140000830012013DFE74C42FF582E43400F5839D
:10141000EEF09000C3E004F0E0B410D67530017532
:1014200031007532C87B017A0079C47D04121968D5
:10143000E49000C1F0A3F0753506120B7A9000C05D
:10144000EFF064FE6002E4F09000C0E0702974B038
:1014500012194F120B779000C0EFF07014A3E070D8
:1014600004A3E06404700A9000C4E0540F640A60AE
:0C147000069000C074FEF09000C0E0FF89
:01147C00224D
:020EBC008D0E99
:100EBE009000EF74C2F0A3EFF0753001753100753C
:100ECE0032F17B017A0079EF7D02121968753504D3
:100EDE007536017537007538EF753901753A00753D
:100EEE003BED7B017A0079EF7F0C120B949000ECB6
:100EFE00EFF07014A3E07004A3E06404700A900095
:100F0E00EFE0540F640A60069000EC74FEF090005F
:100F1E00ECE070499000EFF0A3F0A3F0A3F0753071
:100F2E00017531007532F37B017A0079EF7D041281
:100F3E0019687535067536017537007538EF7539D0
:100F4E0001753A00753BED7B017A0079EF7F0C124B
:100F5E000B949000ECEFF064FE6002E4F09000EC75
:100F6E00E060037FFE229000EF74B0F0A3E50EF078
:100F7E007530017531007532F17B017A0079EF7DA4
:100F8E00021219687535047536017537007538EF1C
:100F9E00753901753A00753BED7B017A0079EF7F6B
:100FAE000C120B949000ECEFF07014A3E07004A3FD
:100FBE00E06404700A9000EFE0540F640A6006903B
:0A0FCE0000EC74FEF09000ECE0FF70
:010FD80022F6
:1021790090007A7450F0E4A3F07530017531007560
:10218900327C7B017A00797A7D02121968753504EF
:1021990075360175370075387A753901753A0075E4
:1021A9003B787B017A00797A7F0C120B9490007747
:0421B900EFF07F00C4
:0121BD0022FF
:10194F009000C4F0A3E508F07530017531007532D1
:09195F00C67A0079C47B017D0207
:081968008B2C8A2D892E8D2F96
:101970007D047F051224BB121EE17D807F0A1225A3
:101980001FE490008DF090008DE0FFC3952F501C58
:10199000AB2CAA2DA92E8F8275830012013DFD7FED
:1019A00009121EE590008DE004F080DA7D037F01CE
:1019B000121EE590008D74FFF07F05121E799000D5
:1019C0008EEFF090008DE014F0E06005A3E030E2CF
:1019D000E87F22121E79AB30AA31A932EF12016AD8
:1019E0007F21121E79AB30AA31A932900001EF029B
:0219F000017C78
:1022E6007D0F7F01121EE5007D3D7F11121EE57DEB
:1022F6001E7F2D121EE5E4FD7F2C121EE57D8D7FCF
:102306002A121EE57D3E7F2B121EE57D407F1512AB
:052316001EE57F00221E
:101E7900E4900098F0D2C1C291EF25E0547E4480ED
:101E8900900097F09000967408F0900097E0FF306A
:101E9900E703D38001C3B392C2C2C1EF25E090002A
:101EA90097F0D2C1900096E014F0E070DD900096B2
:101EB9007408F0C2C1900098E025E0F0309004E089
:101EC9004401F0D2C1900096E014F0E070E5D2919F
:071ED900D2C1900098E0FF68
:011EE00022DF
:041EE100E4FD7F019C
:101EE500D2C1C291EF25E0547E900097F090009604
:101EF5007408F0900097E0FF30E703D38001C3B387
:101F050092C2C2C1EF25E0900097F0D2C190009631
:101F1500E014F0E070DD9000967408F0ED30E70312
:101F2500D38001C3B392C2C2C1ED25E0FDD2C190F9
:0C1F35000096E014F0E070E4D291D2C1FC
:011F4100227D
:02251F00AE0705
:10252100E4900095F0121E79900095EFF0AF064D02
:04253100FD021EE5A4
:0424B7007D087F0815
:0224BB00AE076A
:1024BD00E4900095F0121E79900095EFF0FCAF06B8
:0724CD00EDF45CFD021EE5C9
:100B77007535047536017537007538C475390175D3
:0D0B87003A00753BC17A0079C47B017F0CF8
:080B94008F318B328A33893462
:100B9C0090008E74FEF0E4A3F0A3F0E53124F46031
:100BAC001024FE701690008F7412F0A37410F08055
:100BBC000A90008F7477F0A37430F090008FE044AB
:100BCC0080FD7F02121EE57D807F041224BB121E65
:100BDC00E17D807F0A12251FE4900093F0A3F09032
:100BEC000093E0FCA3E0FDC39535EC94005023ABDF
:100BFC0032AA33A9348D828C8312013DFD7F0912F8
:100C0C001EE5900094E004F070D5900093E004F0A1
:100C1C0080CDAD317F01121EE5E531B40C077D802E
:100C2C007F0D12251F9000937402F0A37458F07F6F
:100C3C0004121E79900092EFF0900094E024FFF0E3
:100C4C00900093E034FFF0E07002A3E0601190009C
:100C5C0092E0FF20E009900090E0FEEF5E60D07D16
:100C6C00807F0D1224BB900093E07002A3E0700310
:100C7C00020D5C7F06121E79EF541B6003020D56A9
:100C8C0090008EF0A3E0FF900092E05F30E00690C1
:100C9C00008E74FFF0E531640C6003020D5C7F0A7A
:100CAC00121E79900092EFF07F0C121E79EF540710
:100CBC00900091F06026A3E024FFFFE434FFFEEFE8
:100CCC007803C333CE33CED8F9FF900091E07C008B
:100CDC002FFFEC3EAB39AA3AA93B8011900092E071
:100CEC0075F008A4FFAB39AA3AA93BE5F08FF012D6
:100CFC000205900092E0700204F0900092E0D39410
:100D0C001240037412F0E4900093F0A3F090009260
:100D1C00E0FFC3900094E09F900093E0940050306B
:100D2C007F09121E79AB36AA37A938900093E0FCE4
:100D3C00A3E0F5828C83EF12017C900094E004F028
:100D4C0070CB900093E004F080C390008E74FEF0A2
:0F0D5C007D807F0C12251F121EE190008EE0FF9C
:010D6B002265
:102535007F14121E7990006EEFF0540370077D032F
:052545007F1412251FA8
:01254A00226E
:0725B3007D037F140224BB2D
:1016E9004100E7004100EB004100E5004100E8004E
:1016F9004100EA004100E6004100E9004100E20042
:0B259500759D9C75BC88D2ADD2AF22B2
:0725BA007B017A0079D622B3
:101FF400EF70089000EBE05401FF22BF010A90004B
:10200400EBE05402C313FF22BF020C9000EBE05438
:10201400041313543FFF22BF030D9000EBE0540858
:10202400131313541FFF22BF040B9000EBE0541052
:10203400C4540FFF22BF050C9000EBE05420C413DE
:072044005407FF227F002278
:03002B0002067A50
:10067A00C0E0C0F0C083C082C0D075D000C002C044
:10068A0004C005C006C0079000E7E0FD7017AFBDC3
:10069A00EF75F004A4FFACBEEC7A002FFEEA35F049
:1006AA009000D6806EEDB40115AFBDEF75F004A4CD
:1006BA00ADBE7C002DFEEC35F09000D88055900040
:1006CA00E7E0FDB40217AFBDEF75F004A4FFACBEBE
:1006DA00EC7A002FFEEA35F09000DA8036EDB403AA
:1006EA0015AFBDEF75F004A4ADBE7C002DFEEC3550
:1006FA00F09000DC801D9000E7E0FDB4041CAFBD63
:10070A00EF75F004A4FFACBEEC7A002FFEEA35F0D8
:10071A009000DEF0A3CEF00208DFED64076003026A
:10072A0008DFAFBDEF75F004A4ADBE7C002DFEEC72
:10073A0035F09000E0F0A3CEF09000E0E0FEA3E0F8
:10074A00FFC3EE9400402FD3EF9410EE940050268E
:10075A009000E5E0FDB414109000EBE04401F09045
:10076A00009EE04420F08006EDC39414500D9000E2
:10077A00E5E004F080059000E5E4F09000E0E0FE9A
:10078A00A3E0FFC3948BEE9400402FD3EF94ABEE1B
:10079A00940050269000E8E0FDB414109000EBE0BD
:1007AA004402F090009EE04420F08006EDC39414C9
:1007BA00500D9000E8E004F080059000E8E4F09025
:1007CA0000E0E0FEA3E0FFC39420EE9401402DD3A5
:1007DA00EF9440EE940150249000EAE0FDB4140E28
:1007EA00A3E04404F090009EE04420F08006EDC3AC
:1007FA009414500D9000EAE004F080059000EAE4B9
:10080A00F09000E0E0FEA3E0FFC394B9EE9401404B
:10081A000FD3EF94D9EE940150067C007D01800439
:10082A007C007D009000E4E025E0FF9000E3E033E7
:10083A004CFEEF4DFFEEF0A3EFF0B40012EEB4E081
:10084A000E9000EBE04408F090009EE04420F09007
:10085A0000E0E0FEA3E0FFC39448EE9402402FD3E9
:10086A00EF9468EE940250269000E9E0FDB414106B
:10087A009000EBE04410F090009EE04420F08006E7
:10088A00EDC39414500D9000E9E004F08005900047
:10089A00E9E4F09000E0E0FEA3E0FFC394D3EE9415
:1008AA0002402DD3EF94F3EE94025024A3E0FDB45A
:1008BA0014109000EBE04420F090009EE04420F0F9
:1008CA008006EDC39414500D9000E2E004F0800518
:1008DA009000E2E4F09000E7E0045407F02488F581
:1008EA00BCD007D006D005D004D002D0D0D082D058
:0608FA0083D0F0D0E032D3
:1022AF003F065B4F666D7D077F6F777C395E797177
:1022BF00BF86DBCFE6EDFD87FFEF3D760F0E75385E
:1022CF0037545C73673149783E1C7E646E5A00FF49
:0722DF00F7FCB9DEF9F14044
:0417090041010A1080
:0C257E00E4F5957596FFF5937594FF2227
:0625C100900109EFF02279
:1015F000EF3395E0FE74AF2FF58274223EF583E45D
:1016000093900101F0AF05EF3395E0FE74AF2FF535
:101610008274223EF583E493900102F0AF03EF332E
:1016200095E0FE74AF2FF58274223EF583E493902B
:101630000103F0AF24EF3395E0FE74AF2FF5827411
:10164000223EF583E493900104F0AF25EF3395E05B
:10165000FE74AF2FF58274223EF583E4939001056A
:10166000F0AF26EF3395E0FE74AF2FF58274223E83
:10167000F583E493900106F0AF27EF3395E0FE7415
:10168000AF2FF58274223EF583E493900107F0AF0B
:1016900028EF3395E0FE74AF2FF58274223EF58378
:0716A000E493900108F02221
:100D6C008F248E238D228C217B807A967998780023
:100D7C001202AFE47B0AFAF9F81202AF74AF2BF54A
:100D8C008274223AF583E493900101F07B407A421D
:100D9C00790F7800AF24AE23AD22AC211202AFE460
:100DAC007B0AFAF9F81202AF74AF2BF58274223A6F
:100DBC00F583E493900102F07BA07A8679017800A8
:100DCC00AF24AE23AD22AC211202AFE47B0AFAF9B8
:100DDC00F81202AF74AF2BF58274223AF583E493C8
:100DEC00900103F0E47B107A27F9F8AF24AE23AD21
:100DFC0022AC211202AFE47B0AFAF9F81202AF74AA
:100E0C00AF2BF58274223AF583E493900104F0E45D
:100E1C007BE87A03F9F8AF24AE23AD22AC211202A1
:100E2C00AFE47B0AFAF9F81202AF74AF2BF58274B7
:100E3C00223AF583E493900105F0E47B64FAF9F827
:100E4C00AF24AE23AD22AC211202AFE47B0AFAF937
:100E5C00F81202AF74AF2BF58274223AF583E49347
:100E6C00900106F0E47B0AFAF9F8AF24AE23AD2228
:100E7C00AC211202AFE47B0AFAF9F81202AF74AF9C
:100E8C002BF58274223AF583E493900107F0E47B0E
:100E9C000AFAF9F8AF24AE23AD22AC211202AF74DA
:100EAC00AF2BF58274223AF583E493900108F0227B
:0F25600074012FF582E43401F583E02480F0222A
:1021FF0090010AE030E312E5A054F72408F5A0900F
:10220F000109E0F580E4A3F02290010AE0FF5407F2
:10221F00FEE5A054F02EF5A074012EF582E43401F2
:0E222F00F583E0F580EF04540F90010AF022D1
:1024D400EF7008900115E05401FF22BF010A90013A
:0B24E40015E05402C313FF227F00220A
:10170D005E00A000000000000000000000000000CE
:10171D0000000000000000000000000000000000BC
:10172D000042009D000041009C004200BE000002EE
:0B173D000C000041009A0041009B00DE
:10249900EF25E025E0FFE58954F02F2410F589E5C3
:0E24A9008E547F2480F58ED28CD2A9D2AF2221
:10254B00438E805389F0758ACD758CD4C28DD28C15
:05255B00D2A9D2AF225D
:0B25A000D2AFD2A8D2AAD288D28A22E1
:0625C7001225A002254BC5
:10245800EF3395E0FE9000A075F003EF120362EEF3
:1024680075F003A42583F583EBF0A3EAF0A3E9F064
:012478002241
:101A890090009EE030E0209000A0E0FBA3E0FAA3E4
:101A9900E0F9EA494B600312036EE4900115F090F6
:101AA900009EE06401F02290009EE030E41B90006B
:101AB900ACE0FBA3E0FAA3E0F9EA494B60031203A7
:101AC9006E90009EE06410F02290009EE030E520C8
:101AD9009000AFE0FBA3E0FAA3E0F9EA494B600309
:101AE90012036EE49000EBF090009EE06420F02277
:101AF90090009EE030E71A9000B5E0FBA3E0FAA35E
:101B0900E0F9EA494B600312036E90009EE064809D
:021B1900F022B8
:1010DE00121A8990009CE0640160030211DD758A8A
:1010EE00CD758CD49000A3E0FBA3E0FAA3E0F9EA5F
:1010FE00494B600312036E20B22890009AE0FDB4B3
:10110E000A1090009EE06401F0900115E06401F079
:10111E008008C3ED6480948A500D90009AE004F02C
:10112E008005E490009AF020B32890009BE0FDB477
:10113E000A1090009EE06401F0900115E06402F048
:10114E008008C3ED6480948A500D90009BE004F0FB
:10115E008005E490009BF0AE0CAF0D7C007D0A1272
:10116E0001B0ED4C70139000A6E0FBA3E0FAA3E0F3
:10117E00F9EA494B600312036EAE0CAF0D7C007D95
:10118E00641201B0ED4C70139000A9E0FBA3E0FADD
:10119E00A3E0F9EA494B600312036EAE0CAF0D7C6F
:1011AE00037DE81201B0ED4C70189000B2E0FBA385
:1011BE00E0FAA3E0F9EA494B600312036EE4F50C82
:0F11CE00F50D050DE50D7002050CE490009CF089
:0111DD0022EF
:03000B000221BE11
:1021BE00C0E0C0F0C083C082C0D075D000C000C0E7
:1021CE0001C002C003C004C005C006C00790009C39
:1021DE007401F01221FFD007D006D005D004D00331
:1021EE00D002D001D000D0D0D082D083D0F0D0E0B9
:0121FE0032AE
:03000300020006F2
:0100060032C7
:03001300020007E1
:0100070032C6
:10227700000004B0000000E800000960000000F45E
:10228700000012C0000000FA00002580000000FDD9
:1022970000004B00000000FE00009600000000FF59
:0822A7000000E100000000FF4F
:101748004101110041010F0041010E00410110004B
:08204B008F288E278D268C25BD
:10205300E490006EF090006EE0FFC39407503BEFF6
:1020630075F008A42477F582E43422F58312035231
:10207300AB28AA27A926A825C312034170149000F0
:102083006EE075F008A4247BF582E43422F5830224
:0C209300035290006EE004F080BB7FFD63
:01209F00221E
:10231B008F248E238D228C21759850E589540F24A0
:10232B0020F589AF24AE23AD22AC2112204B9001B6
:10233B0010EFF0F58DF58BD28E538EFED2ACD2AF63
:01234B00226F
:1024EF00AF051DEF6013120124F5993099FDC299C4
:0A24FF00740129F9E43AFA80E7229B
:1023CA0090010BEBF0A3EAF0A3E9F0900112E525E6
:1023DA00F0A3E526F0A3E527F0900111EDF09001B6
:0523EA000FE528F022C0
:1020A000E4900099F090010FE0FF900099E0FEC3EA
:1020B0009F5035900112E0FBA3E0FAA3E0F98E8275
:1020C00075830012013DFF90010BE0FBA3E0FAA332
:1020D000E0F98E8275830012013D6F60037F00225C
:0A20E000900099E004F080BD7F013C
:0120EA0022D3
:03002300021D9724
:101D9700C0E0C083C082C0D075D000C000C001C001
:101DA70002C003C006C007309902C29930983F901D
:101DB7000111E0FF90010EE0FEC39F502F90010B31
:101DC700E0FBA3E0FAA3E0F98E82758300E59912A0
:101DD700017C90010EE004F0E0C39F400FE4F01295
:101DE70020A0EF600790009EE04410F0C298D00753
:101DF700D006D003D002D001D000D0D0D082D0837B
:031E0700D0E032F6
:06241300D2CD7F057E0022
:10241900EF1FAC0670011E4C60129000797403F036
:0C242900900079E0FD14F0ED60E680F416
:012435002284
:1023EF00900076EFF0900076E0D394004015A37440
:1023FF007BF0900077E014F0E070F7900076E01437
:03240F00F080E278
:0124120022A7
:0D00160043C92043CA2043B30143B4012273
:0F256F00D2CDD2C0122415C2C0122415C2CD2263
:0825AB00C2C0122413D2C022A9
:02223D00AB07ED
:10223F00E4900077F0EB30E704D2C08002C2C0EB2D
:10224F0025E0FB122415122413C2CD900077E00471
:10225F00F0E0C3940840DED2C0122415122413A25A
:07226F00C09200C2CDA200E5
:012276002245
:10213300E4900078F0D2C0900077F012241390005E
:1021430078E025E0F030C004E04401F0C2CD122471
:1021530015900077E004F0E0C3940840DE300004FB
:10216300D2C08002C2C0122415122413C2CDD2C021
:05217300900078E0FF80
:012178002244
:0220EB00AA0742
:1020ED0090007674A0F012256F900076E0FF12221A
:1020FD003D50028018AF0212223D5002800F122572
:10210D006F900076E04401FF12223D50061225AB80
:10211D007FFF22D200122133900075EFF01225AB14
:05212D00900075E0FFC9
:01213200228A
:0423A100AA05A907D9
:1023A50090007574A0F012256F900075E0FF122261
:1023B5003DAF0112223DAF0212223D1225AB7F3205
:0523C5007E000223EF81
:101B27000219F2E493A3F8E493A34003F68001F2C9
:101B370008DFF48029E493A3F85407240CC8C333BF
:101B4700C4540F4420C8834004F456800146F6DF8E
:101B5700E4800B01020408102040809016A7E47E61
:101B6700019360BCA3FF543F30E509541FFEE49383
:101B7700A360010ECF54C025E060A840B8E493A34A
:101B8700FAE493A3F8E493A3C8C582C8CAC583CA75
:101B9700F0A3C8C582C8CAC583CADFE9DEE780BE2D
:011758000090
:10002E00E709F608DFFA8046E709F208DFFA803EB4
:10003E0088828C83E709F0A3DFFA8032E309F608A1
:10004E00DFFA8078E309F208DFFA807088828C8309
:10005E00E309F0A3DFFA806489828A83E0A3F608BD
:10006E00DFFA805889828A83E0A3F208DFFA804C97
:10007E0080D280FA80C680D4806980F2803380106E
:10008E0080A680EA809A80A880DA80E280CA8033D7
:10009E0089828A83ECFAE493A3C8C582C8CCC5834F
:1000AE00CCF0A3C8C582C8CCC583CCDFE9DEE7801F
:1000BE000D89828A83E493A3F608DFF9ECFAA9F09E
:1000CE00EDFB2289828A83ECFAE0A3C8C582C8CCF4
:1000DE00C583CCF0A3C8C582C8CCC583CCDFEADE0D
:1000EE00E880DB89828A83E493A3F208DFF980CC6F
:1000FE0088F0EF60010E4E60C388F0ED2402B40468
:10010E000050B9F582EB2402B4040050AF2323450E
:06011E00822390007E73B5
:10012400BB010689828A83E0225002E722BBFE02D9
:09013400E32289828A83E493220C
:10013D00BB010CE58229F582E5833AF583E0225077
:10014D0006E92582F8E622BBFE06E92582F8E222C1
:0D015D00E58229F582E5833AF583E49322DB
:10016A00BB010689828A83F0225002F722BBFE0174
:02017A00F3226E
:10017C00F8BB010DE58229F582E5833AF583E8F0B9
:10018C00225006E92582C8F622BBFE05E92582C865
:02019C00F2224D
:10019E00EF8DF0A4A8F0CF8CF0A428CE8DF0A42E75
:0201AE00FE222F
:1001B000BC000BBE0029EF8DF084FFADF022E4CC33
:1001C000F875F008EF2FFFEE33FEEC33FCEE9DECFC
:1001D000984005FCEE9DFE0FD5F0E9E4CEFD22ED42
:1001E000F8F5F0EE8420D21CFEADF075F008EF2F8C
:1001F000FFED33FD4007985006D5F0F222C398FD7D
:050200000FD5F0EA2219
:10020500BB010A89828A83F0E5F0A3F0225006F744
:0F02150009A7F01922BBFE06F3E5F009F3192241
:10022400E88FF0A4CC8BF0A42CFCE98EF0A42CFC79
:100234008AF0EDA42CFCEA8EF0A4CDA8F08BF0A4F7
:100244002DCC3825F0FDE98FF0A42CCD35F0FCEB56
:100254008EF0A4FEA9F0EB8FF0A4CFC5F02ECD391B
:0F026400FEE43CFCEAA42DCE35F0FDE43CFC2288
:1002730075F008758200EF2FFFEE33FECD33CDCC42
:1002830033CCC58233C5829BED9AEC99E5829840C5
:100293000CF582EE9BFEED9AFDEC99FC0FD5F0D6A2
:1002A300E4CEFBE4CDFAE4CCF9A88222B800C1B9CC
:1002B3000059BA002DEC8BF084CFCECDFCE5F0CB0A
:1002C300F97818EF2FFFEE33FEED33FDEC33FCEB43
:1002D30033FB10D703994004EB99FB0FD8E5E4F9FE
:1002E300FA227818EF2FFFEE33FEED33FDEC33FCEB
:1002F300C933C910D7059BE99A4007EC9BFCE99ADF
:10030300F90FD8E0E4C9FAE4CCFB2275F010EF2F23
:10031300FFEE33FEED33FDCC33CCC833C810D70723
:100323009BEC9AE899400AED9BFDEC9AFCE899F85E
:0E0333000FD5F0DAE4CDFBE4CCFAE4C8F922F1
:10034100EB9FF5F0EA9E42F0E99D42F0E89C45F012
:010351002289
:10035200E493FC740193FD740293FE740393FF22F1
:0C036200A42582F582E5F03583F58322A6
:06036E008A838982E4731A
:00000001FF
