:0300000002173BA9
:0C173B00787FE4F6D8FD75813A02178231
:10213A000102030405060708090A0B0C0D0E0F100D
:06214A000000000000008F
:10157800460043FFFFFFFFFFFF41003D0041003CE5
:1015880000410018004100610041003E0146002A68
:0A15980000000000000041002901DE
:101612001221ED1221AF1200167F807E257D007C03
:1016220000121F6A75250175260075274975280263
:101632007B017A0079007D1812201B1221BB7BFFEF
:101642007A1079047F031220A97BFF7A187950E47B
:10165200FF1220A97BFF7A12792C7F051220A97B29
:10166200FF7A0379137F041220A97BFF7A1F790086
:101672007F061220A990004974AAF0A37455F012B3
:1016820020877F151221E775240375250475260529
:101692007527067528077B027D01E4FF121175127A
:0716A2001F9B120C8E80FB60
:081387008F218B228A238924A7
:10138F00E4900069F0A3740AF0AB22AA23A9247F8A
:10139F0052121A2AEF7007900069E04401F0AB2255
:1013AF00AA23A924120F49EF7007900069E04402A5
:1013BF00F0AB22AA23A9241210BDEF700790006989
:1013CF00E04404F085222D85232E85242F7B017A7E
:1013DF00007943AD217F611212DFEF700790006932
:1013EF00E04408F0AB25AA26A927AF211217C7EFB3
:1013FF007007900069E04420F0900069E0B42F027C
:10140F00801490006AE0FF14F0EF70028008E490FF
:0E141F000069F0021398121D93900069E0FF1F
:01142D00229C
:061C10008B218A228923CA
:101C1600E4900062F0A3740AF07B007A0479007FF6
:101C260052121A2AEF7007900062E04401F0AB21CD
:101C3600AA22A923120F49EF7007900062E044021E
:101C4600F0900062E0FFB403028013900063E0FEB0
:0E1C560014F0EE70028007E4900062F080BB94
:011C6400225D
:08142E008F218B228A238924FF
:10143600E4900064F0A3740AF07B017A0079667F79
:1014460052121A2AEF7007900064E04401F07B0103
:101456007A007966120F49EF7007900064E0440243
:10146600F07B017A0079661210BDEF700790006478
:10147600E04404F0752D01752E00752F667B017A08
:10148600007943AD217F611212DFEF70079000648F
:10149600E04408F0AB22AA23A924AF21120D8EEF57
:1014A6007007900064E04410F0900064E0B41F02FE
:1014B6008014900065E0FF14F0EF70028008E4905D
:0E14C6000064F002143F121D93900064E0FFDA
:0114D40022F5
:061942007B017A00793FF1
:061948008B218A22892395
:10194E00E4900064F0A3740AF07B007A0479007FBF
:10195E0052121A2AEF7007900064E04401F0AB2196
:10196E00AA22A923120F49EF7007900064E04402E7
:10197E00F0AB21AA22A9231210BDEF7007900064CC
:10198E00E04404F0900064E0B40702801390006518
:10199E00E0FF14F0EF70028007E4900064F080A97D
:0819AE00121D93900064E0FF9C
:0119B600220E
:10208700E4F521E5212450FF121D05742A2521F5C9
:1020970082E43400F583EFF00521E521C39406407F
:0120A700E256
:0120A8002215
:061FC7008B218A22892310
:101FCD00E4F524E5242450FFAB21AA22A92385247E
:101FDD008275830012013DFD121FF20524E524C315
:041FED00940640DF37
:011FF10022CD
:1018CA00A3F090002AE090004DF090002BE09000E9
:1018DA004EF090002CE090004FF090002DE0900028
:1018EA0050F090002EE0900051F090002FE0900010
:0A18FA0052F07B017A0079497D0A63
:061904008B218A228923D9
:10190A00E4900065F0900064F0900064E0FFC39DED
:10191A005020A3E0FEAB21AA22A9238F827583005F
:10192A0012013DFFEE6F900065F0900064E004F054
:07193A0080D7900065E0FF7B
:011941002283
:101B62001221E078307C007D017E007F0C1200FEA5
:101B720090004B7408F0A37403F0900036E0FCA3CD
:101B8200E0FDEC90004DF0EDA3F0900038E0FCA3F6
:101B9200E0FDEC90004FF0EDA3F0900034A3E09054
:101BA2000051F0E4A31218FB900053EFF07B017A8E
:071BB2000079490D0221201A
:101F0000900018E004F0B41E02E4F090003CE0B44D
:101F100001227B017A00793F121C10BF0308900058
:101F2000617401F08005E4900061F0900018E070A9
:051F300003121B6222F8
:1010040090003CE07044900029E0600A7F3812218F
:10101400E790002A80087F071221E790002DE0FE68
:10102400C4540FFFEE540FFDA3E0FEC4540FF52487
:10103400EE540FF525752636A3E0FEC4540FF527AC
:10104400EE540FF5287B3612117590003CE06401D4
:101054007066900061E0605090003EE0FF1221E76E
:1010640090003FE0FEC4540FFFEE540FFDA3E0FEDA
:10107400C4540FFBEE540FF524A3E0FEC4540FF543
:1010840025EE540FF526A3E0FEC4540FF527EE54C5
:101094000FF52812117590003EE0FF25E0FEEFC425
:1010A40013131354012EF022E4FF1221E77F007E74
:0910B400007D007C00120A2122DB
:1003130090006274FFF0E4A3F07B017A0079007D22
:1003230017121904900017E06F60030205A59000EF
:1003330002E0900062F0705E121942EF64079000D1
:100343004B601C7401F0A374FFF0A37402F07B01F3
:100353007A0079497D0512190490004E02059974BB
:1003630006F0E4A3F090003FE090004DF0900040D1
:10037300E090004EF0900041E090004FF09000427A
:10038300E0900050F07B017A0079497D081219044E
:10039300900051020599900062E064016003020439
:1003A3007D90004B7413F0A37401F0900003E0FF01
:1003B30090004DF07525017526007527197B017A8C
:1003C30000793F121387EF642F601E90004B740374
:1003D300F0A374FFF0A37401F0FB7A0079497D0563
:1003E30012190490004E02047A900019E090004E16
:1003F300F090001AE090004FF090001BE090005046
:10040300F090001CE0900051F090001DE09000522D
:10041300F090001EE0900053F090001FE090005415
:10042300F0900020E0900055F0900021E0900056FD
:10043300F0900022E0900057F0900023E0900058E5
:10044300F0900024E0900059F0900025E090005ACD
:10045300F0900026E090005BF0900027E090005CB5
:10046300F0900028E090005DF07B017A0079497DEF
:100473001512190490005E020599900062E064026F
:100483006003020555900003E0FF7B017A007904C5
:1004930012142EEF641F90004B601C7403F0A374BE
:1004A300FFF0A37403F07B017A0079497D051219EB
:1004B3000490004E0205527413F0A37402F0A314C7
:1004C300F0900004E090004EF0900005E090004FA3
:1004D300F0900006E0900050F0900007E09000518B
:1004E300F0900008E0900052F0900009E090005373
:1004F300F090000AE0900054F090000BE09000555B
:10050300F090000CE0900056F090000DE090005742
:10051300F090000EE0900058F090000FE09000592A
:10052300F0900010E090005AF0900011E090005B12
:10053300F0900012E090005CF0900013E090005DFA
:10054300F07B017A0079497D1512190490005E024F
:100553000599900062E0B40303021B62900062E01D
:100563006404701C7B017A007903121FC712208771
:1005730090004B7408F074041218CA90005380164C
:10058300900062E06405701A90004B7408F07405E3
:100593001218CA900053EFF07B017A0079490D12CB
:0205A300212015
:0105A5002233
:10122C0090003CE060030212DEFF121BB9900068D4
:10123C00EFF0640170427525017526007527197B46
:10124C00017A00793F7F1412138790003DEFF06410
:10125C002F600FE090004BF07B017A0079497D0301
:10126C0080137B017A00793F7D041221207B017A67
:10127C000079197D101221207F03121BB990006890
:05128C00EFF0BF011F9F
:1012910078627C007D017BFF7A21794A7E007F069E
:0F12A1001200FE7B017A007962121FC7122087AC
:1012B0007F05121BB9900068EFF0BF010A9000296A
:1012C000E0FFC374019FF07F02121BB9900068EF2A
:0E12D000F0BF010A900029E0FFC374019FF0F7
:0112DE0022ED
:101850007F01122105900062EFF064017048900052
:101860003CE02401FFE433FE7C007D0312019EAFC7
:1018700005EFF070097F877ED67D12FC80259000F1
:101880003CE0B4010FE4FF1221E77F007E007D0001
:101890007C00800F90003CE0B4020B7F027E007D54
:1018A000007C00120A2190003CE0701DFF1221050F
:1018B000900062EFF0BF0111121942BF070B7B01CC
:0918C0007A00793F7D0412212019
:0118C90022FC
:101F9B00C2AF53B3E143B41E4391015392FE53912D
:101FAB00FD439202D291D2C1D2C2C290C2C3D2C45B
:0C1FBB00121F351221D9122166D2AF226C
:081A2A008F288B298A2A892BE1
:101A32001220E87D077F0D121B057D037F14122102
:101A42005090006EE528F075340175350175360049
:101A520075376E753801753900753A6C7A00796E92
:101A620012084590006BEFF07027A3E07004A3E02A
:101A72006410701D90006EE0AB29AA2AA92B1201F6
:101A82006A90006FE0AB29AA2AA92B9000011201EB
:061A92007C90006BE0FFF8
:011A9800222B
:060F49008B288A29892A89
:100F4F00E490006DF01220E8E4FD7F0D121B057D8B
:100F5F00807F0E1220EC9000707493F0A37420F039
:100F6F007534027535017536007537707538017532
:100F7F003900753A6E7B017A0079707F0C1208493F
:100F8F0090006BEFF07061A3F090006CE0FFC394E2
:100F9F00045039E0FE2470F582E43400F583E0ABB1
:100FAF0028AA29A92A8E8275830012017C90006DD0
:100FBF00E0FE74702FF582E43400F583E0FFEE6FEE
:100FCF0090006DF090006CE004F080BD90006CE03C
:100FDF002470F582E43400F583E0FF90006DE06F3C
:100FEF00600690006B74FEF07D807F0E1221509092
:040FFF00006BE0FFA4
:0110030022CA
:0610BD008B288A29892A14
:1010C30090006F7493F0A37470F0E4900075F09047
:1010D300006CF090006CE0FFC394045039AB28AA75
:1010E30029A92AE0FEF58275830012013DFD747182
:1010F3002EF582E43400F583EDF0900075E0FE8F69
:101103008275830012013DFFEE6F900075F0900031
:101113006CE004F080BD752F017530007531767B6E
:10112300017A00796F7D071214EE1220E8753409F5
:1011330075350175360075376F753801753900756A
:101143003A6D7B017A00796F7F0C12084990006B2E
:10115300EFF0701290006DE07004A3E06418700665
:1011630090006BF0800690006B74FEF090006BE0D3
:01117300FF7C
:011174002258
:0612DF008B2A8A2B892CEA
:1012E50090006FEFF0A3EDF0E490006EF0AB2AAA4A
:1012F5002BA92C90006EE0FFF58275830012013D4D
:10130500FE74712FF582E43400F583EEF090006EE3
:10131500E004F0E0B406D6E490006EF0AB2DAA2E02
:10132500A92F90006EE0FFF58275830012013DFE46
:1013350074772FF582E43400F583EEF090006EE0CB
:1013450004F0E0B406D675340C75350175360075B4
:10135500376F753801753900753A6C7B017A0079FC
:101365006F7F0E12084990006BEFF070097F08122D
:101375001A99EF20E30690006B74FEF090006BE085
:01138500FF68
:011386002244
:0617C7008B288A29892A03
:1017CD0090006F7430F0A3EFF0752F017530007538
:1017DD0031717A00796F1214EA753404753501751B
:1017ED00360075376F753801753900753A6C7B01A8
:1017FD007A00796F7F0C12084990006BEFF070370B
:10180D00A3E07004A3E06490702D90006EF0900042
:10181D006EE0FF246FF582E43400F583E0AB28AA77
:10182D0029A92A8F8275830012017C90006EE00435
:10183D00F0E0B410D9800690006B74FEF090006B50
:02184D00E0FFBA
:01184F002276
:060D8E008B258A2689274F
:100D940090006E74A0F0A3EFF0752F01753000750C
:100DA40031707B017A00796E7D021214EE75340481
:100DB40075350175360075376E75380175390075EE
:100DC4003A6B7B017A00796E7F0C12084990006AB5
:100DD400EFF07014A3E07004A3E06404700A9000C0
:100DE4006EE0540F640A600690006A74FEF090008E
:100DF4006AE06003020E7E90006DF0AB25AA26A97E
:100E04002790006DE0FFF58275830012013DFE74AA
:100E14006E2FF582E43400F583EEF090006DE0046B
:100E2400F0E0B410D6752F0175300075317E7B016A
:100E34007A00796E7D101214EE75341275350175D1
:100E4400360075376E753801753900753A6B7B015C
:100E54007A00796E7F0C12084990006AEFF07014E2
:100E6400A3E07004A3E06404700A90006EE0540FE1
:0F0E7400640A600690006A74FEF090006AE0FF66
:010E8300224C
:080E84008D088B098A0A890B15
:100E8C00EF1214D512082C9000B4EFF07014A3E0FC
:100E9C007004A3E06404700A9000B8E0540F640A74
:100EAC0060069000B474FEF09000B4E0705A9000AC
:100EBC00B7F0AB09AA0AA90B9000B7E0FFF5827551
:100ECC00830012013DFE74B82FF582E43400F583E3
:100EDC00EEF09000B7E004F0E0B410D6752F017579
:100EEC0030007531BC7B017A0079B87D041214EEA8
:100EFC00E49000B5F0A3F075340612082F9000B4FE
:100F0C00EFF064FE6002E4F09000B4E0702974B07D
:100F1C001214D512082C9000B4EFF07014A3E070EA
:100F2C0004A3E06404700A9000B8E0540F640A60F3
:0C0F3C00069000B474FEF09000B4E0FFDA
:010F48002286
:020B71008D0EE7
:100B73009000E374C2F0A3EFF0752F017530007598
:100B830031E57B017A0079E37D021214EE753404BA
:100B93007535017536007537E3753801753900759C
:100BA3003AE17B017A0079E37F0C1208499000E077
:100BB300EFF07014A3E07004A3E06404700A9000E3
:100BC300E3E0540F640A60069000E074FEF09000C6
:100BD300E0E070499000E3F0A3F0A3F0A3F0752FD9
:100BE300017530007531E77B017A0079E37D0412EA
:100BF30014EE7534067535017536007537E37538AF
:100C030001753900753AE17B017A0079E37F0C12B3
:100C130008499000E0EFF064FE6002E4F09000E029
:100C2300E060037FFE229000E374B0F0A3E50EF0D2
:100C3300752F017530007531E57B017A0079E37D0D
:100C4300021214EE7534047535017536007537E3F9
:100C5300753801753900753AE17B017A0079E37FD4
:100C63000C1208499000E0EFF07014A3E07004A3A5
:100C7300E06404700A9000E3E0540F640A60069095
:0A0C830000E074FEF09000E0E0FFD6
:010C8D002244
:101D930090006E7450F0E4A3F0752F017530007558
:101DA30031707B017A00796E7D021214EE75340472
:101DB30075350175360075376E75380175390075DF
:101DC3003A6C7B017A00796E7F0C12084990006BA4
:041DD300EFF07F00AE
:011DD70022E9
:1014D5009000B8F0A3E508F0752F0175300075315F
:0914E500BA7A0079B87B017D029E
:0814EE008B2B8A2C892D8D2E19
:1014F6007D047F051220EC121B017D807F0A1221DC
:1015060050E4900081F0900081E0FFC3952E501CBE
:10151600AB2BAA2CA92D8F8275830012013DFD7F6E
:1015260009121B05900081E004F080DA7D037F013B
:10153600121B0590008174FFF07F05121A99900026
:1015460082EFF0900081E014F0E06005A3E030E265
:10155600E87F22121A99AB2FAA30A931EF12016A3D
:101566007F21121A99AB2FAA30A931900001EF0200
:02157600017CF6
:101F35007D0F7F01121B05007D3D7F11121B057D65
:101F45001E7F2D121B05E4FD7F2C121B057D8D7F49
:101F55002A121B057D3E7F2B121B057D407F151226
:051F65001B057F0022B6
:101A9900E490008CF0D2C1C291EF25E0547E4480DD
:101AA90090008BF090008A7408F090008BE0FF3072
:101AB900E703D38001C3B392C2C2C1EF25E090000E
:101AC9008BF0D2C190008AE014F0E070DD90008ABA
:101AD9007408F0C2C190008CE025E0F0309004E079
:101AE9004401F0D2C190008AE014F0E070E5D2918F
:071AF900D2C190008CE0FF58
:011B000022C2
:041B0100E4FD7F017F
:101B0500D2C1C291EF25E0547E90008BF090008AFF
:101B15007408F090008BE0FF30E703D38001C3B376
:101B250092C2C2C1EF25E090008BF0D2C190008A2D
:101B3500E014F0E070DD90008A7408F0ED30E70302
:101B4500D38001C3B392C2C2C1ED25E0FDD2C190DD
:0C1B5500008AE014F0E070E4D291D2C1EC
:011B61002261
:02215000AE07D8
:10215200E4900089F0121A99900089EFF0AF064DD1
:04216200FD021B055A
:0420E8007D087F08E8
:0220EC00AE073D
:1020EE00E4900089F0121A99900089EFF0FCAF0687
:0720FE00EDF45CFD021B057F
:10082C007534047535017536007537B87538017532
:0D083C003900753AB57A0079B87B017F0C60
:080849008F308B318A328933B4
:1008510090008274FEF0E4A3F0A3F0E53024F4608C
:100861001024FE70169000837412F0A37410F080AF
:100871000A9000837477F0A37430F0900083E04411
:1008810080FD7F02121B057D807F041220EC121B6C
:10089100017D807F0A122150E4900087F0A3F0903F
:1008A1000087E0FCA3E0FDC39534EC94005023AB3A
:1008B10031AA32A9338D828C8312013DFD7F091249
:1008C1001B05900088E004F070D5900087E004F0EB
:1008D10080CDAD307F01121B05E530B40C077D8062
:1008E1007F0D1221509000877402F0A37458F07F9D
:1008F10004121A99900086EFF0900088E024FFF02E
:10090100900087E034FFF0E07002A3E060119000F6
:1009110086E0FF20E009900084E0FEEF5E60D07D7C
:10092100807F0D1220EC900087E07002A3E070033D
:10093100020A117F06121A99EF541B6003020A0B77
:10094100900082F0A3E0FF900086E05F30E0069027
:10095100008274FFF0E530640C6003020A117F0A23
:10096100121A99900086EFF07F0C121A99EF540732
:10097100900085F06026A3E024FFFFE434FFFEEF42
:100981007803C333CE33CED8F9FF900085E07C00E5
:100991002FFFEC3EAB38AA39A93A8011900086E0CE
:1009A10075F008A4FFAB38AA39A93AE5F08FF01227
:1009B10001F3900086E0700204F0900086E0D39489
:1009C1001240037412F0E4900087F0A3F0900086C7
:1009D100E0FFC3900088E09F900087E094005030D2
:1009E1007F09121A99AB35AA36A937900087E0FC26
:1009F100A3E0F5828C83EF12017C900088E004F083
:100A010070CB900087E004F080C390008274FEF008
:0F0A11007D807F0C122150121B01900082E0FFAC
:010A200022B3
:102166007F14121A99900062EFF0540370077D03F2
:052176007F141221504E
:01217B002241
:0721D9007D037F140220ECDE
:1015A2004100DB004100DF004100D9004100DC00C6
:1015B2004100DE004100DA004100DD004100D600BA
:0B21BB00759D9C75BC88D2ADD2AF2290
:0721E0007B017A0079CA229D
:101BB900EF70089000DFE05401FF22BF010A900096
:101BC900DFE05402C313FF22BF020C9000DFE05490
:101BD900041313543FFF22BF030D9000DFE05408A4
:101BE900131313541FFF22BF040B9000DFE054109E
:101BF900C4540FFF22BF050C9000DFE05420C4132A
:071C09005407FF227F0022B7
:03002B000205A625
:1005A600C0E0C0F0C083C082C0D075D000C002C019
:1005B60004C005C006C0079000DBE0FD7017AFBDA4
:1005C600EF75F004A4FFACBEEC7A002FFEEA35F01E
:1005D6009000CA806EEDB40115AFBDEF75F004A4AE
:1005E600ADBE7C002DFEEC35F09000CC8055900021
:1005F600DBE0FDB40217AFBDEF75F004A4FFACBE9F
:10060600EC7A002FFEEA35F09000CE8036EDB4038A
:1006160015AFBDEF75F004A4ADBE7C002DFEEC3524
:10062600F09000D0801D9000DBE0FDB4041CAFBD4F
:10063600EF75F004A4FFACBEEC7A002FFEEA35F0AD
:100646009000D2F0A3CEF002080BED64076003021F
:10065600080BAFBDEF75F004A4ADBE7C002DFEEC1B
:1006660035F09000D4F0A3CEF09000D4E0FEA3E0E5
:10067600FFC3EE9400402FD3EF9410EE9400502663
:100686009000D9E0FDB414109000DFE04401F09032
:100696000092E04420F08006EDC39414500D9000C3
:1006A600D9E004F080059000D9E4F09000D4E0FE93
:1006B600A3E0FFC3948BEE9400402FD3EF94ABEEF0
:1006C600940050269000DCE0FDB414109000DFE0AA
:1006D6004402F0900092E04420F08006EDC39414AA
:1006E600500D9000DCE004F080059000DCE4F09012
:1006F60000D4E0FEA3E0FFC39420EE9401402DD386
:10070600EF9440EE940150249000DEE0FDB4140E08
:10071600A3E04404F0900092E04420F08006EDC38C
:100726009414500D9000DEE004F080059000DEE4A5
:10073600F09000D4E0FEA3E0FFC394B9EE9401402C
:100746000FD3EF94D9EE940150067C007D0180040E
:100756007C007D009000D8E025E0FF9000D7E033D4
:100766004CFEEF4DFFEEF0A3EFF0B40012EEB4E056
:100776000E9000DFE04408F0900092E04420F090F4
:1007860000D4E0FEA3E0FFC39448EE9402402FD3CA
:10079600EF9468EE940250269000DDE0FDB414104C
:1007A6009000DFE04410F0900092E04420F08006D4
:1007B600EDC39414500D9000DDE004F08005900028
:1007C600DDE4F09000D4E0FEA3E0FFC394D3EE9402
:1007D60002402DD3EF94F3EE94025024A3E0FDB42F
:1007E60014109000DFE04420F0900092E04420F0E6
:1007F6008006EDC39414500D9000D6E004F08005F9
:100806009000D6E4F09000DBE0045407F02488F56D
:10081600BCD007D006D005D004D002D0D0D082D02C
:0608260083D0F0D0E032A7
:101EC9003F065B4F666D7D077F6F777C395E797161
:101ED900BF86DBCFE6EDFD87FFEF3D760F0E753848
:101EE90037545C73673149783E1C7E646E5A00FF33
:071EF900F7FCB9DEF9F1402E
:0415C2004100FE10D6
:0C21AF00E4F5957596FFF5937594FF22FA
:0621E7009000FDEFF02264
:10117500EF3395E0FE74C92FF582741E3EF583E4C6
:10118500939000F5F0AF05EF3395E0FE74C92FF5A8
:1011950082741E3EF583E4939000F6F0AF03EF33BF
:1011A50095E0FE74C92FF582741E3EF583E4939095
:1011B50000F7F0AF24EF3395E0FE74C92FF5827484
:1011C5001E3EF583E4939000F8F0AF25EF3395E0EC
:1011D500FE74C92FF582741E3EF583E4939000F9E1
:1011E500F0AF26EF3395E0FE74C92FF582741E3EED
:1011F500F583E4939000FAF0AF27EF3395E0FE74A2
:10120500C92FF582741E3EF583E4939000FBF0AF81
:1012150028EF3395E0FE74C92FF582741E3EF583E1
:07122500E4939000FCF022AD
:100A21008F248E238D228C217B807A967998780071
:100A310012024EE47B0AFAF9F812024E74C92BF540
:100A410082741E3AF583E4939000F5F07B407A427C
:100A5100790F7800AF24AE23AD22AC2112024EE40F
:100A61007B0AFAF9F812024E74C92BF582741E3A08
:100A7100F583E4939000F6F07BA07A867901780003
:100A8100AF24AE23AD22AC2112024EE47B0AFAF967
:100A9100F812024E74C92BF582741E3AF583E49361
:100AA1009000F7F0E47B107A27F9F8AF24AE23AD7C
:100AB10022AC2112024EE47B0AFAF9F812024E74BA
:100AC100C92BF582741E3AF583E4939000F8F0E4A3
:100AD1007BE87A03F9F8AF24AE23AD22AC211202F0
:100AE1004EE47B0AFAF9F812024E74C92BF58274AE
:100AF1001E3AF583E4939000F9F0E47B64FAF9F887
:100B0100AF24AE23AD22AC2112024EE47B0AFAF9E6
:100B1100F812024E74C92BF582741E3AF583E493E0
:100B21009000FAF0E47B0AFAF9F8AF24AE23AD2283
:100B3100AC2112024EE47B0AFAF9F812024E74C992
:100B41002BF582741E3AF583E4939000FBF0E47B6D
:100B51000AFAF9F8AF24AE23AD22AC2112024E7489
:100B6100C92BF582741E3AF583E4939000FCF022C0
:0F21910074F52FF582E43400F583E02480F0220A
:101E19009000FEE030E312E5A054F72408F5A09005
:101E290000FDE0F580E4A3F0229000FEE0FF5407F6
:101E3900FEE5A054F02EF5A074F52EF582E43400E9
:0E1E4900F583E0F580EF04540F9000FEF022C8
:10210500EF7008900109E05401FF22BF010A900118
:0B21150009E05402C313FF227F0022E8
:1015C6005E00940000000000000000000000000023
:1015D6000000000000000000000000000000000005
:1015E600004200910000410090004200B20000025B
:0B15F6000C000041008E0041008F003F
:1020CA00EF25E025E0FFE58954F02F2410F589E596
:0E20DA008E547F2480F58ED28CD2A9D2AF22F4
:10217C00438E805389F0758ACD758CD4C28DD28CE8
:05218C00D2A9D2AF2230
:0B21C600D2AFD2A8D2AAD288D28A22BF
:0621ED001221C602217C54
:1020A900EF3395E0FE90009475F003EF120301EE13
:1020B90075F003A42583F583EBF0A3EAF0A3E9F017
:0120C90022F4
:1016A900900092E030E020900094E0FBA3E0FAA3E0
:1016B900E0F9EA494B600312030DE4900109F09047
:1016C9000092E06401F022900092E030E41B900067
:1016D900A0E0FBA3E0FAA3E0F9EA494B6003120397
:1016E9000D900092E06410F022900092E030E52025
:1016F9009000A3E0FBA3E0FAA3E0F9EA494B6003F9
:1017090012030DE49000DFF0900092E06420F022D3
:10171900900092E030E71A9000A9E0FBA3E0FAA359
:10172900E0F9EA494B600312030D900092E06480EE
:02173900F0229C
:100C8E001216A9900090E064016003020D8D758A22
:100C9E00CD758CD4900097E0FBA3E0FAA3E0F9EABF
:100CAE00494B600312030D20B22890008EE0FDB474
:100CBE000A10900092E06401F0900109E06401F0E6
:100CCE008008C3ED6480948A500D90008EE004F08D
:100CDE008005E490008EF020B32890008FE0FDB4E4
:100CEE000A10900092E06401F0900109E06402F0B5
:100CFE008008C3ED6480948A500D90008FE004F05C
:100D0E008005E490008FF0AE0CAF0D7C007D0A12D2
:100D1E00019EED4C701390009AE0FBA3E0FAA3E065
:100D2E00F9EA494B600312030DAE0CAF0D7C007D4A
:100D3E006412019EED4C701390009DE0FBA3E0FA4F
:100D4E00A3E0F9EA494B600312030DAE0CAF0D7C24
:100D5E00037DE812019EED4C70189000A6E0FBA3F7
:100D6E00E0FAA3E0F9EA494B600312030DE4F50C37
:0F0D7E00F50D050DE50D7002050CE4900090F0E9
:010D8D002243
:03000B00021DD8FB
:101DD800C0E0C0F0C083C082C0D075D000C000C0D1
:101DE80001C002C003C004C005C006C0079000902F
:101DF8007401F0121E19D007D006D005D004D00304
:101E0800D002D001D000D0D0D082D083D0F0D0E0A2
:011E18003297
:03000300020006F2
:0100060032C7
:03001300020007E1
:0100070032C6
:101E9100000004B0000000E800000960000000F448
:101EA100000012C0000000FA00002580000000FDC3
:101EB10000004B00000000FE00009600000000FF43
:081EC1000000E100000000FF39
:1016010041010500410103004101020041010400C3
:081C65008F288E278D268C25A7
:101C6D00E4900062F0900062E0FFC39407503BEFF8
:101C7D0075F008A42491F582E4341EF5831202F167
:101C8D00AB28AA27A926A825C31202E0701490003C
:101C9D0062E075F008A42495F582E4341EF5830204
:0C1CAD0002F1900062E004F080BB7FFDBB
:011CB9002208
:101F6A008F248E238D228C21759850E589540F2455
:101F7A0020F589AF24AE23AD22AC21121C65900155
:101F8A0004EFF0F58DF58BD28E538EFED2ACD2AF24
:011F9A002224
:10212000AF051DEF6013120124F5993099FDC29996
:0A213000740129F9E43AFA80E7226D
:10201B009000FFEBF0A3EAF0A3E9F0900106E525B1
:10202B00F0A3E526F0A3E527F0900105EDF0900174
:05203B0003E528F0227E
:101CBA00E490008DF0900103E0FF90008DE0FEC3F8
:101CCA009F5035900106E0FBA3E0FAA3E0F98E826B
:101CDA0075830012013DFF9000FFE0FBA3E0FAA329
:101CEA00E0F98E8275830012013D6F60037F002246
:0A1CFA0090008DE004F080BD7F0132
:011D040022BC
:030023000219B708
:1019B700C0E0C083C082C0D075D000C000C001C0E5
:1019C70002C003C006C007309902C29930983F9001
:1019D7000105E0FF900102E0FEC39F502F9000FF3A
:1019E700E0FBA3E0FAA3E0F98E82758300E5991284
:1019F700017C900102E004F0E0C39F400FE4F01285
:101A07001CBAEF6007900092E04410F0C298D0072C
:101A1700D006D003D002D001D000D0D0D082D0835E
:031A2700D0E032DA
:06206400D2CD7F057E00D5
:10206A00EF1FAC0670011E4C601290006D7403F0F5
:0C207A0090006DE0FD14F0ED60E680F4D5
:012086002237
:1020400090006AEFF090006AE0D394004015A3740A
:102050007BF090006BE014F0E070F790006AE01401
:03206000F080E22B
:01206300225A
:0D00160043C92043CA2043B30143B4012273
:0F21A000D2CDD2C0122066C2C0122066C2CD229C
:0821D100C2C0122064D2C0223A
:021E5700AB07D7
:101E5900E490006BF0EB30E704D2C08002C2C0EB23
:101E690025E0FB122066122064C2CD90006BE004CD
:101E7900F0E0C3940840DED2C0122066122064A2AA
:071E8900C09200C2CDA200CF
:011E9000222F
:101D4D00E490006CF0D2C090006BF0122064900013
:101D5D006CE025E0F030C004E04401F0C2CD12206B
:101D6D006690006BE004F0E0C3940840DE300004A0
:101D7D00D2C08002C2C0122066122064C2CDD2C071
:051D8D0090006CE0FF76
:011D9200222E
:021D0500AA072B
:101D070090006A74A0F01221A090006AE0FF121EF2
:101D17005750028018AF02121E575002800F12212F
:101D2700A090006AE04401FF121E5750061221D10D
:101D37007FFF22D200121D4D900069EFF01221D1D2
:051D4700900069E0FFBF
:011D4C002274
:041FF200AA05A9078C
:101FF60090006974A0F01221A0900069E0FF121E03
:1020060057AF01121E57AF02121E571221D17F324F
:052016007E00022040E5
:10174700021612E493A3F8E493A34003F68001F290
:1017570008DFF48029E493A3F85407240CC8C333A3
:10176700C4540F4420C8834004F456800146F6DF72
:10177700E4800B0102040810204080901578E47E75
:10178700019360BCA3FF543F30E509541FFEE49367
:10179700A360010ECF54C025E060A840B8E493A32E
:1017A700FAE493A3F8E493A3C8C582C8CAC583CA59
:1017B700F0A3C8C582C8CAC583CADFE9DEE780BE11
:0116110000D8
:10002E00E709F608DFFA8046E709F208DFFA803EB4
:10003E0088828C83E709F0A3DFFA8032E309F608A1
:10004E00DFFA8078E309F208DFFA807088828C8309
:10005E00E309F0A3DFFA806489828A83E0A3F608BD
:10006E00DFFA805889828A83E0A3F208DFFA804C97
:10007E0080D280FA80C680D4806980F2803380106E
:10008E0080A680EA809A80A880DA80E280CA8033D7
:10009E0089828A83ECFAE493A3C8C582C8CCC5834F
:1000AE00CCF0A3C8C582C8CCC583CCDFE9DEE7801F
:1000BE000D89828A83E493A3F608DFF9ECFAA9F09E
:1000CE00EDFB2289828A83ECFAE0A3C8C582C8CCF4
:1000DE00C583CCF0A3C8C582C8CCC583CCDFEADE0D
:1000EE00E880DB89828A83E493A3F208DFF980CC6F
:1000FE0088F0EF60010E4E60C388F0ED2402B40468
:10010E000050B9F582EB2402B4040050AF2323450E
:06011E00822390007E73B5
:10012400BB010689828A83E0225002E722BBFE02D9
:09013400E32289828A83E493220C
:10013D00BB010CE58229F582E5833AF583E0225077
:10014D0006E92582F8E622BBFE06E92582F8E222C1
:0D015D00E58229F582E5833AF583E49322DB
:10016A00BB010689828A83F0225002F722BBFE0174
:02017A00F3226E
:10017C00F8BB010DE58229F582E5833AF583E8F0B9
:10018C00225006E92582C8F622BBFE05E92582C865
:02019C00F2224D
:10019E00BC000BBE0029EF8DF084FFADF022E4CC45
:1001AE00F875F008EF2FFFEE33FEEC33FCEE9DEC0E
:1001BE00984005FCEE9DFE0FD5F0E9E4CEFD22ED54
:1001CE00F8F5F0EE8420D21CFEADF075F008EF2F9E
:1001DE00FFED33FD4007985006D5F0F222C398FD8F
:0501EE000FD5F0EA222C
:1001F300BB010A89828A83F0E5F0A3F0225006F757
:0F02030009A7F01922BBFE06F3E5F009F3192253
:1002120075F008758200EF2FFFEE33FECD33CDCCA3
:1002220033CCC58233C5829BED9AEC99E582984026
:100232000CF582EE9BFEED9AFDEC99FC0FD5F0D603
:10024200E4CEFBE4CDFAE4CCF9A88222B800C1B92D
:100252000059BA002DEC8BF084CFCECDFCE5F0CB6B
:10026200F97818EF2FFFEE33FEED33FDEC33FCEBA4
:1002720033FB10D703994004EB99FB0FD8E5E4F95F
:10028200FA227818EF2FFFEE33FEED33FDEC33FC4C
:10029200C933C910D7059BE99A4007EC9BFCE99A40
:1002A200F90FD8E0E4C9FAE4CCFB2275F010EF2F85
:1002B200FFEE33FEED33FDCC33CCC833C810D70785
:1002C2009BEC9AE899400AED9BFDEC9AFCE899F8C0
:0E02D2000FD5F0DAE4CDFBE4CCFAE4C8F92253
:1002E000EB9FF5F0EA9E42F0E99D42F0E89C45F074
:0102F00022EB
:1002F100E493FC740193FD740293FE740393FF2253
:0C030100A42582F582E5F03583F5832207
:06030D008A838982E4737B
:00000001FF
