:0300000002178262
:0C178200787FE4F6D8FD75813A0217C9A3
:1021E3000102030405060708090A0B0C0D0E0F1064
:0621F300000000000000E6
:1015BF00460043FFFFFFFFFFFF41003D0041003C9E
:1015CF0000410018004100610041003E0146002A21
:0A15DF000000000000004100290197
:0A22640000007F027E0FDEFEDFFCAB
:01226E00224D
:102153009000007C007D0A12019EAA06AB07C3E52E
:0F216300829BE5839A5008B2B4122264A380EFE6
:01217200224A
:101659001222A11222581200167F807E257D007C5D
:1016690000121FF575250175260075274975280291
:101679007B017A0079007D181220A412226F7BFF6A
:101689007A10794B7F031221327BFF7A187997E41C
:10169900FF1221327BFF7A1279737F051221327B87
:1016A900FF7A0379257F041221327BFF7A19791198
:1016B9007F0612213290004974AAF0A37455F012E2
:1016C90021107F1512229B752403752504752605A3
:1016D9007527067528077B027D01E4FF1211BC12EC
:0716E9002051120CD580FB1B
:0813CE008F218B228A23892460
:1013D600E4900069F0A3740AF0AB22AA23A9247F43
:1013E60052121AEAEF7007900069E04401F0AB224E
:1013F600AA23A924120F90EF7007900069E0440217
:10140600F0AB22AA23A924121104EF7007900069F9
:10141600E04404F085222D85232E85242F7B017A36
:10142600007943AD217F61121326EF7007900069A2
:10143600E04408F0AB25AA26A927AF2112180EEF23
:101446007007900069E04420F0900069E0B42F0234
:10145600801490006AE0FF14F0EF70028008E490B8
:0E1466000069F00213DF121E53900069E0FFD0
:011474002255
:061CD0008B218A2289230A
:101CD600E4900062F0A3740AF07B007A0479007F36
:101CE60052121AEAEF7007900062E04401F0AB214D
:101CF600AA22A923120F90EF7007900062E0440217
:101D0600F0900062E0FFB403028013900063E0FEEF
:0E1D160014F0EE70028007E4900062F080BBD3
:011D2400229C
:081475008F218B228A238924B8
:10147D00E4900064F0A3740AF07B017A0079667F32
:10148D0052121AEAEF7007900064E04401F07B01FC
:10149D007A007966120F90EF7007900064E04402B5
:1014AD00F07B017A007966121104EF7007900064E9
:1014BD00E04404F0752D01752E00752F667B017AC1
:1014CD00007943AD217F61121326EF700790006400
:1014DD00E04408F0AB22AA23A924AF21120DD5EFC9
:1014ED007007900064E04410F0900064E0B41F02B7
:1014FD008014900065E0FF14F0EF70028008E49016
:0E150D000064F0021486121E53900064E0FF8A
:01151B0022AD
:061A02007B017A00793F30
:061A08008B218A228923D4
:101A0E00E4900064F0A3740AF07B007A0479007FFE
:101A1E0052121AEAEF7007900064E04401F0AB2115
:101A2E00AA22A923120F90EF7007900064E04402DF
:101A3E00F0AB21AA22A923121104EF7007900064C3
:101A4E00E04404F0900064E0B40702801390006557
:101A5E00E0FF14F0EF70028007E4900064F080A9BC
:081A6E00121E53900064E0FF1A
:011A7600224D
:10211000E4F521E5212450FF121DC5742A2521F57F
:1021200082E43400F583EFF00521E521C3940640F5
:01213000E2CC
:01213100228B
:062026008B218A228923B0
:10202C00E4F524E5242450FFAB21AA22A92385241E
:10203C008275830012013DFD12207B0524E524C32B
:04204C00940640DFD7
:01205000226D
:10198A00A3F090002AE090004DF090002BE0900028
:10199A004EF090002CE090004FF090002DE0900067
:1019AA0050F090002EE0900051F090002FE090004F
:0A19BA0052F07B017A0079497D0AA2
:0619C4008B218A22892319
:1019CA00E4900065F0900064F0900064E0FFC39D2D
:1019DA005020A3E0FEAB21AA22A9238F827583009F
:1019EA0012013DFFEE6F900065F0900064E004F094
:0719FA0080D7900065E0FFBB
:011A010022C2
:101C220012229478307C007D017E007F0C1200FE2F
:101C320090004B7408F0A37403F0900036E0FCA30C
:101C4200E0FDEC90004DF0EDA3F0900038E0FCA335
:101C5200E0FDEC90004FF0EDA3F0900034A3E09093
:101C62000051F0E4A31219BB900053EFF07B017A0C
:071C72000079490D0221C9B0
:10191100900018E004F0B41E02E4F090003CE06492
:101921000170657B017A00793F121CD0EF6403706E
:101931004990006104F090004B7406F0A3F0900010
:101941003FE090004DF0900040E090004EF090009C
:1019510041E090004FF0900042E0900050F07B0198
:101961007A0079497D081219C4900051EFF07B018A
:101971007A0079490D1221C98005E4900061F09047
:091981000018E07003121C222280
:10104B0090003CE07044900029E0600A7F38122247
:10105B009B90002A80087F0712229B90002DE0FEB8
:10106B00C4540FFFEE540FFDA3E0FEC4540FF52440
:10107B00EE540FF525752636A3E0FEC4540FF52765
:10108B00EE540FF5287B361211BC90003CE0640146
:10109B007066900061E0605090003EE0FF12229B72
:1010AB0090003FE0FEC4540FFFEE540FFDA3E0FE93
:1010BB00C4540FFBEE540FF524A3E0FEC4540FF5FC
:1010CB0025EE540FF526A3E0FEC4540FF527EE547E
:1010DB000FF5281211BC90003EE0FF25E0FEEFC497
:1010EB0013131354012EF022E4FF12229B7F007E78
:0910FB00007D007C00120A68224D
:1003250090006274FFF0E4A3F07B017A0079007D10
:10033500171219C4900017E06F60030205EC9000D6
:1003450002E0900062F0705E121A02EF64079000FE
:100355004B601C7401F0A374FFF0A37402F07B01E1
:100365007A0079497D051219C490004E0205E074A2
:1003750006F0E4A3F090003FE090004DF0900040BF
:10038500E090004EF0900041E090004FF090004268
:10039500E0900050F07B017A0079497D081219C47C
:1003A5009000510205E0900062E0640160030204E0
:1003B5008F90004B7413F0A37401F0900003E0FFDD
:1003C50090004DF07525017526007527197B017A7A
:1003D50000793F1213CEEF642F601E90004B74031B
:1003E500F0A374FFF0A37401F0FB7A0079497D0551
:1003F5001219C490004E02048C900019E090004E32
:10040500F090001AE090004FF090001BE090005033
:10041500F090001CE0900051F090001DE09000521B
:10042500F090001EE0900053F090001FE090005403
:10043500F0900020E0900055F0900021E0900056EB
:10044500F0900022E0900057F0900023E0900058D3
:10045500F0900024E0900059F0900025E090005ABB
:10046500F0900026E090005BF0900027E090005CA3
:10047500F0900028E090005DF07B017A0079497DDD
:10048500151219C490005E0205E0900062E0640256
:100495006003020567900003E0FF7B017A007904A1
:1004A500121475EF641F90004B601C7403F0A37465
:1004B500FFF0A37403F07B017A0079497D051219D9
:1004C500C490004E0205647413F0A37402F0A314E3
:1004D500F0900004E090004EF0900005E090004F91
:1004E500F0900006E0900050F0900007E090005179
:1004F500F0900008E0900052F0900009E090005361
:10050500F090000AE0900054F090000BE090005548
:10051500F090000CE0900056F090000DE090005730
:10052500F090000EE0900058F090000FE090005918
:10053500F0900010E090005AF0900011E090005B00
:10054500F0900012E090005CF0900013E090005DE8
:10055500F07B017A0079497D151219C490005E027D
:1005650005E0900062E0B40303021C22900062E003
:100575006404701D7B017A00790312202612211074
:1005850090004B7408F0740412198A900053020508
:10059500E0900062E06405701090004B7408F07400
:1005A5000512198A9000538032900062E06406704B
:1005B50036900003E06401702E7FC8FE122153902F
:1005C500004B7403F0A374FFF0A37406F07B017A6B
:1005D5000079497D051219C490004EEFF07B017A30
:0705E5000079490D1221C944
:0105EC0022EC
:1012730090003CE06003021325FF121C7990006884
:10128300EFF0640170427525017526007527197BFF
:10129300017A00793F7F141213CE90003DEFF06482
:1012A3002F600FE090004BF07B017A0079497D03BA
:1012B30080137B017A00793F7D041221C97B017A77
:1012C3000079197D101221C97F03121C79900068DF
:0512D300EFF0BF011F58
:1012D80078627C007D017BFF7A2179F37E007F06AE
:0F12E8001200FE7B017A0079621220261221107B
:1012F7007F05121C79900068EFF0BF010A90002962
:10130700E0FFC374019FF07F02121C79900068EF21
:0E131700F0BF010A900029E0FFC374019FF0AF
:0113250022A5
:101897007F011221AE900062EFF064017048900062
:1018A7003CE02401FFE433FE7C007D031201B0AF6E
:1018B70005EFF070097F877ED67D12FC80259000AA
:1018C7003CE0B4010FE4FF12229B7F007E007D0005
:1018D7007C00800F90003CE0B4020B7F027E007D0D
:1018E700007C00120A6890003CE0701DFF1221AED8
:1018F700900062EFF0BF0111121A02BF070B7B01C4
:091907007A00793F7D041221C928
:0119100022B4
:10205100C2AF53B3E143B41E4391015392FE539176
:10206100FD439202D291D2C1D2C2C2C3D2C4121FC5
:0A207100C012228D12220FD2AF22FE
:081AEA008F288B298A2A892B21
:101AF2001221917D077F0D121BC57D037F141221D8
:101B0200F990006EE528F0753401753501753600DF
:101B120075376E753801753900753A6C7A00796ED1
:101B220012088C90006BEFF07027A3E07004A3E022
:101B32006410701D90006EE0AB29AA2AA92B120135
:101B42006A90006FE0AB29AA2AA92B90000112012A
:061B52007C90006BE0FF37
:011B5800226A
:060F90008B288A29892A42
:100F9600E490006DF0122191E4FD7F0D121BC57DDA
:100FA600807F0E1221959000707493F0A37420F048
:100FB60075340275350175360075377075380175EB
:100FC6003900753A6E7B017A0079707F0C120890B1
:100FD60090006BEFF07061A3F090006CE0FFC3949B
:100FE600045039E0FE2470F582E43400F583E0AB6A
:100FF60028AA29A92A8E8275830012017C90006D89
:10100600E0FE74702FF582E43400F583E0FFEE6FA6
:1010160090006DF090006CE004F080BD90006CE0F4
:101026002470F582E43400F583E0FF90006DE06FF4
:10103600600690006B74FEF07D807F0E1221F990A1
:04104600006BE0FF5C
:01104A002283
:061104008B288A29892ACC
:10110A0090006F7493F0A37470F0E4900075F090FF
:10111A00006CF090006CE0FFC394045039AB28AA2D
:10112A0029A92AE0FEF58275830012013DFD74713A
:10113A002EF582E43400F583EDF0900075E0FE8F21
:10114A008275830012013DFFEE6F900075F09000EA
:10115A006CE004F080BD752F017530007531767B27
:10116A00017A00796F7D07121535122191753409BC
:10117A0075350175360075376F7538017539007523
:10118A003A6D7B017A00796F7F0C12089090006BA0
:10119A00EFF0701290006DE07004A3E0641870061E
:1011AA0090006BF0800690006B74FEF090006BE08C
:0111BA00FF35
:0111BB002211
:061326008B2A8A2B892CA2
:10132C0090006FEFF0A3EDF0E490006EF0AB2AAA02
:10133C002BA92C90006EE0FFF58275830012013D05
:10134C00FE74712FF582E43400F583EEF090006E9C
:10135C00E004F0E0B406D6E490006EF0AB2DAA2EBB
:10136C00A92F90006EE0FFF58275830012013DFEFF
:10137C0074772FF582E43400F583EEF090006EE084
:10138C0004F0E0B406D675340C753501753600756D
:10139C00376F753801753900753A6C7B017A0079B5
:1013AC006F7F0E12089090006BEFF070097F08129F
:1013BC001B59EF20E30690006B74FEF090006BE07D
:0113CC00FF21
:0113CD0022FD
:06180E008B288A29892ABB
:1018140090006F7430F0A3EFF0752F0175300075F0
:1018240031717A00796F121531753404753501758B
:10183400360075376F753801753900753A6C7B0160
:101844007A00796F7F0C12089090006BEFF070377C
:10185400A3E07004A3E06490702D90006EF09000FB
:101864006EE0FF246FF582E43400F583E0AB28AA30
:1018740029A92A8F8275830012017C90006EE004EE
:10188400F0E0B410D9800690006B74FEF090006B09
:02189400E0FF73
:01189600222F
:060DD5008B258A26892708
:100DDB0090006E74A0F0A3EFF0752F0175300075C5
:100DEB0031707B017A00796E7D02121535753404F2
:100DFB0075350175360075376E75380175390075A7
:100E0B003A6B7B017A00796E7F0C12089090006A26
:100E1B00EFF07014A3E07004A3E06404700A900078
:100E2B006EE0540F640A600690006A74FEF0900046
:100E3B006AE06003020EC590006DF0AB25AA26A9EF
:100E4B002790006DE0FFF58275830012013DFE7463
:100E5B006E2FF582E43400F583EEF090006DE00424
:100E6B00F0E0B410D6752F0175300075317E7B0123
:100E7B007A00796E7D101215357534127535017542
:100E8B00360075376E753801753900753A6B7B0115
:100E9B007A00796E7F0C12089090006AEFF0701454
:100EAB00A3E07004A3E06404700A90006EE0540F9A
:0F0EBB00640A600690006A74FEF090006AE0FF1F
:010ECA002205
:080ECB008D088B098A0A890BCE
:100ED300EF12151C1208739000B4EFF07014A3E026
:100EE3007004A3E06404700A9000B8E0540F640A2D
:100EF30060069000B474FEF09000B4E0705A900065
:100F0300B7F0AB09AA0AA90B9000B7E0FFF5827509
:100F1300830012013DFE74B82FF582E43400F5839B
:100F2300EEF09000B7E004F0E0B410D6752F017531
:100F330030007531BC7B017A0079B87D0412153518
:100F4300E49000B5F0A3F07534061208769000B46F
:100F5300EFF064FE6002E4F09000B4E0702974B036
:100F630012151C1208739000B4EFF07014A3E07014
:100F730004A3E06404700A9000B8E0540F640A60AC
:0C0F8300069000B474FEF09000B4E0FF93
:010F8F00223F
:020BB8008D0EA0
:100BBA009000E374C2F0A3EFF0752F017530007551
:100BCA0031E57B017A0079E37D021215357534042B
:100BDA007535017536007537E37538017539007555
:100BEA003AE17B017A0079E37F0C1208909000E0E9
:100BFA00EFF07014A3E07004A3E06404700A90009C
:100C0A00E3E0540F640A60069000E074FEF090007E
:100C1A00E0E070499000E3F0A3F0A3F0A3F0752F91
:100C2A00017530007531E77B017A0079E37D0412A2
:100C3A0015357534067535017536007537E375381F
:100C4A0001753900753AE17B017A0079E37F0C126C
:100C5A0008909000E0EFF064FE6002E4F09000E09B
:100C6A00E060037FFE229000E374B0F0A3E50EF08B
:100C7A00752F017530007531E57B017A0079E37DC6
:100C8A00021215357534047535017536007537E36A
:100C9A00753801753900753AE17B017A0079E37F8D
:100CAA000C1208909000E0EFF07014A3E07004A317
:100CBA00E06404700A9000E3E0540F640A6006904E
:0A0CCA0000E074FEF09000E0E0FF8F
:010CD40022FD
:101E530090006E7450F0E4A3F0752F017530007597
:101E630031707B017A00796E7D0212153575340469
:101E730075350175360075376E753801753900751E
:101E83003A6C7B017A00796E7F0C12089090006B9C
:041E9300EFF07F00ED
:011E97002228
:10151C009000B8F0A3E508F0752F01753000753117
:09152C00BA7A0079B87B017D0256
:081535008B2B8A2C892D8D2ED1
:10153D007D047F05122195121BC17D807F0A12212A
:10154D00F9E4900081F0900081E0FFC3952E501CCE
:10155D00AB2BAA2CA92D8F8275830012013DFD7F27
:10156D0009121BC5900081E004F080DA7D037F0134
:10157D00121BC590008174FFF07F05121B5990005E
:10158D0082EFF0900081E014F0E06005A3E030E21E
:10159D00E87F22121B59AB2FAA30A931EF12016A35
:1015AD007F21121B59AB2FAA30A931900001EF02F8
:0215BD00017CAF
:101FC0007D0F7F01121BC5007D3D7F11121BC57D5A
:101FD0001E7F2D121BC5E4FD7F2C121BC57D8D7F3E
:101FE0002A121BC57D3E7F2B121BC57D407F15121B
:051FF0001BC57F00226B
:101B5900E490008CF0D2C1C291EF25E0547E44801C
:101B690090008BF090008A7408F090008BE0FF30B1
:101B7900E703D38001C3B392C2C2C1EF25E090004D
:101B89008BF0D2C190008AE014F0E070DD90008AF9
:101B99007408F0C2C190008CE025E0F0309004E0B8
:101BA9004401F0D2C190008AE014F0E070E5D291CE
:071BB900D2C190008CE0FF97
:011BC0002202
:041BC100E4FD7F01BF
:101BC500D2C1C291EF25E0547E90008BF090008A3F
:101BD5007408F090008BE0FF30E703D38001C3B3B6
:101BE50092C2C2C1EF25E090008BF0D2C190008A6D
:101BF500E014F0E070DD90008A7408F0ED30E70342
:101C0500D38001C3B392C2C2C1ED25E0FDD2C1901C
:0C1C1500008AE014F0E070E4D291D2C12B
:011C210022A0
:0221F900AE072F
:1021FB00E4900089F0121B59900089EFF0AF064D67
:04220B00FD021BC5F0
:042191007D087F083E
:02219500AE0793
:10219700E4900089F0121B59900089EFF0FCAF061C
:0721A700EDF45CFD021BC515
:100873007534047535017536007537B875380175EB
:0D0883003900753AB57A0079B87B017F0C19
:080890008F308B318A3289336D
:1008980090008274FEF0E4A3F0A3F0E53024F46045
:1008A8001024FE70169000837412F0A37410F08068
:1008B8000A9000837477F0A37430F0900083E044CA
:1008C80080FD7F02121BC57D807F04122195121BBB
:1008D800C17D807F0A1221F9E4900087F0A3F0908F
:1008E8000087E0FCA3E0FDC39534EC94005023ABF3
:1008F80031AA32A9338D828C8312013DFD7F091202
:100908001BC5900088E004F070D5900087E004F0E3
:1009180080CDAD307F01121BC5E530B40C077D805A
:100928007F0D1221F99000877402F0A37458F07FAC
:1009380004121B59900086EFF0900088E024FFF025
:10094800900087E034FFF0E07002A3E060119000AF
:1009580086E0FF20E009900084E0FEEF5E60D07D35
:10096800807F0D122195900087E07002A3E070034C
:10097800020A587F06121B59EF541B6003020A52E1
:10098800900082F0A3E0FF900086E05F30E00690E0
:10099800008274FFF0E530640C6003020A587F0A95
:1009A800121B59900086EFF07F0C121B59EF540769
:1009B800900085F06026A3E024FFFFE434FFFEEFFB
:1009C8007803C333CE33CED8F9FF900085E07C009E
:1009D8002FFFEC3EAB38AA39A93A8011900086E087
:1009E80075F008A4FFAB38AA39A93AE5F08FF012E0
:1009F8000205900086E0700204F0900086E0D3942F
:100A08001240037412F0E4900087F0A3F09000867F
:100A1800E0FFC3900088E09F900087E0940050308A
:100A28007F09121B59AB35AA36A937900087E0FC1D
:100A3800A3E0F5828C83EF12017C900088E004F03B
:100A480070CB900087E004F080C390008274FEF0C1
:0F0A58007D807F0C1221F9121BC1900082E0FFFC
:010A6700226C
:10220F007F14121B59900062EFF0540370077D0387
:05221F007F141221F9FB
:012224002297
:07228D007D037F140221957F
:1015E9004100DB004100DF004100D9004100DC007F
:1015F9004100DE004100DA004100DD004100D60073
:0B226F00759D9C75BC88D2ADD2AF22DB
:072294007B017A0079CA22E8
:101C7900EF70089000DFE05401FF22BF010A9000D5
:101C8900DFE05402C313FF22BF020C9000DFE054CF
:101C9900041313543FFF22BF030D9000DFE05408E3
:101CA900131313541FFF22BF040B9000DFE05410DD
:101CB900C4540FFF22BF050C9000DFE05420C41369
:071CC9005407FF227F0022F7
:03002B000205EDDE
:1005ED00C0E0C0F0C083C082C0D075D000C002C0D2
:1005FD0004C005C006C0079000DBE0FD7017AFBD5D
:10060D00EF75F004A4FFACBEEC7A002FFEEA35F0D6
:10061D009000CA806EEDB40115AFBDEF75F004A466
:10062D00ADBE7C002DFEEC35F09000CC80559000D9
:10063D00DBE0FDB40217AFBDEF75F004A4FFACBE57
:10064D00EC7A002FFEEA35F09000CE8036EDB40343
:10065D0015AFBDEF75F004A4ADBE7C002DFEEC35DD
:10066D00F09000D0801D9000DBE0FDB4041CAFBD08
:10067D00EF75F004A4FFACBEEC7A002FFEEA35F066
:10068D009000D2F0A3CEF0020852ED640760030291
:10069D000852AFBDEF75F004A4ADBE7C002DFEEC8D
:1006AD0035F09000D4F0A3CEF09000D4E0FEA3E09E
:1006BD00FFC3EE9400402FD3EF9410EE940050261C
:1006CD009000D9E0FDB414109000DFE04401F090EB
:1006DD000092E04420F08006EDC39414500D90007C
:1006ED00D9E004F080059000D9E4F09000D4E0FE4C
:1006FD00A3E0FFC3948BEE9400402FD3EF94ABEEA9
:10070D00940050269000DCE0FDB414109000DFE062
:10071D004402F0900092E04420F08006EDC3941462
:10072D00500D9000DCE004F080059000DCE4F090CA
:10073D0000D4E0FEA3E0FFC39420EE9401402DD33E
:10074D00EF9440EE940150249000DEE0FDB4140EC1
:10075D00A3E04404F0900092E04420F08006EDC345
:10076D009414500D9000DEE004F080059000DEE45E
:10077D00F09000D4E0FEA3E0FFC394B9EE940140E5
:10078D000FD3EF94D9EE940150067C007D018004C7
:10079D007C007D009000D8E025E0FF9000D7E0338D
:1007AD004CFEEF4DFFEEF0A3EFF0B40012EEB4E00F
:1007BD000E9000DFE04408F0900092E04420F090AD
:1007CD0000D4E0FEA3E0FFC39448EE9402402FD383
:1007DD00EF9468EE940250269000DDE0FDB4141005
:1007ED009000DFE04410F0900092E04420F080068D
:1007FD00EDC39414500D9000DDE004F080059000E1
:10080D00DDE4F09000D4E0FEA3E0FFC394D3EE94BA
:10081D0002402DD3EF94F3EE94025024A3E0FDB4E7
:10082D0014109000DFE04420F0900092E04420F09E
:10083D008006EDC39414500D9000D6E004F08005B1
:10084D009000D6E4F09000DBE0045407F02488F526
:10085D00BCD007D006D005D004D002D0D0D082D0E5
:06086D0083D0F0D0E03260
:101F89003F065B4F666D7D077F6F777C395E7971A0
:101F9900BF86DBCFE6EDFD87FFEF3D760F0E753887
:101FA90037545C73673149783E1C7E646E5A00FF72
:071FB900F7FCB9DEF9F1406D
:041609004100FE108E
:0C225800E4F5957596FFF5937594FF2250
:06229B009000FDEFF022AF
:1011BC00EF3395E0FE74892FF582741F3EF583E4BE
:1011CC00939000F5F0AF05EF3395E0FE74892FF5A1
:1011DC0082741F3EF583E4939000F6F0AF03EF3377
:1011EC0095E0FE74892FF582741F3EF583E493908D
:1011FC0000F7F0AF24EF3395E0FE74892FF582747D
:10120C001F3EF583E4939000F8F0AF25EF3395E0A3
:10121C00FE74892FF582741F3EF583E4939000F9D8
:10122C00F0AF26EF3395E0FE74892FF582741F3EE4
:10123C00F583E4939000FAF0AF27EF3395E0FE745A
:10124C00892FF582741F3EF583E4939000FBF0AF79
:10125C0028EF3395E0FE74892FF582741F3EF583D9
:07126C00E4939000FCF02266
:100A68008F248E238D228C217B807A96799878002A
:100A7800120260E47B0AFAF9F812026074892BF515
:100A880082741F3AF583E4939000F5F07B407A4234
:100A9800790F7800AF24AE23AD22AC21120260E4B6
:100AA8007B0AFAF9F812026074892BF582741F3AEE
:100AB800F583E4939000F6F07BA07A8679017800BC
:100AC800AF24AE23AD22AC21120260E47B0AFAF90E
:100AD800F812026074892BF582741F3AF583E49347
:100AE8009000F7F0E47B107A27F9F8AF24AE23AD35
:100AF80022AC21120260E47B0AFAF9F8120260744F
:100B0800892BF582741F3AF583E4939000F8F0E49A
:100B18007BE87A03F9F8AF24AE23AD22AC211202A8
:100B280060E47B0AFAF9F812026074892BF5827482
:100B38001F3AF583E4939000F9F0E47B64FAF9F83E
:100B4800AF24AE23AD22AC21120260E47B0AFAF98D
:100B5800F812026074892BF582741F3AF583E493C6
:100B68009000FAF0E47B0AFAF9F8AF24AE23AD223C
:100B7800AC21120260E47B0AFAF9F8120260748967
:100B88002BF582741F3AF583E4939000FBF0E47B25
:100B98000AFAF9F8AF24AE23AD22AC211202607430
:100BA800892BF582741F3AF583E4939000FCF022B8
:0F223A0074F52FF582E43400F583E02480F02260
:101ED9009000FEE030E312E5A054F72408F5A09045
:101EE90000FDE0F580E4A3F0229000FEE0FF540736
:101EF900FEE5A054F02EF5A074F52EF582E4340029
:0E1F0900F583E0F580EF04540F9000FEF02207
:1021AE00EF7008900109E05401FF22BF010A90016F
:0B21BE0009E05402C313FF227F00223F
:10160D005E009400000000000000000000000000DB
:10161D0000000000000000000000000000000000BD
:10162D00004200910000410090004200B200000213
:0B163D000C000041008E0041008F00F7
:10217300EF25E025E0FFE58954F02F2410F589E5EC
:0E2183008E547F2480F58ED28CD2A9D2AF224A
:10222500438E805389F0758ACD758CD4C28DD28C3E
:05223500D2A9D2AF2286
:0B227A00D2AFD2A8D2AAD288D28A220A
:0622A10012227A02222540
:10213200EF3395E0FE90009475F003EF120313EE77
:1021420075F003A42583F583EBF0A3EAF0A3E9F08D
:01215200226A
:1016F000900092E030E020900094E0FBA3E0FAA399
:10170000E0F9EA494B600312031FE4900109F090ED
:101710000092E06401F022900092E030E41B90001F
:10172000A0E0FBA3E0FAA3E0F9EA494B600312034F
:101730001F900092E06410F022900092E030E520CB
:101740009000A3E0FBA3E0FAA3E0F9EA494B6003B1
:1017500012031FE49000DFF0900092E06420F0227A
:10176000900092E030E71A9000A9E0FBA3E0FAA312
:10177000E0F9EA494B600312031F900092E0648095
:02178000F02255
:100CD5001216F0900090E064016003020DD4758A4D
:100CE500CD758CD4900097E0FBA3E0FAA3E0F9EA78
:100CF500494B600312031F20B22890008EE0FDB41B
:100D05000A10900092E06401F0900109E06401F09E
:100D15008008C3ED6480948A500D90008EE004F045
:100D25008005E490008EF020B32890008FE0FDB49C
:100D35000A10900092E06401F0900109E06402F06D
:100D45008008C3ED6480948A500D90008FE004F014
:100D55008005E490008FF0AE0CAF0D7C007D0A128B
:100D650001B0ED4C701390009AE0FBA3E0FAA3E00C
:100D7500F9EA494B600312031FAE0CAF0D7C007DF1
:100D8500641201B0ED4C701390009DE0FBA3E0FAF6
:100D9500A3E0F9EA494B600312031FAE0CAF0D7CCB
:100DA500037DE81201B0ED4C70189000A6E0FBA39E
:100DB500E0FAA3E0F9EA494B600312031FE4F50CDE
:0F0DC500F50D050DE50D7002050CE4900090F0A2
:010DD40022FC
:03000B00021E983A
:101E9800C0E0C0F0C083C082C0D075D000C000C010
:101EA80001C002C003C004C005C006C0079000906E
:101EB8007401F0121ED9D007D006D005D004D00383
:101EC800D002D001D000D0D0D082D083D0F0D0E0E2
:011ED80032D7
:03000300020006F2
:0100060032C7
:03001300020007E1
:0100070032C6
:101F5100000004B0000000E800000960000000F487
:101F6100000012C0000000FA00002580000000FD02
:101F710000004B00000000FE00009600000000FF82
:081F81000000E100000000FF78
:10164800410105004101030041010200410104007C
:081D25008F288E278D268C25E6
:101D2D00E4900062F0900062E0FFC39407503BEF37
:101D3D0075F008A42451F582E4341FF583120303D2
:101D4D00AB28AA27A926A825C31202F27014900069
:101D5D0062E075F008A42455F582E4341FF5830282
:0C1D6D000303900062E004F080BB7FFDE7
:011D79002247
:101FF5008F248E238D228C21759850E589540F24CA
:1020050020F589AF24AE23AD22AC21121D25900108
:1020150004EFF0F58DF58BD28E538EFED2ACD2AF98
:012025002298
:1021C900AF051DEF6013120124F5993099FDC299ED
:0A21D900740129F9E43AFA80E722C4
:1020A4009000FFEBF0A3EAF0A3E9F0900106E52528
:1020B400F0A3E526F0A3E527F0900105EDF09001EB
:0520C40003E528F022F5
:101D7A00E490008DF0900103E0FF90008DE0FEC337
:101D8A009F5035900106E0FBA3E0FAA3E0F98E82AA
:101D9A0075830012013DFF9000FFE0FBA3E0FAA368
:101DAA00E0F98E8275830012013D6F60037F002285
:0A1DBA0090008DE004F080BD7F0171
:011DC40022FC
:03002300021A7747
:101A7700C0E0C083C082C0D075D000C000C001C024
:101A870002C003C006C007309902C29930983F9040
:101A97000105E0FF900102E0FEC39F502F9000FF79
:101AA700E0FBA3E0FAA3E0F98E82758300E59912C3
:101AB700017C900102E004F0E0C39F400FE4F012C4
:101AC7001D7AEF6007900092E04410F0C298D007AB
:101AD700D006D003D002D001D000D0D0D082D0839E
:031AE700D0E0321A
:0620ED00D2CD7F057E004C
:1020F300EF1FAC0670011E4C601290006D7403F06C
:0C21030090006DE0FD14F0ED60E680F44B
:01210F0022AD
:1020C90090006AEFF090006AE0D394004015A37481
:1020D9007BF090006BE014F0E070F790006AE01478
:0320E900F080E2A2
:0120EC0022D1
:0D00160043C92043CA2043B30143B4012273
:0F224900D2CDD2C01220EFC2C01220EFC2CD22E0
:08228500C2C01220EDD2C022FC
:021F1700AB0716
:101F1900E490006BF0EB30E704D2C08002C2C0EB62
:101F290025E0FB1220EF1220EDC2CD90006BE004FA
:101F3900F0E0C3940840DED2C01220EF1220EDA2D7
:071F4900C09200C2CDA2000E
:011F5000226E
:101E0D00E490006CF0D2C090006BF01220ED9000C9
:101E1D006CE025E0F030C004E04401F0C2CD1220AA
:101E2D00EF90006BE004F0E0C3940840DE30000456
:101E3D00D2C08002C2C01220EF1220EDC2CDD2C09E
:051E4D0090006CE0FFB5
:011E5200226D
:021DC500AA076B
:101DC70090006A74A0F012224990006AE0FF121F87
:101DD7001750028018AF02121F175002800F1222ED
:101DE7004990006AE04401FF121F1750061222852E
:101DF7007FFF22D200121E0D900069EFF01222859C
:051E0700900069E0FFFE
:011E0C0022B3
:04207B00AA05A90702
:10207F0090006974A0F0122249900069E0FF121FCE
:10208F0017AF01121F17AF02121F171222857F32CF
:05209F007E000220C9D3
:10178E00021659E493A3F8E493A34003F68001F202
:10179E0008DFF48029E493A3F85407240CC8C3335C
:1017AE00C4540F4420C8834004F456800146F6DF2B
:1017BE00E4800B01020408102040809015BFE47EE7
:1017CE00019360BCA3FF543F30E509541FFEE49320
:1017DE00A360010ECF54C025E060A840B8E493A3E7
:1017EE00FAE493A3F8E493A3C8C582C8CAC583CA12
:1017FE00F0A3C8C582C8CAC583CADFE9DEE780BECA
:011658000091
:10002E00E709F608DFFA8046E709F208DFFA803EB4
:10003E0088828C83E709F0A3DFFA8032E309F608A1
:10004E00DFFA8078E309F208DFFA807088828C8309
:10005E00E309F0A3DFFA806489828A83E0A3F608BD
:10006E00DFFA805889828A83E0A3F208DFFA804C97
:10007E0080D280FA80C680D4806980F2803380106E
:10008E0080A680EA809A80A880DA80E280CA8033D7
:10009E0089828A83ECFAE493A3C8C582C8CCC5834F
:1000AE00CCF0A3C8C582C8CCC583CCDFE9DEE7801F
:1000BE000D89828A83E493A3F608DFF9ECFAA9F09E
:1000CE00EDFB2289828A83ECFAE0A3C8C582C8CCF4
:1000DE00C583CCF0A3C8C582C8CCC583CCDFEADE0D
:1000EE00E880DB89828A83E493A3F208DFF980CC6F
:1000FE0088F0EF60010E4E60C388F0ED2402B40468
:10010E000050B9F582EB2402B4040050AF2323450E
:06011E00822390007E73B5
:10012400BB010689828A83E0225002E722BBFE02D9
:09013400E32289828A83E493220C
:10013D00BB010CE58229F582E5833AF583E0225077
:10014D0006E92582F8E622BBFE06E92582F8E222C1
:0D015D00E58229F582E5833AF583E49322DB
:10016A00BB010689828A83F0225002F722BBFE0174
:02017A00F3226E
:10017C00F8BB010DE58229F582E5833AF583E8F0B9
:10018C00225006E92582C8F622BBFE05E92582C865
:02019C00F2224D
:10019E00EF8DF0A4A8F0CF8CF0A428CE8DF0A42E75
:0201AE00FE222F
:1001B000BC000BBE0029EF8DF084FFADF022E4CC33
:1001C000F875F008EF2FFFEE33FEEC33FCEE9DECFC
:1001D000984005FCEE9DFE0FD5F0E9E4CEFD22ED42
:1001E000F8F5F0EE8420D21CFEADF075F008EF2F8C
:1001F000FFED33FD4007985006D5F0F222C398FD7D
:050200000FD5F0EA2219
:10020500BB010A89828A83F0E5F0A3F0225006F744
:0F02150009A7F01922BBFE06F3E5F009F3192241
:1002240075F008758200EF2FFFEE33FECD33CDCC91
:1002340033CCC58233C5829BED9AEC99E582984014
:100244000CF582EE9BFEED9AFDEC99FC0FD5F0D6F1
:10025400E4CEFBE4CDFAE4CCF9A88222B800C1B91B
:100264000059BA002DEC8BF084CFCECDFCE5F0CB59
:10027400F97818EF2FFFEE33FEED33FDEC33FCEB92
:1002840033FB10D703994004EB99FB0FD8E5E4F94D
:10029400FA227818EF2FFFEE33FEED33FDEC33FC3A
:1002A400C933C910D7059BE99A4007EC9BFCE99A2E
:1002B400F90FD8E0E4C9FAE4CCFB2275F010EF2F73
:1002C400FFEE33FEED33FDCC33CCC833C810D70773
:1002D4009BEC9AE899400AED9BFDEC9AFCE899F8AE
:0E02E4000FD5F0DAE4CDFBE4CCFAE4C8F92241
:1002F200EB9FF5F0EA9E42F0E99D42F0E89C45F062
:0103020022D8
:10030300E493FC740193FD740293FE740393FF2240
:0C031300A42582F582E5F03583F58322F5
:06031F008A838982E47369
:00000001FF
